
DTSF=6771                                 PAL8-V10D NO DATE   PAGE 1

       6771  DTSF=6771
       6772  DTRB=6772
       6774  DTLB=6774
       6761  DTRA=6761
       6762  DTCA=6762
       6764  DTXA=6764

/PROCESSOR MANAGEMENT AND INPUT/OUTPUT    PAL8-V10D NO DATE   PAGE 2

             /PROCESSOR MANAGEMENT AND INPUT/OUTPUT SYSTEM
                     IFDEF KPMIO <XLIST>

             /PAGE 1 - EXTENDED SYMBOLS

             /EAE
       7405  MUY=7405
       7407  DVI=7407
       7411  NMI=7411
       7413  SHL=7413
       7501  MQA=7501
       7415  ASR=7415
       7417  LSR=7417
       7421  MQL=7421
       7441  SCA=7441
       7621  CAM=7621
       7403  SCL=7403
       7521  XAM=7521

             /MEMORY EXTENSION
       6201  CDF=6201
       6202  CIF=6202
       6214  RDF=6214
       6224  RIF=6224
       6244  RMF=6244
       6234  RIB=6234

             / A/D
       6531  ADSF=6531
       6532  ADCV=6532
       6534  ADRB=6534
       6541  ADCC=6541
       6542  ADSC=6542
       6544  ADIC=6544

             /SCOPE CONTROL
       6051  SCER=6051
       6052  SCLX=6052
       6054  SCIX=6054
       6056  SCLIX=6056
       6061  SCSE=6061
       6062  SCLY=6062
       6064  SCIY=6064
       6066  SCLIY=6066

       6360  ESR=6360        /EXTERNAL SWITCH REGISTER

             /TTY2
       6131  K2SF=6131
       6132  K2CC=6132
       6134  K2RS=6134
       6136  K2RB=6136
       6141  T2SF=6141
       6142  T2CF=6142
       6144  T2PC=6144

/PROCESSOR MANAGEMENT AND INPUT/OUTPUT    PAL8-V10D NO DATE   PAGE 2-1

       6146  T2LS=6146

             /TTY MODE CONTROL
       6151  TTYR=6151
       6152  TTYC=6152
       6153  TTYN=6153

                     /INDEX REGISTER
       6601  LDX=6601
       6605  LDXC=6605
       6604  XCLA=6604
       6602  SXM=6602
       6071  ISX=6071
       6072  RDX=6072
       6074  RXM=6074
       0100  X=100

             /INTERVAL TIMER
       6171  LIT=6171
       6173  LITC=6173
       6174  SIT=6174

             /PRIORITY INTERRUPT DECODE
       6561  LDMSK=6561
       6562  RDMSK=6562
       6564  RDINT=6564
       6005  PION=6005

             /SUPERVISOR CALL INTERRUPT
       6571  SVC=6571
       6573  CLSVC=6573
       6572  XSVC=6572
       6574  TSVC=6574

             /SYMBOLS FOR HRP HARDWARE
       6110  INA=6110
       6120  DNS=6120
       6310  FRE=6310
       6320  SRA=6320
       6330  RVI=6330
       6370  CLK=6370
       6450  OSW=6450
       6350  INB=6350
       6400  TL1=6400
       6410  TL2=6410

             /WR66 INTERFACE
       6515  RL66=6515
       6514  RH66=6514
       6516  WL66=6516
       6517  WH66=6517

             /TI INTERFACE
       6161  TIR=6161
       6162  TIW=6162

/PROCESSOR MANAGEMENT AND INPUT/OUTPUT    PAL8-V10D NO DATE   PAGE 3


             /SYMBOLS AND DATA STRUCTURES FOR PMIO SYSTEM

       7000  SYSBS=7000      /ADDRESS OF THE START OF THE SYSTEM BASED STORAGE AREAR
       0600  SBSSIZ=600      /SIZE OF THE SYSTEM BASED STORAGE AREA
       0111  SYSMSK=0111     /INITIAL SYSTEM MASK - DISABLE READER, NON-EXISTENT
                             /INTERRUPTS, AND CLOCK. CLOCK WILL BE ENABLED WHEN
                             /THE REAL TIME CLOCK GETS SET BY THE PROGRAM.

                     NOPUNCH
             /PROCESS CONTROL BLOCK
       0000          *0
00000  0000  PCBP1,  0       /POINTER TO NEXT
00001  0000  PCBPR,  0       /PRIORITY
00002  0000  PCBWR,  0       /POINTER TO THE WORKING REGISTER CHAIN
00003  0000  PCBPC,  0       /PC
00004  0000  PCBAC,  0       /AC
00005  0000  PCBMQ,  0       /MQ
00006  0000  PCBX,   0       /X
00007  0000  PCBLXM, 0       /B0=LINK, B1-6=0, B7-9=XMODE, B10-11=0
00010  0000  PCBMF,  0       /B0-5=0, B6-8=IF, B9-11=DF
             PCB,            /LENGTH OF PCB

             /SEMAPHORE
       0000          *0
00000  0000  SEMVAL, 0       /VALUE
00001  0000  SEMQ,   0       /QUEUE

             /WORKING REGISTERS
       0000          *0
00000  0000  WRFP,   0       /FORWARD POINTER
00001  0000  WRALST, 0       /POINTER TO ARGUMENT LIST
00002  0000  WRPC,   0       /SAVED REGISTERS: PC
00003  0000  WRAC,   0       /                 AC
00004  0000  WRMQ,   0       /                 MQ
00005  0000  WRX,    0       /                 X
00006  0000  WRLXM,  0       /                 LINK, XMODE
00007  0000  WRMF,   0       /                 MEMORY FIELDS
00010  0000  WR0,    0       /TEMPORARY REGISTERS
00011  0000  WR1,    0
00012  0000  WR2,    0
00013  0000  WR3,    0
             WR,             /SIZE OF WORKING REG. HEADER
                     ENPUNCH

/PROCESSOR MANAGEMENT AND INPUT/OUTPUT    PAL8-V10D NO DATE   PAGE 4


             /PAGE 0 FIELD 0
       0000          *0
00000  0000  INTRPT, 0
00001  5602          5602    /JMP I .+1, MAKE SURE NO INDEXING OCCURS
00002  0200          INTHDL
00003  0000  PWREGS, 0       /POINTER TO WREG. CHAIN FOR RUNNING PROCESS
00004  0000  CCSW1,  0; 0    /CONTROL CHARACTER SWITCHES FOR TTY1
00005  0000
00006  0000  CCSW2,  0; 0    /CONTROL CHARACTER SWITCHES FOR TTY2
00007  0000

       0020          *20
00020  0000  RUN,    0       /POINTER TO RUNNING PCB
00021  0000  READY,  0       /POINTER TO LIST OF READY PCBS
00022  0000  MCOM,   0       /FOR DECTAPE INTERRUPT HANDLER
00023  0000  IMASK,  0       /SYSTEM INTERRUPT MASK
00024  0000  SVCARG, 0       /ADDRESS FOR SVC ARGUMENT PICKUP

             /VARIABLES FOR BASED STORAGE ROUTINES
00025  0000  AFSC,   0       /POINTER TO A SPECIAL CELL BEING WORKED ON
00026  0000  AFSIZE, 0       /+/- SIZE OF A PARTITION BEING WORKED ON
00027  0000  AFAREA, 0       /ADDRESS OF THE BASED STORAGE AREA BEING WORKED ON
00030  0000  AFCC,   0       /WHEN MOVING DOWN A CHAIN OF PARTITIONS, THIS POINTS
                             /TO THE CURRENT ONE

00031  0000  DTERR,  0       /DECTAPE STATUS B PUT HERE AFTER TAPE OPERATION

             /VARIABLES FOR SCOPE OUTPUT ROUTINE
00032  0000  HPOS,   0       /HORIZONTAL POSITION OF NEXT CHARACTER TO BE WRITTEN
00033  0000  VPOS,   0       /VERTICAL POSITION
00034  5711  SCWAIT, SCWPF   /POINTER TO SCOPE WAIT ROUTINE

             /LF COUNTERS FOR THE TTYS
00035  0000  LFCT1,  0
00036  0000  LFCT2,  0

00037  0000  SCFLG,  0       /=1 => SCOPE IN USE
00040  0000  MQD,    0       /DISPLAY IN MQ WHILE WAITING.

/PROCESSOR MANAGEMENT AND INPUT/OUTPUT    PAL8-V10D NO DATE   PAGE 5


             /ENTRY INTO THE INTERRUPT HANDLER. THIS PAGE CONTAINS THE ENTRY INTO
             /AND EXIT FROM THE DECTAPE HANDLER.

       0200          *200
00200  6771  INTHDL, DTSF    /IS IT DECTAPE
00201  5226          JMP INTL1
00202  3223          DCA TSVAC       /YES, SAVE AC, L, XM
00203  6074          RXM
00204  7010          RAR
00205  3224          DCA TSVLXM
00206  6602          SXM             /SET XMODE TO 0
00207  5422          JMP I MCOM      /ENTER DECTAPE HANDLER

00210  1000  DTRET,  TAD 0           /RETURN FROM DECTAPE HANDLER
00211  3225          DCA TSVPC       /CAN'T JMP I 0 WITHOUT KNOWING XMODE
00212  1224          TAD TSVLXM      /RESTORE L, XM
00213  7104          CLL RAL
00214  1377          TAD (SXM
00215  3216          DCA .+1
00216  7000          NOP
00217  1223          TAD TSVAC       /RESTORE AC
00220  6244          RMF             /RESTORE IF AND DF
00221  6005          PION
00222  5625          JMP I TSVPC
00223  0000  TSVAC,  0
00224  0000  TSVLXM, 0
00225  0000  TSVPC,  0

/PROCESSOR MANAGEMENT AND INPUT/OUTPUT    PAL8-V10D NO DATE   PAGE 6


             /NON - DECTAPE INTERRUPT HANDLER
00226  3776' INTL1,  DCA ISVAC       /SAVE AC, MEMORY FIELDS, PC
00227  6234          RIB
00230  3267          DCA ISVMF
00231  1000          TAD INTRPT
00232  3775'         DCA ISVPC
00233  6074          RXM
00234  7010          RAR
00235  3266          DCA ISVLXM
             /READ INTERRUPT ADDRESS. ADDRESS MUST BE READ
             /UNTIL TWO CONSECUTIVE READINGS MATCH
00236  6564  INTL2,  RDINT
00237  3263          DCA IHADDR
00240  6564          RDINT
00241  7041          CIA
00242  1263          TAD IHADDR
00243  7640          SZA CLA
00244  5236          JMP INTL2
00245  7240          STA             /MASK OFF ALL INTERRUPTS
00246  6561          LDMSK
00247  6005          PION            /TURN THE INTERRUPT SYSTEM BACK ON
00250  6072          RDX
00251  3265          DCA ISVX
00252  7501          MQA
00253  3264          DCA ISVMQ
00254  6602          SXM 0           /SET XMODE TO 0

             /ENTER INTERRUPT HANDLER.
00255  1263          TAD IHADDR      /TWO READINGS MATCH, LOOK UP HANDLER ADDRESS
00256  1374          TAD (IHTAB      /IN TABLE (IHTAB)
00257  3263          DCA IHADDR
00260  1663          TAD I IHADDR
00261  3263          DCA IHADDR
00262  5663          JMP I IHADDR
00263  0000  IHADDR, 0
       0257  ISVPCB=.-PCBMQ
00264  0000  ISVMQ,  0
00265  0000  ISVX,   0
00266  0000  ISVLXM, 0
00267  0000  ISVMF,  0

             /UPDATE PCB. ENTER WITH X->PCB, MODE 6
00270  0000  UPPCB,  0
00271  1775'         TAD ISVPC
00272  3103          DCA X+PCBPC
00273  1776'         TAD ISVAC
00274  3104          DCA X+PCBAC
00275  1264          TAD ISVMQ
00276  3105          DCA X+PCBMQ
00277  1266          TAD ISVLXM
00300  3107          DCA X+PCBLXM
00301  1265          TAD ISVX
00302  3106          DCA X+PCBX

/PROCESSOR MANAGEMENT AND INPUT/OUTPUT    PAL8-V10D NO DATE   PAGE 6-1

00303  1267          TAD ISVMF
00304  3110          DCA X+PCBMF
00305  5670          JMP I UPPCB

/PROCESSOR MANAGEMENT AND INPUT/OUTPUT    PAL8-V10D NO DATE   PAGE 7


             /INTERRUPT HANDLER TABLE
00306  0400  IHTAB,  TC      /0  NI INTERRUPT EXISTS
00307  5700          DTAHDL  /1  DECTAPE  (SOFTWARE)
00310  0755          ITMHDL  /2  INTERVAL TIMER
00311  1000          CLKHDL  /3  CLOCK
00312  0400          TC      /4
00313  0400          TC      /5
00314  0400          TC      /6
00315  0400          TC      /7
00316  0746          ITGHDL  /8  INTEGRATOR
00317  0614          TP2HDL  /9  TTY2 PRINTER
00320  0606          TP1HDL  /10 TTY1 PRINTER
00321  0600          PTPHDL  /11 PUNCH
00322  0637          KB1HDL  /12 TTY1 KEYBOARD
00323  0236          INTL2   /13 READER (NO HANDLER SUPPLIED FOR NOW)
00324  0660          KB2HDL  /14 TTY2 KEYBOARD
00325  0326          SVCHDL  /15 SUPERVISOR CALL

/PROCESSOR MANAGEMENT AND INPUT/OUTPUT    PAL8-V10D NO DATE   PAGE 8


             /SUPERVISOR CALL HANDLER. SET UP SVCARG, SVCDF, ENTER APPROPRIATE
             /ROUTINE. HANDLE SKIP/NON-SKIP RETURNS FROM SVC ROUTINES.
00326  1775' SVCHDL, TAD ISVPC       /UPDATE ISVPC, GET ADDRESS OF ARGUMENTS
00327  6673          LDX SXM 70
00330  1373          TAD (2
00331  3775'         DCA ISVPC
00332  1267          TAD ISVMF       /CREATE A CDF TO THE IF OF THE SVC CALL, PUT
00333  0372          AND (70         /IT IN THE SVCDF ROUTINE
00334  1371          TAD (CDF
00335  3355          DCA SVCDF+1
00336  4354          JMS SVCDF
00337  1100          TAD X           /PICK UP SVC ARGS
00340  3353          DCA SVCAD
00341  1101          TAD X+1
00342  3024          DCA SVCARG
00343  6201          CDF             /EXECUTE SVC ROUTINE
00344  6602          SXM
00345  4753          JMS I SVCAD
00346  5351          JMP .+3         /HANDLE SKIP RETURN
00347  6201          CDF
00350  2775'         ISZ ISVPC
00351  6573          CLSVC           /CLEAR SVC FLAG
00352  5770'         JMP TC          /ENTER TRAFFIC CONTROLLER
00353  0000  SVCAD,  0

00354  0000  SVCDF,  0
00355  7000          NOP             /CDF PUT HERE
00356  5754          JMP I SVCDF

/PROCESSOR MANAGEMENT AND INPUT/OUTPUT    PAL8-V10D NO DATE   PAGE 9


00370  0400
00371  6201
00372  0070
00373  0002
00374  0306
00375  0461
00376  0462
00377  6602
       0400          *400
             /TRAFFIC CONTROLLER. ON ENTRY, AC=0, XM=0,4,5,6,OR 7. IF RUNNING
             /PROCESS (IF ANY) HAS GREATER OR EQUAL PRIORITY THAN FIRST READY
             /PROCESS, CONTINUE IT. IF NOT, UPDATE RUNNING PCB AND SWITCH
             /PROCESSES, RESETTING THE INTERVAL TIMER.
00400  1021  TC,     TAD READY       /GET PRIOTITY OF FIRST READY PROCESS
00401  7450          SNA             /IN CASE NONE READY
00402  5210          JMP .+6
00403  6667          LDXC SXM 60
00404  1101          TAD X+PCBPR
00405  7415          ASR; 2          /MASK OFF NTQ BITS
00406  0002
00407  7041          CIA
00410  3260          DCA RDYPR
00411  1020          TAD RUN         /NOW GET RUNNING PROCESS PRIORITY
00412  7450          SNA             /IF NO RUNNING PCB, ENTER TCSW2
00413  5266          JMP TCSW2
00414  6605          LDXC
00415  1101          TAD X+PCBPR
00416  7415          ASR; 2
00417  0002
00420  1260          TAD RDYPR       /COMPARE PRIORITIES
00421  7710          SPA CLA
00422  5263          JMP TCSW

             /CONTINUE RUNNING PROCESS
00423  1377          TAD (ISVPCB
00424  6667          LDXC SXM 60
00425  1105  TCSTRT, TAD X+PCBMQ     /RESTORE MQ
00426  7421          MQL
00427  1110          TAD X+PCBMF     /RESTORE DF
00430  7006          RTL; RAL
00431  7004
00432  0376          AND (70
00433  1375          TAD (CDF
00434  3235          DCA .+1
00435  7000          NOP
00436  1110          TAD X+PCBMF     /RESTORE IF
00437  0376          AND (70
00440  1374          TAD (CIF
00441  3242          DCA .+1
00442  7000          NOP
00443  1107          TAD X+PCBLXM    /RESTORE LINK, SET UP LDXC SXM INSTRUCTION
00444  7104          CLL RAL
00445  1373          TAD (LDXC SXM

/PROCESSOR MANAGEMENT AND INPUT/OUTPUT    PAL8-V10D NO DATE   PAGE 9-1

00446  3254          DCA .+6
00447  1023          TAD IMASK       /RESTORE INTERRUPT MASK
00450  6002          IOF
00451  6561          LDMSK
00452  7200          CLA
00453  1106          TAD X+PCBX      /RESTORE X, XMODE
00454  7000          NOP
00455  1262          TAD ISVAC       /RESTORE AC
00456  6005          PION
00457  5661          JMP I ISVPC
00460  0000  RDYPR,  0
00461  0000  ISVPC,  0               /THESE MUST BE ON THIS PAGE BECAUSE WE DON'T
00462  0000  ISVAC,  0               /KNOW THE XMODE WHEN THEY ARE REFERENCED ABOVE.

             /SWITCH PROCESSES
00463  4772' TCSW,   JMS UPPCB       /FIRST, UPDATE RUNNING PCB.
00464  4771'         JMS CHPCB       /PUT PCB ON READY LIST
00465  0021          READY
00466  1021  TCSW2,  TAD READY       /RUN FIRST PROCESS ON READY LIST
00467  7450          SNA
00470  5314          JMP NOWORK      /NOTHING TO BE DONE, WAIT
00471  6601          LDX             /PUT POINTER TO PCB TO BE RUN IN X AND IN RUN
00472  3020          DCA RUN
00473  1100          TAD X+PCBP1     /UPDATE READY
00474  3021          DCA READY
00475  1103          TAD X+PCBPC     /SET UP FOR ENTERING TCSTRT
00476  3261          DCA ISVPC
00477  1104          TAD X+PCBAC
00500  3262          DCA ISVAC
00501  1102          TAD X+PCBWR     /SET PWREGS
00502  3003          DCA PWREGS
00503  1101          TAD X+PCBPR
00504  0370          AND (7          /RESET INTERVAL TIMER. GET NUMBER OF TIME QUANTUMS
00505  7001          IAC
00506  7425          MQL MUY
00507  0063  TQ,     63              /SYSTEM TIME QUANTUM, APPROX. 50MS.
00510  7330          STL CLA RAR     /ENABLE TIMER INTERRUPT
00511  7501          MQA
00512  6173          LITC
00513  5225          JMP TCSTRT

             /NOTHING TO DO, WAIT WITH INTERRUPTS ON (EXCEPT INTERVAL TIMER)
00514  6173  NOWORK, LITC
00515  1023          TAD IMASK
00516  6561          LDMSK
00517  7200          CLA
00520  1040          TAD MQD
00521  7421          MQL
             /COMPUTE WAIT PERCENTAGE
00522  6002  WAITL,  IOF             /INCREMENT WTPCT EVERY 10 MS.
00523  2333          ISZ WTPCTL
00524  5330          JMP .+4
00525  2332          ISZ WTPCT
00526  1367          TAD (-2127
00527  3333          DCA WTPCTL

/PROCESSOR MANAGEMENT AND INPUT/OUTPUT    PAL8-V10D NO DATE   PAGE 9-2

00530  6005          PION
00531  5322          JMP WAITL
00532  0000  WTPCT,  0
00533  0000  WTPCTL, 0

/PROCESSOR MANAGEMENT AND INPUT/OUTPUT    PAL8-V10D NO DATE   PAGE 10


00567  5651
00570  0007
00571  1100
00572  0270
00573  6607
00574  6202
00575  6201
00576  0070
00577  0257
       0600          *600
             /HANDLERS FOR CHARACTER OUTPUT DEVICES

             /PUNCH
00600  6022  PTPHDL, PCF             /CLEAR FLAG
00601  4222          JMS CHOINT
00602  2327          PTPSEM
00603  6026          PLS             /PUNCH NEXT CHAR IF NECESSARY
00604  7200          CLA
00605  5777'         JMP TC

             /TTY1 PRINTER
00606  6042  TP1HDL, TCF             /CLEAR FLAG
00607  4222          JMS CHOINT
00610  2336          TP1SEM
00611  6046          TLS
00612  7200          CLA
00613  5777'         JMP TC

             /TTY2 PRINTER
00614  6142  TP2HDL, T2CF
00615  4222          JMS CHOINT
00616  2345          TP2SEM
00617  6146          T2LS
00620  7200          CLA
00621  5777'         JMP TC

             /INTERRUPT HANDLER FOR CHARACTER OUTPUT.
00622  0000  CHOINT, 0
00623  1622          TAD I CHOINT    /GET POINTER TO SEMAPHORE
00624  2222          ISZ CHOINT
00625  3024          DCA SVCARG      /SET UP SVCARG FOR CALL TO V
00626  4776'         JMS V           / V ON SEMAPHORE
00627  7105          CLL IAC RAL     /BSC FOLLOWS SEMAPHORE, GET BSC ADDRESS AND
00630  1024          TAD SVCARG      /PUT IN X
00631  6667          LDXC SXM 60
00632  2104          ISZ X+4         /INCREMENT INTEGER
00633  7410          SKP
00634  5777'         JMP TC          /=0 => DONE, ENTER TC
00635  4334          JMS SRRING      /<>0, READ NEXT CHAR FROM BUFFER, RETURN TO
00636  5622          JMP I CHOINT    /OUTPUT IT

/PROCESSOR MANAGEMENT AND INPUT/OUTPUT    PAL8-V10D NO DATE   PAGE 11


             /HANDLERS FOR CHARACTER INPUT DEVICES

             /TTY1 KEYBOARD
00637  1375  KB1HDL, TAD (KB1BSC     /SET UP FOR TTY1
00640  6663          LDX SXM 60
00641  1374          TAD (5          /SEMAPHORE FOLLOWS BSC
00642  3024          DCA SVCARG
00643  6032          KCC
00644  1373          TAD (200
00645  6034          KRS
00646  4271          JMS CCHDL       /HANDLE CCSW
00647  0004          CCSW1
00650  2104  CHIINT, ISZ X+4         /INCREMENT INTEGER
00651  5255          JMP .+4
00652  7240          STA             /=0, SET TO -1 AND IGNORE CHARACTER
00653  3104          DCA X+4
00654  5777'         JMP TC
00655  4322          JMS SWRING      /<>0, WRITE CHARACTER INTO BUFFER, V ON
00656  4776'         JMS V           /SEMAPHORE
00657  5777'         JMP TC

             /TTY2 KEYBOARD
00660  1372  KB2HDL, TAD (KB2BSC     /SET UP FOR TTY2
00661  6663          LDX SXM 60
00662  1374          TAD (5
00663  3024          DCA SVCARG
00664  6132          K2CC
00665  1373          TAD (200
00666  6134          K2RS
00667  4271          JMS CCHDL       /HANDLE CCSW
00670  0006          CCSW2

             /HANDLE CONTROL CHARACTER SWITCHES
00671  0000  CCHDL,  0
00672  3321          DCA CCHSV       /SAVE CHARACTER
00673  1321          TAD CCHSV       /IS IT BETWEEN ^C AND ^Z?
00674  1371          TAD (-232
00675  7540          SMA SZA         /<=232?
00676  5316          JMP CCHEX
00677  1370          TAD (232-203
00700  7510          SPA             />=203?
00701  5316          JMP CCHEX
00702  7427          MQL DVI; 14     /YES, DECIDE WHICH BIT TO SET
00703  0014
00704  3312          DCA .+6         /NUMBER OF PLACES TO SHIFT
00705  7521          MQL MQA         /GET ADDRESS OF SWITCH WORD AND ZERO MQ
00706  1671          TAD I CCHDL
00707  3271          DCA CCHDL       /SAVE ADDRESS IN CCHDL
00710  7001          IAC
00711  7417          LSR; 0
00712  0000
00713  1671          TAD I CCHDL     /SET APPROPRIATE BIT
00714  7501          MQA

/PROCESSOR MANAGEMENT AND INPUT/OUTPUT    PAL8-V10D NO DATE   PAGE 11-1

00715  3671          DCA I CCHDL
00716  7200  CCHEX,  CLA             /EXIT
00717  1321          TAD CCHSV
00720  5250          JMP CHIINT
00721  0000  CCHSV,  0

/PROCESSOR MANAGEMENT AND INPUT/OUTPUT    PAL8-V10D NO DATE   PAGE 12


             /WRITE CHAR IN AC INTO RING BUFFER. ON ENTRY, XM=6, X->BSC
             /WRITE, THEN UPDATE BSC.
00722  0000  SWRING, 0
00723  3503          DCA I X+3       /PUT CHARACTER IN THE BUFFER
00724  2103          ISZ X+3         /UPDATE WRITE ADDRESS
00725  1103          TAD X+3         /IF END OF BUFFER, RESET WRITE ADDRESS
00726  1101          TAD X+1
00727  7640          SZA CLA
00730  5722          JMP I SWRING
00731  1100          TAD X
00732  3103          DCA X+3
00733  5722          JMP I SWRING

             /READ CHARACTER INTO AC FROM RING BUFFER. ON ENTRY, XM=6, X->BSC.
             /UPDATE, THEN READ
00734  0000  SRRING, 0
00735  2102          ISZ X+2 /UPDATE READ ADDRESS
00736  1102          TAD X+2         /IF END OF THE BUFFER, RESET READ ADDRESS
00737  1101          TAD X+1
00740  7640          SZA CLA
00741  5344          JMP .+3
00742  1100          TAD X
00743  3102          DCA X+2
00744  1502          TAD I X+2       /FETCH CHARACTER
00745  5734          JMP I SRRING

/PROCESSOR MANAGEMENT AND INPUT/OUTPUT    PAL8-V10D NO DATE   PAGE 13


             /INTEGRATOR SERVICE ROUTINE. V ON ITGSEM
00746  6332  ITGHDL, RVI 2   /CLEAR FLAG
00747  1367          TAD (ITGSEM     /V ON SEMAPHORE
00750  3024          DCA SVCARG
00751  4776'         JMS V
00752  5777'         JMP TC
00753  0000  ITGSEM, 0; 0
00754  0000

             /TIMER SERVICE ROUTINE
00755  1020  ITMHDL, TAD RUN         /CLEAR I/0 BIT IN RUNNING PCB PRIORITY AND
00756  6667          LDXC SXM 60     /SWITCH PROCESSES
00757  1101          TAD X+PCBPR
00760  0366          AND (6777
00761  3101          DCA X+PCBPR
00762  5765'         JMP TCSW

/PROCESSOR MANAGEMENT AND INPUT/OUTPUT    PAL8-V10D NO DATE   PAGE 14


00765  0463
00766  6777
00767  0753
00770  0027
00771  7546
00772  2363
00773  0200
00774  0005
00775  2354
00776  1226
00777  0400
       1000          *1000
             /CLOCK SERVICE ROUTINE. UPDATE REAL TIME CLOCK AND HANDLE THE FOUR
             /TIMERS.
01000  6372  CLKHDL, CLK 2           /CLEAR FLAG
01001  4777'         JMS DEBUG
01002  2254          ISZ CLK8        /UPDATE CLOCK
01003  5226          JMP CLKL1
01004  1776'         TAD WTPCT       /DISPLAY AND RESET WAIT PERCENTAGE.
01005  7427          MQL DVI; 12
01006  0012
01007  7521          MQL MQA
01010  7106          CLL RTL; RTL
01011  7006
01012  7501          MQA
01013  6452          OSW 2
01014  7200          CLA
01015  3776'         DCA WTPCT
01016  1375          TAD (-2127
01017  3774'         DCA WTPCTL
01020  1373          TAD (-10
01021  3254          DCA CLK8
01022  2255          ISZ CLKL
01023  5226          JMP CLKL1
01024  2256          ISZ CLKH
01025  7000          NOP
01026  1372  CLKL1,  TAD (-4         /LOOP 4 TIMES TO DO EACH TIMER
01027  3257          DCA CLKCNT      /INITIALIZE COUNT
01030  1371          TAD (ITM1       /POINTER TO FIRST TIMER
01031  6663  CLKL2,  LDX SXM 60
01032  3024          DCA SVCARG
01033  1102          TAD X+2         /IF MOD 8 COUNTER OF TIMER IS ZERO, TIMER
01034  7650          SNA CLA         /IS NOT IN USE, IGNORE IT
01035  5246          JMP CLKL3
01036  2102          ISZ X+2         /TIMER IN USE, UPDATE COUNT
01037  5246          JMP CLKL3
01040  1373          TAD (-10        /RESET MOD 8 COUNTER
01041  3102          DCA X+2
01042  2103          ISZ X+3
01043  5246          JMP CLKL3
01044  3102          DCA X+2         /TIME UP, CLEAR MOD 8 COUNTER, V ON SEMAPHORE
01045  4770'         JMS V
01046  7107  CLKL3,  CLL IAC RTL     /DO NEXT TIMER

/PROCESSOR MANAGEMENT AND INPUT/OUTPUT    PAL8-V10D NO DATE   PAGE 14-1

01047  1024          TAD SVCARG
01050  2257          ISZ CLKCNT
01051  5231          JMP CLKL2
01052  7200          CLA
01053  5767'         JMP TC
01054  7770  CLK8,   -10
01055  0000  CLKL,   0
01056  0000  CLKH,   0
01057  0000  CLKCNT, 0
01060  0000  ITM1,   ZBLOCK 4
01064  0000  ITM2,   ZBLOCK 4
01070  0000  ITM3,   ZBLOCK 4
01074  0000  ITM4,   ZBLOCK 4

/PROCESSOR MANAGEMENT AND INPUT/OUTPUT    PAL8-V10D NO DATE   PAGE 15


             /CHAIN PCB POINTED TO BY X ON TO LIST. ADDRESS OF POINTER TO LIST
             /FOLLOWS JMS CHPCB. ON ENTRY, AC=HQ(I.E. 0 OR 10)
01100  0000  CHPCB,  0
01101  1101          TAD X+PCBPR     /GET PRIORITY
01102  0373          AND (7770       /MASK NTQ BITS
01103  7041          CIA
01104  3342          DCA CHPR        /SAVE IT
01105  6072          RDX             /SAVE POINTER TO PCB TO BE CHAINED
01106  3343          DCA CHPTR
01107  1700          TAD I CHPCB     /GET ADDRESS OF LIST POINTER
01110  2300          ISZ CHPCB
01111  3344          DCA CHPL1       /SET UP FOR CHAIN OPERATIONS
01112  1744          TAD I CHPL1     /GET POINTER TO FIRST PCB ON CHAIN
01113  6601  CHPL2,  LDX
01114  7650          SNA CLA         /IS IT NULL?
01115  5327          JMP CHPL3
01116  1101          TAD X+PCBPR     /NO, TEST PRIORITY , CONTINUE DOWN CHAIN
01117  0373          AND (7770       /UNTIL A PCB IS FOUND WHOSE PRIORITY IS
01120  1342          TAD CHPR        /LESS THAN THE PRIORITY OF THE PCB BEING CHAINED
01121  7710          SPA CLA
01122  5327          JMP CHPL3
01123  6072          RDX             /NOT FOUND YET, ADVANCE
01124  3344          DCA CHPL1       /SAVE OLDX
01125  1100          TAD X+PCBP1     /GET NEW X
01126  5313          JMP CHPL2
01127  6072  CHPL3,  RDX             /INSERT PCB
01130  3345          DCA CHPL4
01131  1344          TAD CHPL1       /GET OLDX
01132  6605          LDXC
01133  1343          TAD CHPTR
01134  3100          DCA X+PCBP1
01135  1343          TAD CHPTR
01136  6605          LDXC
01137  1345          TAD CHPL4
01140  3100          DCA X+PCBP1
01141  5700          JMP I CHPCB
01142  0000  CHPR,   0
01143  0000  CHPTR,  0
01144  0000  CHPL1,  0
01145  0000  CHPL4,  0

/PROCESSOR MANAGEMENT AND INPUT/OUTPUT    PAL8-V10D NO DATE   PAGE 16


01167  0400
01170  1226
01171  1060
01172  7774
01173  7770
01174  0533
01175  5651
01176  0532
01177  6200
       1200          *1200
             /P PRIMITIVE.
             /SVCARG -> SEMAPHORE. ALL SEMAPHORES ARE IN FIELD 0.
01200  0000  P,      0
01201  1024          TAD SVCARG      /ADDRESS OF SEMAPHORE -> X.
01202  6667          LDXC SXM 60
01203  7240          STA             /DECREMENT VALUE
01204  1100          TAD X+SEMVAL
01205  3100          DCA X+SEMVAL
01206  1100          TAD X+SEMVAL    /IS VALUE <0?
01207  7700          SMA CLA
01210  5600          JMP I P         /NO, RETURN
01211  6073          ISX RDX         /YES, PUT PCB ON QUEUE
01212  3223          DCA PSEMQ
01213  1020          TAD RUN
01214  6667          LDXC SXM 60
01215  1101          TAD X+PCBPR     /SET I/O BIT, IN PRIORITY
01216  0377          AND (6777
01217  1376          TAD (1000
01220  3101          DCA X+PCBPR
01221  4775'         JMS UPPCB       /UPDATE RUNNING PCB
01222  4774'         JMS CHPCB       /PUT PCB ON SEMAPHORE QUEUE
01223  0000  PSEMQ,  0
01224  3020          DCA RUN         /SET RUN TO NULL
01225  5600          JMP I P

/PROCESSOR MANAGEMENT AND INPUT/OUTPUT    PAL8-V10D NO DATE   PAGE 17


             /V PRIMITIVE
             /SCVARG -> SEMAPHORE
01226  0000  V,      0
01227  1024          TAD SVCARG      /POINTER TO SEMAPHORE -> X
01230  6667          LDXC SXM 60
01231  2100          ISZ X+SEMVAL    /INCREMENT VALUE
01232  7410          SKP
01233  5237          JMP VL1         /VALUE  IS ZERO, WAKE UP
01234  1100          TAD X+SEMVAL
01235  7740          SMA SZA CLA     /TEST SEMVAL
01236  5626          JMP I V
01237  6073  VL1,    ISX RDX         /WAKE UP PROCESS
01240  3251          DCA VL2         /SAVE POINTER TO SEMQ
01241  1100          TAD X           /PUT POINTER TO FIRST PCB ON QUEUE IN X
01242  6605          LDXC
01243  1100          TAD X+PCBP1
01244  3651          DCA I VL2
01245  1373          TAD (10         /HQ=1
01246  4774'         JMS CHPCB       /PUT PCB ON READY LIST
01247  0021          READY
01250  5626          JMP I V
01251  0000  VL2,    0

/PROCESSOR MANAGEMENT AND INPUT/OUTPUT    PAL8-V10D NO DATE   PAGE 18


             /CREATE PROCESS. SKIP IF OK.
             /SVCARG -> STARTING ADDRESS
             /          STARTINE MEMORY FIELDS
             /          PRIORITY
01252  0000  FORK,   0
01253  1024          TAD SVCARG      /GET ARGUMENTS:
01254  6677          LDXC SXM 70
01255  4772'         JMS SVCDF
01256  1100          TAD X           /GET STARTING ADDRESS
01257  3320          DCA FRKPC
01260  1101          TAD X+1         /MEMORY FIELDS
01261  3321          DCA FRKMF
01262  1102          TAD X+2         /PRIORITY
01263  3322          DCA FRKPR
01264  6201          CDF
01265  1264          TAD .-1         /ALLOCATE NEW PSC
01266  3771'         DCA SVCDF+1
01267  1370          TAD (FRKAL
01270  3024          DCA SVCARG
01271  4767'         JMS ALOC
01272  5652          JMP I FORK      /NON-SKIP RETURN
01273  1325          TAD FRKAL+2     /PUT POINTER TO NEW PSC IN X AND IN FRKSEM
01274  6663          LDX SXM 60
01275  3330          DCA FRKSEM+SEMQ
01276  3100          DCA X+PCBP1     /LOAD UP NEW PCB
01277  1322          TAD FRKPR       /PRIORITY
01300  3101          DCA X+PCBPR
01301  1320          TAD FRKPC       /PC
01302  3103          DCA X+PCBPC
01303  1766'         TAD ISVAC       /SAME AC
01304  3104          DCA X+PCBAC
01305  3107          DCA X+PCBLXM    /ZERO LINK, XM
01306  1321          TAD FRKMF
01307  3110          DCA X+PCBMF
01310  3102          DCA X+PCBWR     /ZERO WREG. CHAIN
01311  7240          STA             /SET UP VALUE OF FRKSEM
01312  3327          DCA FRKSEM+SEMVAL
01313  1365          TAD (FRKSEM     /V ON SEMAPHORE TO START PROCESS
01314  3024          DCA SVCARG
01315  4226          JMS V
01316  2252          ISZ FORK
01317  5652          JMP I FORK
01320  0000  FRKPC,  0
01321  0000  FRKMF,  0
01322  0000  FRKPR,  0
01323  6201  FRKAL,  CDF             /ARGUMENT LIST FOR CALL TO ALOC
01324  7000          SYSBS
01325  0000          0
01326  0011          PCB
01327  0000  FRKSEM, 0; 0
01330  0000

/PROCESSOR MANAGEMENT AND INPUT/OUTPUT    PAL8-V10D NO DATE   PAGE 19


             /TERMINATE PROCESS
01331  0000  QUIT,   0
01332  1020          TAD RUN         /FREE CURRENT PCB
01333  3345          DCA QUFR+2
01334  1364          TAD (QUFR
01335  3024          DCA SVCARG
01336  1343          TAD QUFR
01337  3771'         DCA SVCDF+1
01340  4763'         JMS FREE
01341  3020          DCA RUN         /CLEAR RUN
01342  5731          JMP I QUIT
01343  6201  QUFR,   CDF             /ARGUMENT LIST FOR CALL TO FREE
01344  7000          SYSBS
01345  0000          0

/PROCESSOR MANAGEMENT AND INPUT/OUTPUT    PAL8-V10D NO DATE   PAGE 20


01363  1641
01364  1343
01365  1327
01366  0462
01367  1600
01370  1323
01371  0355
01372  0354
01373  0010
01374  1100
01375  0270
01376  1000
01377  6777
       1400          *1400
01400  0000  AFOC,   0       /POINTER TO PREVIOUS CELL WHEN DOING CHAIN OPERATIONS.

             /SERVICE ROUTINES FOR ALOC AND FREE

             /ADVANCE DOWN CHAIN, SKIP IF NO END
             /ENTER: AC=0,DF=AREA DF, EXIT: AC=0,X->CURRENT CELL,XM=7
01401  0000  AFADV,  0
01402  1030          TAD AFCC
01403  3200          DCA AFOC
01404  1430          TAD I AFCC
01405  6673          LDX SXM 70
01406  7440          SZA
01407  2201          ISZ AFADV
01410  3030          DCA AFCC
01411  5601          JMP I AFADV

             /DELETE CURRENT CELL FROM CHAIN, SAVE POINTER TO THAT CELL IN X
             /ENTER: AC=0,DF=AREA DF, EXIT: AC=0,X->DELETED CELL,XM=7
01412  0000  AFDLT,  0
01413  1030          TAD AFCC
01414  6677          LDXC SXM 70
01415  1200          TAD AFOC
01416  3030          DCA AFCC
01417  1100          TAD X
01420  3600          DCA I AFOC
01421  5612          JMP I AFDLT

             /INSERT CELL POINTED TO BY AFSC BEFORE THE CURRENT CELL
             /ENTER: AC=0,DF=AREA DF; EXIT: AC=0, AFCC INVALID
01422  0000  AFINS,  0
01423  1025          TAD AFSC
01424  3600          DCA I AFOC
01425  1030          TAD AFCC
01426  3425          DCA I AFSC
01427  5622          JMP I AFINS

             /MOVE DOWN CHAIN UNTIL SIZE OF CURRENT CELL >= -AFSIZE(SKIP), OF
             /END OF CHAIN (NO SKIP)
             /ENTER: AC=0, DF=AREA DF; EXIT: AC=0

/PROCESSOR MANAGEMENT AND INPUT/OUTPUT    PAL8-V10D NO DATE   PAGE 20-1

01430  0000  AFSCH,  0
01431  1027          TAD AFAREA
01432  3030          DCA AFCC
01433  4201  AFSL1,  JMS AFADV
01434  5630          JMP I AFSCH
01435  1101          TAD X+1
01436  1026          TAD AFSIZE
01437  7710          SPA CLA
01440  5233          JMP AFSL1
01441  2230          ISZ AFSCH
01442  5630          JMP I AFSCH

             /PUT CELL POINTED TO BY AFSC ON CHAIN IN PROPER PLACE
             /ENTER AC=0,DF=AREA DF; EXIT AC=0, AFCC INVALID
01443  0000  AFPUT,  0
01444  4230          JMS AFSCH
01445  7000          NOP
01446  4222          JMS AFINS
01447  5643          JMP I AFPUT

             /CHANGE TO DATA FIELD OF BASED AREA
01450  0000  AFCDF,  0
01451  7000          NOP             /CDF PUT HERE
01452  5650          JMP I AFCDF

/PROCESSOR MANAGEMENT AND INPUT/OUTPUT    PAL8-V10D NO DATE   PAGE 21


             /PICK UP ARGUMENTS FOR ALOC,FREE,BSINIT
             /SVCARG -> 62N1  DATA FIELD OF BASED AREA
             /          ADDRESS OF BASED AREA
             /          POINTER (ALOC/FREE) OR SIZE (BSINIT)
             /          LENGTH (FOR ALOC)
             /EXIT WITH XM=7, DF=AREA DF
             /
01453  0000  AFARG,  0
01454  1024          TAD SVCARG      /PUT POINTER TO ARG LIST IN X
01455  6677          LDXC SXM 70
01456  4777'         JMS SVCDF
01457  1100          TAD X
01460  3251          DCA AFCDF+1
01461  1101          TAD X+1
01462  3027          DCA AFAREA
01463  1102          TAD X+2
01464  3025          DCA AFSC
01465  1103          TAD X+3         /HACK LENGTH FOR ALOC
01466  7050          CMA RAR
01467  7104          CLL RAL
01470  3026          DCA AFSIZE
01471  4250          JMS AFCDF
01472  5653          JMP I AFARG

             /INITIALIZE A BASED STORAGE AREA.
01473  0000  BSINIT, 0
01474  4253          JMS AFARG       /PICK UP ARGUMENTS
01475  1027          TAD AFAREA      /GET POINTER TO AREA
01476  6673          LDX SXM 70
01477  7001          IAC             /MAKE ONE BIG FREE PARTITION
01500  3100          DCA X           /SET FREE POINTER
01501  3101          DCA X+1
01502  7240          STA             /SET LENGTH OF FREE PARTITION
01503  1025          TAD AFSC
01504  7010          RAR
01505  7104          CLL RAL
01506  3102          DCA X+2
01507  5673          JMP I BSINIT

/PROCESSOR MANAGEMENT AND INPUT/OUTPUT    PAL8-V10D NO DATE   PAGE 22


01577  0354
       1600          *1600
             /ALLOCATE PARTITION. SKIP IF OK.
01600  0000  ALOC,   0
01601  4777'         JMS AFARG       /PICK UP ARGUMENTS
01602  4776'         JMS AFSCH       /SEARCH FOR BEST FIT PARTITION
01603  5600          JMP I ALOC      /NONE, NON-SKIP RETURN
01604  4775'         JMS AFDLT       /DELETE PARTITION
01605  1026          TAD AFSIZE      /INSERT SIZE OF NEW PARTITION
01606  7041          CIA
01607  3100          DCA X
01610  1026          TAD AFSIZE      /EXACT FIT?
01611  1101          TAD X+1
01612  7450          SNA
01613  5236          JMP ALSKP       /YES, GO TO SKIP RETURN
01614  3026          DCA AFSIZE      /NO, BREAK UP PARTITION. AFSIZE IS LENGTH
01615  6072          RDX             /OF NEW FREE PARTITION
01616  7421          MQL             /SAVE POINTER TO PARTITION IN THE MQ
01617  7501          MQA
01620  1100          TAD X
01621  6601          LDX
01622  3025          DCA AFSC
01623  1026          TAD AFSIZE
01624  3101          DCA X+1
01625  4774'         JMS AFPUT       /RETURN PARTITION TO FREE LIST
01626  1024  ALRET,  TAD SVCARG      /RETURN POINTER
01627  6605          LDXC
01630  4773'         JMS SVCDF
01631  7501          MQA
01632  7001          IAC
01633  3102          DCA X+2
01634  2200          ISZ ALOC
01635  5600          JMP I ALOC
01636  6072  ALSKP,  RDX
01637  7421          MQL
01640  5226          JMP ALRET

/PROCESSOR MANAGEMENT AND INPUT/OUTPUT    PAL8-V10D NO DATE   PAGE 23


             /FREE PARTITION
01641  0000  FREE,   0
01642  4777'         JMS AFARG       /PICK UP ARGUMENTS
01643  7240          STA             /FIRST GET THE REAL POINTER TO THE PARTITION
01644  1025          TAD AFSC
01645  6673          LDX SXM 70
01646  3025          DCA AFSC
01647  1100          TAD X           /GET THE LENGTH OF THE PARTITION
01650  3026          DCA AFSIZE
01651  1025          TAD AFSC        /SET UP LOWER VALUE
01652  7041          CIA
01653  3317          DCA FRLOW
01654  1025          TAD AFSC        /SET UP UPPER VALUE
01655  1026          TAD AFSIZE
01656  7041          CIA
01657  3320          DCA FRHIGH

             /SCAN FREE LIST AND COMBINE ADJACENT PARTITIONS
01660  1027          TAD AFAREA
01661  3030          DCA AFCC
01662  4772' FRL1,   JMS AFADV       /ADVANCE
01663  5306          JMP FRL2        /END OF LIST
01664  6072          RDX             /IS IT BELOW?
01665  1101          TAD X+1
01666  1317          TAD FRLOW
01667  7640          SZA CLA
01670  5300          JMP FRL3
01671  4775'         JMS AFDLT       /YES, COMBINE
01672  6072          RDX
01673  3025          DCA AFSC
01674  1101  FRL4,   TAD X+1         /UPDATE THE SIZE OF THE PARTITION BEING FREED
01675  1026          TAD AFSIZE
01676  3026          DCA AFSIZE
01677  5262          JMP FRL1
01700  6072  FRL3,   RDX             /IS IT ABOVE?
01701  1320          TAD FRHIGH
01702  7640          SZA CLA
01703  5262          JMP FRL1
01704  4775'         JMS AFDLT
01705  5274          JMP FRL4

             / DONE COMBINING, PUT PARTITION ON FREE LIST
01706  1025  FRL2,   TAD AFSC
01707  6605          LDXC
01710  1026          TAD AFSIZE
01711  3101          DCA X+1
01712  1026          TAD AFSIZE
01713  7041          CIA
01714  3026          DCA AFSIZE
01715  4774'         JMS AFPUT
01716  5641          JMP I FREE
01717  0000  FRLOW,  0
01720  0000  FRHIGH, 0

/PROCESSOR MANAGEMENT AND INPUT/OUTPUT    PAL8-V10D NO DATE   PAGE 24


01772  1401
01773  0354
01774  1443
01775  1412
01776  1430
01777  1453
       2000          *2000
             /THIS ROUTINE IS THE INITIAL ENTRY POINT FOR THE ENTIRE SYSTEM.
             /IT INITIALIZES ALL OF THE I/O BUFFERS AND OTHER APPROPRIATE
             /VARIABLES, AND THEN CREATES THE FIRST PROCESS AND ENTERS THE
             /TRAFFIC CONTROLLER.
02000  1377  STRTUP, TAD (STTAB-1    /READ FROM STTAB TO INITIALIZE EVERYTHING
02001  3017          DCA 17
02002  1417  STL1,   TAD I 17        /GET ADDRESS
02003  7450          SNA
02004  5212          JMP STL2        /END OF TABLE
02005  3211          DCA STADDR
02006  1417          TAD I 17        /GET DATA
02007  3611          DCA I STADDR
02010  5202          JMP STL1
02011  0000  STADDR, 0
02012  7000  STL2,   NOP             /OR HALT FOR TESTING
02013  4776'         JMS BSINIT      /INITIALIZE SYSTEM BASED STORAGE. SVCARG,
                                     /SVCDF SUPPLIED BY ABOVE LOOP.
02014  1375          TAD (STFRK      /CALL FORK TO CREATE FIRST PROCESS
02015  3024          DCA SVCARG
02016  4774'         JMS FORK
02017  7402          HLT             /HALT IF NOT OK.
02020  5773'         JMP TC
02021  6201  STBSIN, CDF             /ARG LIST FOR CALL TO BSINIT
02022  7000          SYSBS
02023  0600          SBSSIZ
02024  0200  STFRK,  0200            /ARG LIST FOR CALL TO FORK
02025  0011          0011
02026  0400          400

/PROCESSOR MANAGEMENT AND INPUT/OUTPUT    PAL8-V10D NO DATE   PAGE 25


             /SVC ROUTINE FOR CHARACTER OUTPUT
             /SVCARG -> BSC, CHAR IN ISVAC. SKIP IF CHARACTER SHOULD NOT
             /BE TYPED (PUNCHED).
02027  0000  CHOUT,  0
02030  1024          TAD SVCARG      /PUT POINTER TO BSC IN X
02031  6667          LDXC SXM 60
02032  7340          STA CLL         /DECREMENT INTEGER
02033  1104          TAD X+4
02034  3104          DCA X+4
02035  7420          SNL             /IF LINK = 0, RESULT WAS -1 AND CHARACTER
02036  5627          JMP I CHOUT     /SHOULD BE TYPED INSTED OF PUT IN THE BUFFER
02037  1772'         TAD ISVAC
02040  4771'         JMS SWRING
02041  2227          ISZ CHOUT
02042  5627          JMP I CHOUT

             /SVC ROUTINE FOR CHARACTER INPUT
             /SVCARG -> BSC, RETURN CHARACTER TO ISVAC
02043  0000  CHIN,   0
02044  1024          TAD SVCARG
02045  6667          LDXC SXM 60
02046  4770'         JMS SRRING      /READNEXT CHAR
02047  3772'         DCA ISVAC
02050  7240          STA             /DECREMENT INTEGER
02051  1104          TAD X+4
02052  3104          DCA X+4
02053  5643          JMP I CHIN

/PROCESSOR MANAGEMENT AND INPUT/OUTPUT    PAL8-V10D NO DATE   PAGE 26


             /CHARACTER OUTPUT ROUTINES. NOT RE-ENTRENT.

             /PUNCH ONE CHARACTER
02054  0000  PUNCH,  0
02055  6005          PION
02056  6571          SVC             /P ON THE SEMAPHORE
02057  1200          P
02060  2327          PTPSEM
02061  6571          SVC             /WRITE CHAR INTO BUFFER
02062  2027          CHOUT
02063  2331          PTPBSC
02064  6026          PLS             /PUNCH IF NECESSARY
02065  7200          CLA
02066  5654          JMP I PUNCH

             /TYPE ONE CHARACTER (TTY1)
02067  0000  TYPE1,  0
02070  6005          PION
02071  7450          SNA
02072  5667          JMP I TYPE1
02073  6571          SVC
02074  1200          P
02075  2336          TP1SEM
02076  6571          SVC
02077  2027          CHOUT
02100  2340          TP1BSC
02101  6046          TLS
02102  1367          TAD (-212       /IMPLEMENT LF COUNTER
02103  7650          SNA CLA
02104  2035          ISZ LFCT1
02105  7000          NOP
02106  5667          JMP I TYPE1

             /TYPE ONE CHARACTER (TTY2)
02107  0000  TYPE2,  0
02110  6005          PION
02111  6571          SVC
02112  1200          P
02113  2345          TP2SEM
02114  6571          SVC
02115  2027          CHOUT
02116  2347          TP2BSC
02117  6146          T2LS
02120  1367          TAD (-212
02121  7650          SNA CLA
02122  2036          ISZ LFCT2
02123  7000          NOP
02124  5707          JMP I TYPE2

/PROCESSOR MANAGEMENT AND INPUT/OUTPUT    PAL8-V10D NO DATE   PAGE 27


             /CHARACTER INPUT ROUTINES. NOT RE-ENTRENT

             /READ ONE CHARACTER FROM TTY1
02125  0000  RD11,   0
02126  6005          PION
02127  6571          SVC
02130  1200          P
02131  2361          KB1SEM
02132  6571          SVC
02133  2043          CHIN
02134  2354          KB1BSC
02135  5725          JMP I RD11

             /READ ONE CHARACTER FROM TTY2
02136  0000  RD12,   0
02137  6005          PION
02140  6571          SVC
02141  1200          P
02142  2370          KB2SEM
02143  6571          SVC
02144  2043          CHIN
02145  2363          KB2BSC
02146  5736          JMP I RD12

/PROCESSOR MANAGEMENT AND INPUT/OUTPUT    PAL8-V10D NO DATE   PAGE 28


02167  7566
02170  0734
02171  0722
02172  0462
02173  0400
02174  1252
02175  2024
02176  1473
02177  2177
       2200          *2200
             /TABLE FOR STRTUP
02200  0024  STTAB,  SVCARG; STBSIN  /FOR THE CALL TO BSINIT
02201  2021
02202  0355          SVCDF+1; CDF
02203  6201
02204  0462          ISVAC; 0
02205  0000
02206  2327          PTPSEM; PTPSIZ  /PUNCH OUTPUT BUFFER
02207  0024
02210  2330          PTPSEM+1; 0
02211  0000
02212  2333          PTPBSC+2; PTPBUF+PTPSIZ-1
02213  2423
02214  2334          PTPBSC+3; PTPBUF
02215  2400
02216  2335          PTPBSC+4; 0
02217  0000
02220  2336          TP1SEM; TP1SIZ  /TTY1 OUTPUT BUFFER
02221  0024
02222  2337          TP1SEM+1; 0
02223  0000
02224  2342          TP1BSC+2; TP1BUF+TP1SIZ-1
02225  2447
02226  2343          TP1BSC+3; TP1BUF
02227  2424
02230  2344          TP1BSC+4; 0
02231  0000
02232  2345          TP2SEM; TP2SIZ  /TTY2 OUTPUT BUFFER
02233  0024
02234  2346          TP2SEM+1; 0
02235  0000
02236  2351          TP2BSC+2; TP2BUF+TP2SIZ-1
02237  2473
02240  2352          TP2BSC+3; TP2BUF
02241  2450
02242  2353          TP2BSC+4; 0
02243  0000
02244  2361          KB1SEM; 0       /TTY1 INPUT BUFFER
02245  0000
02246  2362          KB1SEM+1; 0
02247  0000
02250  2356          KB1BSC+2; KB1BUF+KB1SIZ-1
02251  2517

/PROCESSOR MANAGEMENT AND INPUT/OUTPUT    PAL8-V10D NO DATE   PAGE 28-1

02252  2357          KB1BSC+3; KB1BUF
02253  2474
02254  2360          KB1BSC+4; -KB1SIZ-1
02255  7753
02256  2370          KB2SEM; 0       /TTY2 INPUT BUFFER
02257  0000
02260  2371          KB2SEM+1; 0
02261  0000
02262  2365          KB2BSC+2; KB2BUF+KB2SIZ-1
02263  2543
02264  2366          KB2BSC+3; KB2BUF
02265  2520
02266  2367          KB2BSC+4; -KB2SIZ-1
02267  7753
02270  0753          ITGSEM; 0       /INTEGRATOR SEMAPHORE
02271  0000
02272  0754          ITGSEM+1; 0
02273  0000
02274  1062          ITM1+2; 0       /TIMERS
02275  0000
02276  1066          ITM2+2; 0
02277  0000
02300  1072          ITM3+2; 0
02301  0000
02302  1076          ITM4+2; 0
02303  0000
02304  0023          IMASK; SYSMSK   /INITIAL SYSTEM INTERRUPT MASK.
02305  0111
02306  0020          RUN; 0
02307  0000
02310  0021          READY; 0
02311  0000
02312  0200          INTHDL; NOP
02313  7000
02314  5705          DTSEM; 0
02315  0000
02316  5706          DTSEM+1; 0
02317  0000
02320  5707          TC1SEM; 1
02321  0001
02322  5710          TC1SEM+1; 0
02323  0000
02324  0037          SCFLG; 0
02325  0000
02326  0000          0

/PROCESSOR MANAGEMENT AND INPUT/OUTPUT    PAL8-V10D NO DATE   PAGE 29


             /DATABASES FOR TELETYPES, PUNCH
02327  0000  PTPSEM, 0; 0
02330  0000
02331  2400  PTPBSC, PTPBUF
02332  5354          -PTPBUF-PTPSIZ
02333  0000          0
02334  0000          0
02335  0000          0

02336  0000  TP1SEM, 0;0
02337  0000
02340  2424  TP1BSC, TP1BUF
02341  5330          -TP1BUF-TP1SIZ
02342  0000          0
02343  0000          0
02344  0000          0

02345  0000  TP2SEM, 0; 0
02346  0000
02347  2450  TP2BSC, TP2BUF
02350  5304          -TP2BUF-TP2SIZ
02351  0000          0
02352  0000          0
02353  0000          0

02354  2474  KB1BSC, KB1BUF
02355  5260          -KB1BUF-KB1SIZ
02356  0000          0
02357  0000          0
02360  0000          0
02361  0000  KB1SEM, 0; 0
02362  0000

02363  2520  KB2BSC, KB2BUF
02364  5234          -KB2BUF-KB2SIZ
02365  0000          0
02366  0000          0
02367  0000          0
02370  0000  KB2SEM, 0; 0
02371  0000

/PROCESSOR MANAGEMENT AND INPUT/OUTPUT    PAL8-V10D NO DATE   PAGE 30


       2400          *2400
             /CHARACTER INPUT/OUTPUT BUFFERS
       0024  PTPSIZ=24
       0024  TP1SIZ=24
       0024  TP2SIZ=24
       0024  KB1SIZ=24
       0024  KB2SIZ=24

02400  0000  PTPBUF, ZBLOCK 24
02424  0000  TP1BUF, ZBLOCK 24
02450  0000  TP2BUF, ZBLOCK 24
02474  0000  KB1BUF, ZBLOCK 24
02520  0000  KB2BUF, ZBLOCK 24

/PROCESSOR MANAGEMENT AND INPUT/OUTPUT    PAL8-V10D NO DATE   PAGE 31


       2600          *2600
             /LINKAGE FOR RE-ENTRENT SUBROUTINE CALL (SVC ROUTINE)
             /SVC
             /CALL
             /-----> SUBROUTINE ADDRESS
             /       BITS6-8 = FIELD OF SUBR., B9-11 = FIELD OF CALL
             /       START OF ARGUMENT LIST
             /FIRST WORD OF SUBROUTINE CONTAINS NUMBER OF WORKING REGISTERS NEEDED,
             /INCLUDING THE HEADER. ALLOCATE A WREG. FRAME, PUSH IT ONTO THE CHAIN
             /SET UP THE HEADER, AND CHANGE ISVPC AND ISVMF FOR ENTRY INTO THE SUBR.
02600  0000  CALL,   0
02601  1024          TAD SVCARG      /PICK UP ARGUMENTS
02602  6673          LDX SXM 70
02603  3256          DCA CLIST       /SAVE POINTER TO ARGUMENT LIST
02604  4777'         JMS SVCDF
02605  1100          TAD X           /GET SUBROUTINE ADDRESS
02606  3257          DCA CALLPC
02607  1101          TAD X+1         /GET SUBROUTINE MEMORY FIELDS
02610  3260          DCA CALLMF
02611  1260          TAD CALLMF      /GET NUMBER OF WREGS. NEEDED
02612  0376          AND (70         /CHANGE TO  FIELD OF SUBROUTINE TO PICK
02613  1220          TAD CLCDF       /UP THE APPROPRIATE NUMBER
02614  3215          DCA .+1
02615  7000          NOP
02616  1657          TAD I CALLPC
02617  3264          DCA CLALST+3    /PUT NUMBER IN ARG LIST
02620  6201  CLCDF,  CDF             /SET UP FOR CALL TO ALOC
02621  1220          TAD CLCDF       /SET SVCDF
02622  3775'         DCA SVCDF+1
02623  1374          TAD (CLALST     /SET SVCARG
02624  3024          DCA SVCARG
02625  4773'         JMS ALOC        /CALL ALOC
02626  5600          JMP I CALL      /ERROR RETURN
02627  1020          TAD RUN         /PUSH WREG. FRAME
02630  6667          LDXC SXM 60
02631  1102          TAD X+PCBWR
02632  3663          DCA I CLALST+2
02633  1263          TAD CLALST+2
02634  3102          DCA X+PCBWR
02635  1102          TAD X+PCBWR     /SET PWREGS
02636  3003          DCA PWREGS
02637  7240          STA             /LOAD THE HEADER
02640  1003          TAD PWREGS      /LOAD X FOR THE CALL TO UPPCB
02641  6605          LDXC
02642  4772'         JMS UPPCB       /LOAD THE SAVED REGISTERS
02643  7105          CLL IAC RAL     /LOAD THE POINTER TO THE ARG LIST
02644  1256          TAD CLIST
02645  3102          DCA X+WRALST+1  /+1 BECAUSE X POINTS TO WREGS. - 1
02646  1257          TAD CALLPC      /SET UP ISVPC AND ISVMF
02647  7001          IAC
02650  3771'         DCA ISVPC
02651  1260          TAD CALLMF
02652  3770'         DCA ISVMF

/PROCESSOR MANAGEMENT AND INPUT/OUTPUT    PAL8-V10D NO DATE   PAGE 31-1

02653  1263          TAD CLALST+2    /SET NEW X TO POINT TO THE WREGS.
02654  3767'         DCA ISVX
02655  5600          JMP I CALL
02656  0000  CLIST,  0
02657  0000  CALLPC, 0
02660  0000  CALLMF, 0
02661  6201  CLALST, CDF             /ARG LIST FOR CALL TO ALOC
02662  7000          SYSBS
02663  0000          0
02664  0000          0

/PROCESSOR MANAGEMENT AND INPUT/OUTPUT    PAL8-V10D NO DATE   PAGE 32


             /RETURN LINKAGE FOR SVC CALL MECHANISM
             /POP WREG. FRAME, RESET PWREGS, RESTORE SAVED REGISTERS, FREE FRAME.
02665  0000  RETURN, 0
02666  1020          TAD RUN         /POP FRAME
02667  6667          LDXC SXM 60
02670  1102          TAD X+PCBWR     /FIRST SAVE POINTER TO FRAME
02671  3324          DCA RTALST+2    /IN ARG LIST FOR CALL TO FREE
02672  1502          TAD I X+PCBWR   /UNCHAIN THE FRAME
02673  3102          DCA X+PCBWR
02674  1102          TAD X+PCBWR     /RESET PWREGS
02675  3003          DCA PWREGS
02676  1324          TAD RTALST+2    /RESTORE SAVED REGISTERS:
02677  6605          LDXC
02700  1102          TAD X+WRPC      /PC
02701  3771'         DCA ISVPC
02702  1103          TAD X+WRAC      /AC
02703  3766'         DCA ISVAC
02704  1104          TAD X+WRMQ      /MQ
02705  3765'         DCA ISVMQ
02706  1105          TAD X+WRX       /X
02707  3767'         DCA ISVX
02710  1106          TAD X+WRLXM     /LXM
02711  3764'         DCA ISVLXM
02712  1107          TAD X+WRMF      /MF
02713  3770'         DCA ISVMF
02714  1322          TAD RTALST      /SET UP FOR CALL TO FREE
02715  3775'         DCA SVCDF+1
02716  1363          TAD (RTALST
02717  3024          DCA SVCARG
02720  4762'         JMS FREE
02721  5665          JMP I RETURN
02722  6201  RTALST, CDF
02723  7000          SYSBS
02724  0000          0

/PROCESSOR MANAGEMENT AND INPUT/OUTPUT    PAL8-V10D NO DATE   PAGE 33


             /NULL ROUTINE
02725  0000  NULL,   0
02726  6005          PION
02727  5725          JMP I NULL

             /SKIP IF CTRL/O FROM TTY1, RESET THE CTRL/O SWITCH
02730  0000  CTRLO1, 0
02731  1005          TAD CCSW1+1
02732  7104          CLL RAL
02733  7430          SZL
02734  2330          ISZ CTRLO1
02735  7110          CLL RAR
02736  3005          DCA CCSW1+1
02737  6005          PION
02740  5730          JMP I CTRLO1

             /SKIP IF CTRL/O FROM TTY2, RESET THE SWITCH
02741  0000  CTRLO2, 0
02742  1007          TAD CCSW2+1
02743  7104          CLL RAL
02744  7430          SZL
02745  2341          ISZ CTRLO2
02746  7110          CLL RAR
02747  3007          DCA CCSW2+1
02750  6005          PION
02751  5741          JMP I CTRLO2

/PROCESSOR MANAGEMENT AND INPUT/OUTPUT    PAL8-V10D NO DATE   PAGE 34


02762  1641
02763  2722
02764  0266
02765  0264
02766  0462
02767  0265
02770  0267
02771  0461
02772  0270
02773  1600
02774  2661
02775  0355
02776  0070
02777  0354
       3000          *3000
             /DO SPECIAL POINTER ADDRESSING FOR ARGUMENT PICK UP
             /ENTER X -> WREGS.
             /WRALST--->     B3-5<>0 => ADD SAVED AC6-8 TO DF,
             /               B6-8=DF, B9-11= 0  OFFSET FROM   0
             /                               1                CUR. WREG. FRAME
             /                               2                PREV. WREG. FRAME
             /                               4                SAVED PC
             /                               5                       AC
             /                               6                       MQ
             /                               7                       X
             /               OFFSET
             /
             /UPDATE WRALST, RETURN STUFF TO THW WREG. HEADER, IF WORD ONE IS
             /<0 RETURN WITH IT IN THE AC, IF NOT, SKIP, RETURN WITH DF SET TO
             /THE DF OF THE ARGUMENT.
03000  0000  VARAD,  0
03001  1200          TAD VARAD
03002  3113          DCA X+WR3
03003  4777'         JMS ARGCDF      /CHANGE TO DF OF ARG LIST
03004  1501          TAD I X+WRALST  /IF BITS 3-5 <>0, ADD IN BASE FIELD
03005  0376          AND (700
03006  7640          SZA CLA
03007  1103          TAD X+WRAC
03010  0375          AND (70
03011  3110          DCA X+WR0
03012  1501          TAD I X+WRALST  /GET WORD ONE
03013  7510          SPA
03014  5513          JMP I X+WR3
03015  1110          TAD X+WR0
03016  0375          AND (70         /FORM CDF AND PUT IN WR0
03017  1374          TAD (CDF
03020  3110          DCA X+WR0
03021  1501          TAD I X+WRALST  /GET BASE ADDRESS
03022  0373          AND (7  /FIRST, GET BASE REG NUMBER
03023  7450          SNA             /IF ITS ZERO, BASE ADDRESS IS ZERO
03024  5237          JMP VRADL1
03025  1372          TAD (-1         /OFFSET FROM CURRENT WREG. FRAME?
03026  7440          SZA

/PROCESSOR MANAGEMENT AND INPUT/OUTPUT    PAL8-V10D NO DATE   PAGE 34-1

03027  5232          JMP .+3
03030  1003          TAD PWREGS
03031  5237          JMP VRADL1
03032  1371          TAD (TAD X-1    /FORM TAD X+ INSTRUCTION
03033  6002          IOF             /LOCK
03034  3235          DCA .+1
03035  7000          NOP             /GET BASE ADDRESS
03036  6005          PION            /UNLOCK
03037  2101  VRADL1, ISZ X+WRALST
03040  1501          TAD I X+WRALST  /ADD OFFSET
03041  2101          ISZ X+WRALST
03042  3111          DCA X+WR1
03043  1110          TAD X+WR0       /CHANGE TO DATA FIELD OF ARGUMENT
03044  6002          IOF
03045  3246          DCA .+1
03046  7000          NOP
03047  6005          PION
03050  1511          TAD I X+WR1
03051  3112          DCA X+WR2
03052  2113          ISZ X+WR3
03053  5513          JMP I X+WR3

/PROCESSOR MANAGEMENT AND INPUT/OUTPUT    PAL8-V10D NO DATE   PAGE 35


             /WORKING REGISTERS FOR READ AND WRITE
       3054  RSTAD1=.
03171  1077
03172  7777
03173  0007
03174  6201
03175  0070
03176  0700
03177  3200
       0014          *WR
                     NOPUNCH
             /LINKAGE WORDS
00014  0000  RWLK1,  0
00015  0000  RWLK2,  0
00016  0000  RWLK3,  0

             /CHARACTER IN/OUT POINTERS
00017  0000  RWCIN,  0       /ADDRESS OF CHIN OR ^O ROUTINE
00020  0000  RWCOUT, 0       /ADDRESS OF CHOUT OR ECHO ROUTINE

             /6-BIT STRING HANDLING STUFF
00021  0000  RWSTB,  0       /STRING BASE ADDRESS
00022  0000  RWSTO,  0       /CHARACTER OFFSET

             /INPUT CONVERSION
00023  0000  CVCHAR, 0       /CHARACTER HELD HERE
00024  0000  CVNUM,  0       /NUMBER CONVERTED HERE

             RWWR,
             /REGISTERS FOR WRITE ONLY
             /FORMAT STRING STUFF
00025  0000  FMTRC,  0       /REPEAT COUNTER
00026  0000  FMTRO,  0       /REPEAT OFFSET
00027  0000  FMTPC,  0       /() REPEAT COUNTER
00030  0000  FMTPO,  0       /() OFFSET

             /VARIABLE LIST STUFF
00031  0000  WRVDF,  0       /62N1
00032  0000  WRVAD,  0       /CURRENT VARIABLE ADDRESS
00033  0000  WRVCT,  0       /VARIABLE REPEAT COUNT
00034  0000  WRVAR,  0       /VALUE

             /OUTPUT FORMAT
00035  0000  FILL,   0       /FILL CHARACTER
00036  0000  FORMN,  0       /# OF CHARACTERS
00037  0000  TYDCT,  0       /COUNTER FOR TYDEC
00040  0000  TYDPTR, 0       /POINTER FOR TYDEC
             WRWR,

       0025          *RWWR
             /REGISTERS FOR READ ONLY
00025  0000  TBPTR,  0       /TOKEN BUFFER POINTER
00026  0000  OPTAB,  0       /POINTER TO OPERATOR TABLE

/PROCESSOR MANAGEMENT AND INPUT/OUTPUT    PAL8-V10D NO DATE   PAGE 35-1

00027  0000  OPBUF,  ZBLOCK 6        /HOLDS OPERATOR BEING WORKED ON
00035  0000  RDFLG,  0       /FLAG FOR MINUS SIGN
00036  0000  RDBUF,  ZBLOCK 44       /72-CHAR BUFFER
             RDWR,
                     ENPUNCH
       3054          *RSTAD1

/PROCESSOR MANAGEMENT AND INPUT/OUTPUT    PAL8-V10D NO DATE   PAGE 36


             /READ ROUTINE. ENTERED BY SVC CALL MECHANISM
             /ARG 1 - INPUT UNIT NUMBER
             /    2 - ECHO UNIT NUMBER
             /    3 - POINTER TO OPERATOR TABLE
             /    4 - POINTER TO TOKEN BUFFER
03054  0102  READ,   RDWR            /NUMBER OF WREGS. NEEDED.
03055  6666          SXM 60 XCLA
03056  6002          IOF             /PICK UP ARGUMENTS
03057  4200          JMS VARAD       /FETCH INPUT UNIT NUMBER
03060  7200          CLA
03061  1112          TAD X+WR2       /DO TABLE LOOKUP
03062  1370          TAD (CHITAB
03063  3117          DCA X+RWCIN
03064  6201          CDF
03065  1517          TAD I X+RWCIN
03066  3117          DCA X+RWCIN
03067  6002          IOF             /FETCH ECHO UNIT NUMBER
03070  4200          JMS VARAD
03071  7200          CLA
03072  1112          TAD X+WR2
03073  1367          TAD (CHOTAB
03074  3120          DCA X+RWCOUT
03075  6201          CDF
03076  1520          TAD I X+RWCOUT
03077  3120          DCA X+RWCOUT
03100  6002          IOF             /FETCH POINTER TO OPERATOR TABLE
03101  4200          JMS VARAD
03102  7200          CLA
03103  1111          TAD X+WR1
03104  3126          DCA X+OPTAB
03105  6002          IOF             /FETCH POINTER TO TOKEN BUFFER
03106  4200          JMS VARAD
03107  7200          CLA
03110  1111          TAD X+WR1
03111  3125          DCA X+TBPTR
03112  1003  READL1, TAD PWREGS      /SET UP INPUT STRING BASE ADDRESS
03113  1366          TAD (RDBUF
03114  3121          DCA X+RWSTB
03115  6002          IOF             /READ FIRST RECORD
03116  4765'         JMS RDREC
03117  3122          DCA X+RWSTO
03120  3135          DCA X+RDFLG
03121  5764'         JMP RDPRC

/PROCESSOR MANAGEMENT AND INPUT/OUTPUT    PAL8-V10D NO DATE   PAGE 37


             /WRITE ROUTINE. ENTERED BY SVC CALL MECHANISM
             /ARG 1 - OUTPUT UNIT NUMBER
             /    2 - CNTRL/O UNIT NUMBER
             /    3 - POINTER TO FORMAT STRING
             /    4-N - VARIABLE LIST, TERMINATED BY 4000 OCTAL
             /IF CONTROL O IS DETECTED, WRITE TAKES THE NON-SKIP RETURN WITH
             /THE AC=1 (PRINTOUT STOPS IMMEDIATLY)
03122  0041  WRITE,  WRWR
03123  6666          SXM 60 XCLA
03124  6002          IOF             /FETCH OUTPUT UNIT NUMBER
03125  4200          JMS VARAD
03126  7200          CLA
03127  1112          TAD X+WR2       /DO TABLE LOOKUP
03130  1367          TAD (CHOTAB
03131  3120          DCA X+RWCOUT
03132  6201          CDF
03133  1520          TAD I X+RWCOUT
03134  3120          DCA X+RWCOUT
03135  6002          IOF             /FETCH CTRL/O UNIT NUMBER
03136  4200          JMS VARAD
03137  7200          CLA
03140  1112          TAD X+WR2
03141  1363          TAD (CTOTAB
03142  3117          DCA X+RWCIN
03143  6201          CDF
03144  1517          TAD I X+RWCIN
03145  3117          DCA X+RWCIN
03146  6002          IOF             /FETCH POINTER TO FORMAT
03147  4200          JMS VARAD
03150  7200          CLA
03151  1111          TAD X+WR1
03152  3121          DCA X+RWSTB
03153  1362          TAD (240        /SET FILL TO SPACE
03154  3135          DCA X+FILL
03155  5761'         JMP WRPRC

/PROCESSOR MANAGEMENT AND INPUT/OUTPUT    PAL8-V10D NO DATE   PAGE 38


03161  3210
03162  0240
03163  3341
03164  4466
03165  3400
03166  0036
03167  3334
03170  3331
       3200          *3200
             /CHANGE TO DATA FIELD OF ARGUMENT LIST
03200  0000  ARGCDF, 0
03201  1107          TAD X+WRMF
03202  0377          AND (70
03203  1376          TAD (CDF
03204  3205          DCA .+1
03205  7000          NOP
03206  6005          PION
03207  5600          JMP I ARGCDF

/PROCESSOR MANAGEMENT AND INPUT/OUTPUT    PAL8-V10D NO DATE   PAGE 39


             /WRITE PROCESSOR.
             /READ FROM FORMAT, SET UP REPEAT COUNTER, LOOK UP CHARACTER IN
             /TABLE, ENTER APPROPRIATE ROUTINE.
03210  7240  WRPRC,  STA             /INITIALIZATION. SET RWVCT TO -1
03211  3133          DCA X+WRVCT
03212  3122          DCA X+RWSTO     /ZERO FORMAT OFFSET
03213  6002  WRPL1,  IOF             /GET REPEAT COUNT AND CHARACTER
03214  4200          JMS ARGCDF
03215  6002          IOF
03216  4346          JMS RWSCAN
03217  1124          TAD X+CVNUM     /SET UP REPEAT COUNT
03220  7450          SNA             /IF IT IS 0, MAKE IT 1
03221  7001          IAC
03222  7041          CIA
03223  3125          DCA X+FMTRC
03224  1122          TAD X+RWSTO     /SET UP REPEAT OFFSET
03225  3126          DCA X+FMTRO
                                     /LOOK UP CHARACTER IN TABLE
03226  1375  WRPL4,  TAD (FMTAB      /EACH ENTRY:  CHARACTER
03227  3124          DCA X+CVNUM
03230  6002          IOF             /             WRITE HANDLER
03231  4774'         JMS RWNCH       /USE CVNUM AS A POINTER
03232  6201          CDF
03233  1524  WRPL2,  TAD I X+CVNUM   /FETCH CHAR FROM TABLE
03234  2124          ISZ X+CVNUM
03235  7450          SNA             /END OF TABLE?
03236  5213          JMP WRPL1       /YES, IGNORE CHARACTER
03237  7041          CIA             /NO, TEST
03240  1123          TAD X+CVCHAR
03241  7650          SNA CLA
03242  5245          JMP .+3
03243  2124          ISZ X+CVNUM     /NO MATCH, TRY AGAIN
03244  5233          JMP WRPL2
03245  1524          TAD I X+CVNUM   /GET ADDRESS
03246  3124          DCA X+CVNUM
03247  6002          IOF             /CHANGE TO DATA FIELD OF FORMAT
03250  4200          JMS ARGCDF
03251  5524          JMP I X+CVNUM

             /RETURN TO READ/WRITE PROCESSOR
03252  2125  WRPL3,  ISZ X+FMTRC     /HANDLE REPEAT COUNTER
03253  7410          SKP
03254  5213          JMP WRPL1
03255  1126          TAD X+FMTRO
03256  3122          DCA X+RWSTO
03257  6002          IOF
03260  4200          JMS ARGCDF
03261  5226          JMP WRPL4

             /END OF READ/WRITE, SKIP RETURN
03262  2102  RWEND,  ISZ X+WRPC
03263  6571          SVC
03264  2665          RETURN

/PROCESSOR MANAGEMENT AND INPUT/OUTPUT    PAL8-V10D NO DATE   PAGE 39-1

03265  0000          0

/PROCESSOR MANAGEMENT AND INPUT/OUTPUT    PAL8-V10D NO DATE   PAGE 40


             /FORMAT TABLE
03266  0300  FMTAB,  "@;RWEND        /END OF FORMAT STRING
03267  3262
03270  0247          "';WRPQT        /QUOTE
03271  4070
03272  0257          "/;WRPCR        /SLASH
03273  4111
03274  0311          "I;WRPI         /INTEGER
03275  4114
03276  0303          "C;WRPCH                /6-BIT ALPHA-NUMERIC
03277  4142
03300  0251          "); WRPRP
03301  4607
03302  0250          "(; WRPLP
03303  4600
03304  0336          "^; WRPUA
03305  4615
03306  0330          "X; WRPX
03307  4624
03310  0304          "D; WRPD
03311  4630
03312  0324          "T; WRPT
03313  4675
03314  0276          ">; WRGT
03315  4745
03316  0274          "<; WRPLT
03317  6117
03320  0314          "L; WRPL
03321  6112
03322  0301          "A; WRPA
03323  6066
03324  0326          "V; WRPV
03325  6121
03326  0244          "$; WRPDS
03327  6125
03330  0000          0
             /TABLE OF CHARACTER INPUT ROUTINES
03331  2725  CHITAB, NULL
03332  2125          RD11
03333  2136          RD12

             /TABLE OF CHARACTER OUTPUT ROUTINES
03334  2725  CHOTAB, NULL
03335  2067          TYPE1
03336  2107          TYPE2
03337  2054          PUNCH
03340  5200          TYPE4   /SCOPE

             /TABLE OF CTRL/O CHECKING ROUTINES
03341  2725  CTOTAB, NULL
03342  2730          CTRLO1
03343  2741          CTRLO2
03344  2725          NULL

/PROCESSOR MANAGEMENT AND INPUT/OUTPUT    PAL8-V10D NO DATE   PAGE 40-1

03345  2725          NULL

/PROCESSOR MANAGEMENT AND INPUT/OUTPUT    PAL8-V10D NO DATE   PAGE 41


             / SCAN STRING UNTIL A NON-NUMERIC CHARACTER IN ENCOUNTERED.
             / CONVERT NUMBER AND PUT INTO CVNUM.
03346  0000  RWSCAN, 0
03347  1346          TAD RWSCAN
03350  3115          DCA X+RWLK2
03351  6005          PION
03352  3124          DCA X+CVNUM     /ZERO CVNUM
03353  6002          IOF
03354  4774'         JMS RWNCH       /GET NEXT CHARACTER
03355  6002          IOF             /TEST IT
03356  4773'         JMS RWCVN
03357  7410          SKP
03360  5353          JMP .-5
03361  7240          STA
03362  1122          TAD X+RWSTO
03363  3122          DCA X+RWSTO
03364  5515          JMP I X+RWLK2

/PROCESSOR MANAGEMENT AND INPUT/OUTPUT    PAL8-V10D NO DATE   PAGE 42


03373  4043
03374  3707
03375  3266
03376  6201
03377  0070
       3400          *3400
             /READ ONE RECORD
             /HANDLE RUBOUT, ^U, IGNORE MORE THAN 71 CHARACTERS, FILL THE
             /UNUSED PART OF THE BUFFER WITH SPACES.
             /USES WR0 AS A MOD 72 COUNTER
03400  0000  RDREC,  0
03401  1200          TAD RDREC
03402  3115          DCA X+RWLK2
03403  6005          PION
03404  6201          CDF
03405  1377  RDRL1,  TAD (-110       /INIT. MOD 72 COUNTER
03406  3110          DCA X+WR0
03407  3122          DCA X+RWSTO
03410  6002  RDRL2,  IOF             /GET NEXT CHARACTER
03411  4517          JMS I X+RWCIN
03412  3123          DCA X+CVCHAR    /SAVE IT
03413  1123          TAD X+CVCHAR
03414  1376          TAD (-214       /IS IT ^L?
03415  7450          SNA
03416  5317          JMP RDRFF
03417  1375          TAD (214-377    /IS IT RUBOUT?
03420  7450          SNA
03421  5260          JMP RDRDLT
03422  1374          TAD (377-225    /IS IT CTRL/U?
03423  7450          SNA
03424  5275          JMP RDRKL
03425  1373          TAD (225-215    /IS IT CR?
03426  7450          SNA
03427  5306          JMP RDRCR
03430  1372          TAD (215-240    /IGNORE CONTROL CHARACTERS
03431  7710          SPA CLA
03432  5210          JMP RDRL2
03433  1123          TAD X+CVCHAR
03434  1371          TAD (-373       /IGNORE ABOVE 372 OCTAL
03435  7700          SMA CLA
03436  5210          JMP RDRL2
03437  1123          TAD X+CVCHAR    /FORCE LETTERS UPPER CASE
03440  1370          TAD (-341
03441  7510          SPA
03442  1367          TAD (40
03443  1366          TAD (301
03444  3123          DCA X+CVCHAR
03445  2110          ISZ X+WR0       /IGNORE OVER 71 CHATACTERS
03446  5252          JMP .+4
03447  7240          STA
03450  3110          DCA X+WR0
03451  5210          JMP RDRL2
03452  1123          TAD X+CVCHAR    /ECHO CHARACTER

/PROCESSOR MANAGEMENT AND INPUT/OUTPUT    PAL8-V10D NO DATE   PAGE 42-1

03453  6002          IOF
03454  4520          JMS I X+RWCOUT
03455  6002          IOF             /DUMP CHAR INTO BUFFER
03456  4323          JMS RWWNC
03457  5210          JMP RDRL2

             /HANDLE RUBOUT
03460  7240  RDRDLT, STA             /DECREMENT THE MOD 72 COUNTER
03461  1110          TAD X+WR0
03462  3110          DCA X+WR0
03463  7240          STA             /DECREMENT STRING ADDRESS
03464  1122          TAD X+RWSTO
03465  3122          DCA X+RWSTO
03466  1122          TAD X+RWSTO     /IF RUBOUT BEYOND BEGINNING OF LINE, DO A ^U
03467  7710          SPA CLA
03470  5275          JMP RDRKL
03471  1365          TAD ("\         /ECHO \
03472  6002          IOF
03473  4520          JMS I X+RWCOUT
03474  5210          JMP RDRL2

             /HANDLE CTRL/U
03475  1364  RDRKL,  TAD ("^         /ECHO ^U, CR, LF, NULL
03476  6002          IOF
03477  4520          JMS I X+RWCOUT
03500  1363          TAD ("U
03501  6002          IOF
03502  4520          JMS I X+RWCOUT
03503  6002          IOF
03504  4762'         JMS TYEOL
03505  5205          JMP RDRL1

             /HANDLE CR
03506  6002  RDRCR,  IOF             /ECHO CR,LF,NULL
03507  4762'         JMS TYEOL
03510  1361          TAD (240        /FILL THE REST OF THE BUFFER WITH SPACES
03511  3123          DCA X+CVCHAR
03512  6002          IOF
03513  4323          JMS RWWNC
03514  2110          ISZ X+WR0
03515  5312          JMP .-3
03516  5515          JMP I X+RWLK2

             /HANDLE ^L
03517  1360  RDRFF,  TAD (214
03520  6002          IOF
03521  4520          JMS I X+RWCOUT
03522  5210          JMP RDRL2

/PROCESSOR MANAGEMENT AND INPUT/OUTPUT    PAL8-V10D NO DATE   PAGE 43


             /WRITE CVCHAR INTO 6-BIT STRING. USES WR1 AS TEMP STORAGE
             /WHEN WRITING LEFT HALF OF WORD, RIGHT HALF IS CLOBBERED
03523  0000  RWWNC,  0
03524  1323          TAD RWWNC
03525  3114          DCA X+RWLK1
03526  6005          PION
03527  1122          TAD X+RWSTO     /GET ADDRESS OF WORD CHAR GOES INTO
03530  2122          ISZ X+RWSTO
03531  7110          CLL RAR
03532  1121          TAD X+RWSTB
03533  3111          DCA X+WR1
03534  1123          TAD X+CVCHAR    /GET CHAR
03535  0357          AND (77
03536  7421          MQL
03537  7430          SZL             /IF OFFSET WAS EVEN, SHIFT LEFT
03540  5343          JMP .+3
03541  7413          SHL; 5
03542  0005
03543  1511          TAD I X+WR1     /GET WORD AND INSERT CHARACTER
03544  7420          SNL
03545  7200          CLA
03546  0356          AND (7700
03547  7501          MQA
03550  3511          DCA I X+WR1
03551  5514          JMP I X+RWLK1

/PROCESSOR MANAGEMENT AND INPUT/OUTPUT    PAL8-V10D NO DATE   PAGE 44


03556  7700
03557  0077
03560  0214
03561  0240
03562  3600
03563  0325
03564  0336
03565  0334
03566  0301
03567  0040
03570  7437
03571  7405
03572  7755
03573  0010
03574  0152
03575  7615
03576  7564
03577  7670
       3600          *3600
             /TYPE CR,LF,NULL
03600  0000  TYEOL,  0
03601  1200          TAD TYEOL
03602  3114          DCA X+RWLK1
03603  6005          PION
03604  1377          TAD (215        /CR
03605  6002          IOF
03606  4520          JMS I X+RWCOUT
03607  1376          TAD (212        /LF
03610  6002          IOF
03611  4520          JMS I X+RWCOUT
03612  6002          IOF             /NULL
03613  4520          JMS I X+RWCOUT
03614  5514          JMP I X+RWLK1

             /WRITE ONE CHARACTER AND CHECK FOR CONTROL O
03615  0000  WRIT1,  0
03616  7421          MQL
03617  1215          TAD WRIT1
03620  3114          DCA X+RWLK1
03621  6005          PION
03622  7501          MQA
03623  6002          IOF     /WRITE CHARACTER
03624  4520          JMS I X+RWCOUT
03625  6002          IOF     /CHECK FOR CTRL/O
03626  4517          JMS I X+RWCIN
03627  5514          JMP I X+RWLK1
03630  7201          CLA IAC         /^O, RETURN WITH AC=1
03631  3103          DCA X+WRAC
03632  6571          SVC
03633  2665          RETURN
03634  0000          0

/PROCESSOR MANAGEMENT AND INPUT/OUTPUT    PAL8-V10D NO DATE   PAGE 45


             /DECIMAL TYPE OUT ROUTINE. CONVERT RWVAR TO DECIMAL ASCII CHARACTERS
             /AND TYPE OUT. USES WR0 THRU WR3 AS A BUFFER
             /FORMN SHOULD NOT BE GREATER THAN 4.
03635  0000  TYDEC,  0
03636  1235          TAD TYDEC
03637  3115          DCA X+RWLK2
03640  6005          PION
03641  1375          TAD (-4         /SET UP FOR PART 1 - CONVERT NUMBER AND PUT
03642  3137          DCA X+TYDCT     /IN BUFFER AREA
03643  1003          TAD PWREGS
03644  1374          TAD (WR3        /SET UP POINTER INTO BUFFER
03645  3140          DCA X+TYDPTR
03646  6201          CDF
03647  1134          TAD X+WRVAR     /GET NUMBER
03650  7421          MQL
03651  7407  TYDL1,  DVI; 12         /CONVERSION LOOP. DIVIDE BY 10
03652  0012
03653  1373          TAD (260        /CONVERT TO ASCII
03654  3540  TYDL4,  DCA I X+TYDPTR  /PUT IN BUFFER
03655  2137          ISZ X+TYDCT     /DONE?
03656  5277          JMP TYDL2
03657  1136          TAD X+FORMN     /YES, DUMP BUFFER
03660  7450          SNA
03661  5515          JMP I X+RWLK2
03662  7041          CIA
03663  3137          DCA X+TYDCT
03664  1003          TAD PWREGS      /SET UP POINTER
03665  1372          TAD (WR3+1
03666  1137          TAD X+TYDCT
03667  3140          DCA X+TYDPTR
03670  1540  TYDL3,  TAD I X+TYDPTR  /OUTPUT LOOP
03671  6002          IOF
03672  4215          JMS WRIT1
03673  2140          ISZ X+TYDPTR
03674  2137          ISZ X+TYDCT
03675  5270          JMP TYDL3
03676  5515          JMP I X+RWLK2
03677  7240  TYDL2,  STA             /UPDATE POINTER FOR CONVERSION LOOP
03700  1140          TAD X+TYDPTR
03701  3140          DCA X+TYDPTR
03702  7501          MQA             /IF MQ = 0, DUMP FILL CHAR
03703  7640          SZA CLA
03704  5251          JMP TYDL1
03705  1135          TAD X+FILL
03706  5254          JMP TYDL4

/PROCESSOR MANAGEMENT AND INPUT/OUTPUT    PAL8-V10D NO DATE   PAGE 46


             /GET CHAR FROM 6-BIT STRING, UPDATE RWSTO
03707  0000  RWNCH,  0
03710  1307          TAD RWNCH
03711  3114          DCA X+RWLK1
03712  6005          PION
03713  1122          TAD X+RWSTO     /GET ADDRESS OF WORD CONTAINING CHARACTER.
03714  2122          ISZ X+RWSTO
03715  7110          CLL RAR         /LSB TELLS WETHER LEFT OR RIGHT HALF
03716  1121          TAD X+RWSTB
03717  3123          DCA X+CVCHAR
03720  1523          TAD I X+CVCHAR  /FETCH WORD
03721  7430          SZL
03722  5325          JMP .+3
03723  7417          LSR; 5  /SHIFT IF NECESSARY
03724  0005
03725  0371  RWNCHL, AND (77         /MASK OFF HIGH 6 BITS
03726  3123          DCA X+CVCHAR
03727  1123          TAD X+CVCHAR    /CONVERT TO 8-BIT CODE
03730  7044          CMA RAL
03731  0370          AND (0300
03732  1123          TAD X+CVCHAR
03733  3123          DCA X+CVCHAR
03734  5514          JMP I X+RWLK1

/PROCESSOR MANAGEMENT AND INPUT/OUTPUT    PAL8-V10D NO DATE   PAGE 47


             /SKIP IF CVCHAR IS ALPHA-NUMERIC
03735  0000  SKLET,  0
03736  1123          TAD X+CVCHAR
03737  1367          TAD (-260
03740  7510          SPA
03741  5353          JMP SKLTL
03742  1366          TAD (260-271
03743  7550          SPA SNA
03744  5352          JMP SKLTL-1
03745  1365          TAD (271-301
03746  7510          SPA
03747  5353          JMP SKLTL
03750  1364          TAD (301-332
03751  7550          SPA SNA
03752  2335          ISZ SKLET
03753  7200  SKLTL,  CLA
03754  6005          PION
03755  5735          JMP I SKLET

/PROCESSOR MANAGEMENT AND INPUT/OUTPUT    PAL8-V10D NO DATE   PAGE 48


03764  7747
03765  7770
03766  7767
03767  7520
03770  0300
03771  0077
03772  0014
03773  0260
03774  0013
03775  7774
03776  0212
03777  0215
       4000          *4000
             /GET NEXT VARIABLE ADDRESS FROM LIST. SVC RETURN IF NONE.
             /RETURN WITH THE DF SET TO THE FIELD OF THE VARIABLE
04000  0000  WRNVR,  0
04001  1200          TAD WRNVR
04002  3114          DCA X+RWLK1
04003  6005          PION
04004  2133          ISZ X+WRVCT     /FETCH A NEW VARIABLE FROM LIST?
04005  5226          JMP WRNVL1
04006  6002          IOF             /YES
04007  4777'         JMS VARAD
04010  5237          JMP WRNVL2      /NO MORE VATIABLES
04011  1110          TAD X+WR0       /SET UP VARIABLE DF
04012  3131          DCA X+WRVDF
04013  1111          TAD X+WR1       /                ADDRESS
04014  3132          DCA X+WRVAD
04015  1112          TAD X+WR2       /                VALUE
04016  3134          DCA X+WRVAR
04017  6002          IOF             /GET REPEAT COUNT
04020  4777'         JMS VARAD
04021  7200          CLA
04022  1112          TAD X+WR2
04023  7041          CIA
04024  3133          DCA X+WRVCT
04025  5514          JMP I X+RWLK1
04026  2132  WRNVL1, ISZ X+WRVAD     /REPEAD OLD VARIABLE ADDRESS+1
04027  1131          TAD X+WRVDF
04030  6002          IOF
04031  3232          DCA .+1
04032  7000          NOP
04033  6005          PION
04034  1532          TAD I X+WRVAD
04035  3134          DCA X+WRVAR
04036  5514          JMP I X+RWLK1
04037  7200  WRNVL2, CLA
04040  6002          IOF
04041  4776'         JMS TYEOL
04042  5775'         JMP RWEND

/PROCESSOR MANAGEMENT AND INPUT/OUTPUT    PAL8-V10D NO DATE   PAGE 49


             /IF CVCHAR IS A NUMBER, SKIP AND CONVERT TO BINARY, SHIFT INTO
             /CVNUM.
04043  0000  RWCVN,  0
04044  1243          TAD RWCVN
04045  3114          DCA X+RWLK1
04046  6005          PION
04047  1123          TAD X+CVCHAR    /IS IT A NUMBER?
04050  1374          TAD (-260
04051  7710          SPA CLA
04052  5514          JMP I X+RWLK1
04053  1123          TAD X+CVCHAR
04054  1373          TAD (-272
04055  7700          SMA CLA
04056  5514          JMP I X+RWLK1
04057  1124          TAD X+CVNUM     /YES, SHIFT AND ADD
04060  7425          MQL MUY; 12
04061  0012
04062  7701          CLA MQA
04063  1123          TAD X+CVCHAR
04064  1374          TAD (-260
04065  3124          DCA X+CVNUM
04066  2114          ISZ X+RWLK1
04067  5514          JMP I X+RWLK1

/PROCESSOR MANAGEMENT AND INPUT/OUTPUT    PAL8-V10D NO DATE   PAGE 50


             /HANDLER FOR QUOTE
04070  6002  WRPQT,  IOF
04071  4772'         JMS RWNCH
04072  1123          TAD X+CVCHAR    /IS IT '?
04073  1371          TAD (-"'
04074  7650          SNA CLA
04075  5302          JMP .+5
04076  1123  RWPQTL, TAD X+CVCHAR    /NO, TYPE IT OUT
04077  6002          IOF
04100  4770'         JMS WRIT1
04101  5270          JMP WRPQT
04102  6002          IOF             /YES, GET NEXT CHARACTER
04103  4772'         JMS RWNCH
04104  1123          TAD X+CVCHAR    /IF IT IS ', TYPE IT OUT AND CONTINUE
04105  1371          TAD (-"'
04106  7650          SNA CLA
04107  5276          JMP RWPQTL
04110  5767'         JMP WRPL3       /NOT QUOTE, DONE

             /HANDLER FOR SLASH
04111  6002  WRPCR,  IOF
04112  4776'         JMS TYEOL
04113  5767'         JMP WRPL3

/PROCESSOR MANAGEMENT AND INPUT/OUTPUT    PAL8-V10D NO DATE   PAGE 51


             /HANDLER FOR I OUTPUT
04114  6002  WRPI,   IOF             /FETCH FIELD WIDTH
04115  4766'         JMS RWSCAN
04116  7240          STA             /IN CASE NUMBER IS <0, TO MAKE ROOM FOR "-"
04117  1124          TAD X+CVNUM
04120  3136          DCA X+FORMN
04121  6002          IOF
04122  4200          JMS WRNVR       /FETCH VARIABLE
04123  6201          CDF
04124  1134          TAD X+WRVAR     /IS IT NEGATIVE
04125  7500          SMA
04126  5335          JMP .+7
04127  7041          CIA             /YES, NEGATE AND TYPE -
04130  3134          DCA X+WRVAR
04131  1365          TAD ("-
04132  6002          IOF
04133  4770'         JMS WRIT1
04134  5337          JMP .+3
04135  7200          CLA             /NO, INCREMENT LENGTH
04136  2136          ISZ X+FORMN
04137  6002          IOF
04140  4764'         JMS TYDEC       /TYPE NUMBER
04141  5767'         JMP WRPL3

             /HANDLER FOR C OUTPUT
04142  6002  WRPCH,  IOF             /FETCH VARIABLE
04143  4200          JMS WRNVR
04144  1134          TAD X+WRVAR     /TYPE IT OUT
04145  6002          IOF
04146  4770'         JMS WRIT1
04147  5767'         JMP WRPL3

/PROCESSOR MANAGEMENT AND INPUT/OUTPUT    PAL8-V10D NO DATE   PAGE 52


             /DUMP AC INTO TOKEN BUFFER.
04150  0000  TOKE,   0
04151  7421          MQL     /SAVE WORD
04152  1350          TAD TOKE
04153  3114          DCA X+RWLK1
04154  4763'         JMS ARGCDF      /CHANGE TO FIELD OF TOKEN BUFFER
04155  7501          MQA             /DUMP WORD
04156  3525          DCA I X+TBPTR
04157  2125          ISZ X+TBPTR
04160  6201          CDF
04161  5514          JMP I X+RWLK1

/PROCESSOR MANAGEMENT AND INPUT/OUTPUT    PAL8-V10D NO DATE   PAGE 53


04163  3200
04164  3635
04165  0255
04166  3346
04167  3252
04170  3615
04171  7531
04172  3707
04173  7506
04174  7520
04175  3262
04176  3600
04177  3000
       4200          *4200
             /GET NUMBER FROM INPUT STRING. IF NUMBER IS FOUND, DUMP TOKEN.
             /IF NO NUMBER IS FOUND, RWSTO IS NOT CHANGED
04200  0000  RDNUM,  0
04201  1200          TAD RDNUM
04202  3116          DCA X+RWLK3
04203  1122          TAD X+RWSTO     /SAVE CURRENT OFFSET
04204  3111          DCA X+WR1
04205  4777'         JMS RWSCAN      /ATTEMPT TO CONVERT NUMBER
04206  1111          TAD X+WR1       /COMPARE OLD OFFSET TO NEW OFFSET, TO SEE
04207  7041          CIA             /IF A NUMBER HAS BEEN FOUND
04210  1122          TAD X+RWSTO
04211  7650          SNA CLA
04212  5516          JMP I X+RWLK3   /NO NUMBER, RETURN
04213  1376          TAD (400        /NUMBER FOUND, FIRST DUMP WORD 1
04214  6002          IOF
04215  4775'         JMS TOKE
04216  1135          TAD X+RDFLG     /GET MINUS BIT
04217  7010          RAR             /AND PUT IT IN THE LINK
04220  7200          CLA
04221  3135          DCA X+RDFLG
04222  1124          TAD X+CVNUM     /GET NUMBER, NEGATE IF LINK=1
04223  7430          SZL
04224  7041          CIA
04225  6002          IOF             /DUMP WORD 2
04226  4775'         JMS TOKE
04227  5516          JMP I X+RWLK3

/PROCESSOR MANAGEMENT AND INPUT/OUTPUT    PAL8-V10D NO DATE   PAGE 54


             /GET OPERATOR FROM INPUT STRING, PUT IN OPBUF. SKIP IF ONE IS
             /FOUND.
04230  0000  GETOPR, 0
04231  1230          TAD GETOPR
04232  3115          DCA X+RWLK2
04233  6005          PION
04234  1374          TAD (-6         /INIT. MOD 6 COUNTER
04235  3111          DCA X+WR1
04236  1003          TAD PWREGS      /INIT. POINTER TO OPBUF
04237  1373          TAD (OPBUF
04240  3112          DCA X+WR2
04241  6002  GOPL1,  IOF             /GET NEXT CHAR FROM STRING
04242  4772'         JMS RWNCH
04243  6002          IOF             /IS IT A LETTER OR A NUMBER?
04244  4771'         JMS SKLET
04245  5263          JMP GOPL2
04246  1123          TAD X+CVCHAR    /YES, DUMP IT INTO OPBUF
04247  3512          DCA I X+WR2
04250  2112          ISZ X+WR2
04251  2111          ISZ X+WR1
04252  5241          JMP GOPL1
04253  6002          IOF             /OPBUF FILLED, READ UNTIL A TERMINATOR
04254  4772'         JMS RWNCH       /IS FOUND
04255  6002          IOF
04256  4771'         JMS SKLET
04257  7410          SKP
04260  5253          JMP .-5
04261  2115          ISZ X+RWLK2     /SKIP RETURN
04262  5515          JMP I X+RWLK2
04263  3512  GOPL2,  DCA I X+WR2     /TERMINATOR FOUND BEFORE BUFFER FILLED. DUMP
04264  1127          TAD X+OPBUF     /0 INTO BUFFER, AND TEST TO SEE IF AN OPERATORT
04265  7640          SZA CLA
04266  2115          ISZ X+RWLK2     /WAS FOUND.
04267  5515          JMP I X+RWLK2

/PROCESSOR MANAGEMENT AND INPUT/OUTPUT    PAL8-V10D NO DATE   PAGE 55


             /GET OPERATOR FROM INPUT STRING. IF THERE IS ONE, SEARCH OPERATOR
             /TABLE. IF FOUND, DUMP TOKEN, ELSE PRINT ERROR  MESSAGE AND GO TO
             /READL1.
04270  0000  RDOPR,  0
04271  1270          TAD RDOPR
04272  3116          DCA X+RWLK3
04273  4230          JMS GETOPR      /GET OPERATOR
04274  5516          JMP I X+RWLK3   /NONE, RETURN
04275  3135          DCA X+RDFLG
04276  1122          TAD X+RWSTO     /SEARCH TABLE. FIRST SAVE RWSTO
04277  3112          DCA X+WR2
04300  6002          IOF
04301  4770'         JMS SROPT
04302  5317          JMP RDOL1
04303  1367          TAD (1000       /FOUND, DUMP TOKEN
04304  6002          IOF
04305  4775'         JMS TOKE
04306  1003          TAD PWREGS      /RESTORE STRING BASE AND OFFSET
04307  1366          TAD (RDBUF
04310  3121          DCA X+RWSTB
04311  7240          STA
04312  1112          TAD X+WR2
04313  3122          DCA X+RWSTO
04314  6002          IOF
04315  4772'         JMS RWNCH
04316  5516          JMP I X+RWLK3
04317  1374  RDOL1,  TAD (-6         /SET UP FOR TYPING ERROR MESSAGE
04320  3110          DCA X+WR0
04321  1003          TAD PWREGS
04322  1373          TAD (OPBUF
04323  3111          DCA X+WR1
04324  1511  RDOL2,  TAD I X+WR1     /LOOP TO DUMP OPBUF
04325  2111          ISZ X+WR1
04326  7450          SNA
04327  5334          JMP .+5
04330  6002          IOF
04331  4520          JMS I X+RWCOUT
04332  2110          ISZ X+WR0
04333  5324          JMP RDOL2
04334  1365          TAD ("?         /TYPE ?
04335  6002          IOF
04336  4520          JMS I X+RWCOUT
04337  6002          IOF
04340  4764'         JMS TYEOL
04341  5763'         JMP READL1

/PROCESSOR MANAGEMENT AND INPUT/OUTPUT    PAL8-V10D NO DATE   PAGE 56


04363  3112
04364  3600
04365  0277
04366  0036
04367  1000
04370  4400
04371  3735
04372  3707
04373  0027
04374  7772
04375  4150
04376  0400
04377  3346
       4400          *4400
             /SEARCH OPERATOR TABLE FOR A MATCH WITH OPBUF. SKIP IF FOUND, WITH
             /INDEX IN AC
04400  0000  SROPT,  0
04401  1200          TAD SROPT
04402  3115          DCA X+RWLK2
04403  6005          PION
04404  3111          DCA X+WR1       /WR1 KEEPS TRACK OF INDEX INTO TABLE
04405  1126          TAD X+OPTAB     /SET IP TO READ FROM OPERATOR TABLE
04406  3121          DCA X+RWSTB
04407  3122          DCA X+RWSTO
04410  1003  SOTL1,  TAD PWREGS      /INIT. POINTER INTO OPBUF
04411  1377          TAD (OPBUF
04412  3113          DCA X+WR3
04413  2111          ISZ X+WR1
04414  6002  SOTL2,  IOF             /GET NEXT CHAR FROM OPTAB
04415  4776'         JMS ARGCDF
04416  6002          IOF
04417  4775'         JMS RWNCH
04420  6201          CDF
04421  1123          TAD X+CVCHAR    /IS IT .?
04422  1374          TAD (-".
04423  7450          SNA
04424  5515          JMP I X+RWLK2   /YES, NOT FOUND, RETURN
04425  1373          TAD (".-"@      /IS IT @?
04426  7450          SNA
04427  5214          JMP SOTL2       /YES, IGNORE
04430  1372          TAD ("@-240     /IS IT SPACE?
04431  7450          SNA
04432  5260          JMP SOTL4
04433  1371          TAD (240-",     /IS IT ,?
04434  7650          SNA CLA
04435  5263          JMP SOTL4+3
04436  1123          TAD X+CVCHAR    /NOT SPECIAL CHAR, CHECK FOR MATCH
04437  7041          CIA
04440  1513          TAD I X+WR3
04441  2113          ISZ X+WR3
04442  7650          SNA CLA
04443  5214          JMP SOTL2       /MATCH, CONTINUE
04444  6002  SOTL3,  IOF             /NO MATCH, SCAN TABLE FOR NEXT SPACE OR COMMA

/PROCESSOR MANAGEMENT AND INPUT/OUTPUT    PAL8-V10D NO DATE   PAGE 56-1

04445  4776'         JMS ARGCDF      /AND CONTINUE
04446  6002          IOF
04447  4775'         JMS RWNCH
04450  1123          TAD X+CVCHAR
04451  1370          TAD (-240
04452  7450          SNA
04453  5210          JMP SOTL1
04454  1371          TAD (240-",
04455  7650          SNA CLA
04456  5210          JMP SOTL1
04457  5246          JMP SOTL3+2
04460  1513  SOTL4,  TAD I X+WR3
04461  7640          SZA CLA
04462  5210          JMP SOTL1
04463  2115          ISZ X+RWLK2
04464  1111          TAD X+WR1
04465  5515          JMP I X+RWLK2

/PROCESSOR MANAGEMENT AND INPUT/OUTPUT    PAL8-V10D NO DATE   PAGE 57


             /READ PROCESSOR.
04466  6002  RDPRC,  IOF             /CONVERT NUMBER, IF ANY
04467  4767'         JMS RDNUM
04470  6002          IOF             /CONVERT OPERATOR, IF ANY
04471  4766'         JMS RDOPR
04472  1123          TAD X+CVCHAR    /CHECK TERMINATING CHAR
04473  1370          TAD (-240       /IS IT SPACE
04474  7450          SNA
04475  5312          JMP RDPSP
04476  1365          TAD (240-"-     /IS IT -?
04477  7450          SNA
04500  5323          JMP RDPMN
04501  1364          TAD ("--""      /IS IT "?
04502  7650          SNA CLA
04503  5763'         JMP RDPQT
04504  1123          TAD X+CVCHAR    /DUMP TERMINATOR TOKEN
04505  1362          TAD (1400
04506  6002          IOF
04507  4761'         JMS TOKE
04510  3135          DCA X+RDFLG
04511  5266          JMP RDPRC
04512  1122  RDPSP,  TAD X+RWSTO     /SPACE, CHECK FOR DONE
04513  1360          TAD (-110
04514  7640          SZA CLA
04515  5266          JMP RDPRC
04516  6002          IOF
04517  4761'         JMS TOKE
04520  2102          ISZ X+WRPC
04521  6571          SVC
04522  2665          RETURN
04523  2135  RDPMN,  ISZ X+RDFLG
04524  5266          JMP RDPRC

/PROCESSOR MANAGEMENT AND INPUT/OUTPUT    PAL8-V10D NO DATE   PAGE 58


             /ROUTINE TO PUT CHARACTERS INTO THE TOKEN LIST FOR STRING TOKENS.
             /USED BY RDPQT.
04525  0000  RPQTD,  0
04526  1325          TAD RPQTD
04527  3115          DCA X+RWLK2
04530  6005          PION
04531  1123          TAD X+CVCHAR    /SHIFT CHARACTER INTO BUFFER WORD (WR1)
04532  7417          LSR; 5
04533  0005
04534  7200          CLA
04535  1111          TAD X+WR1
04536  7413          SHL; 5
04537  0005
04540  3111          DCA X+WR1
04541  2110          ISZ X+WR0       /DUMP WR1 EVERY TWO CHARACTERS
04542  5515          JMP I X+RWLK2
04543  1111          TAD X+WR1
04544  6002          IOF
04545  4761'         JMS TOKE
04546  7344          CLL STA RAL
04547  3110          DCA X+WR0       /RESET MOD 2 COUNTER
04550  5515          JMP I X+RWLK2

/PROCESSOR MANAGEMENT AND INPUT/OUTPUT    PAL8-V10D NO DATE   PAGE 59


04560  7670
04561  4150
04562  1400
04563  6000
04564  0013
04565  7763
04566  4270
04567  4200
04570  7540
04571  7764
04572  0040
04573  7756
04574  7522
04575  3707
04576  3200
04577  0027
       4600          *4600
             /RANDOM FORMAT HANDLERS

             /  (
04600  1125  WRPLP,  TAD X+FMTRC
04601  3127          DCA X+FMTPC
04602  7240          STA
04603  3125          DCA X+FMTRC
04604  1122          TAD X+RWSTO
04605  3130          DCA X+FMTPO
04606  5777'         JMP WRPL3

             /  )
04607  2127  WRPRP,  ISZ X+FMTPC
04610  7410          SKP
04611  5777'         JMP WRPL3
04612  1130          TAD X+FMTPO
04613  3122          DCA X+RWSTO
04614  5777'         JMP WRPL3

04615  6002  WRPUA,  IOF
04616  4776'         JMS RWNCH
04617  1123          TAD X+CVCHAR
04620  0375          AND (277
04621  6002          IOF
04622  4774'         JMS WRIT1
04623  5777'         JMP WRPL3

04624  1373  WRPX,   TAD (240
04625  6002          IOF
04626  4774'         JMS WRIT1
04627  5777'         JMP WRPL3

/PROCESSOR MANAGEMENT AND INPUT/OUTPUT    PAL8-V10D NO DATE   PAGE 60


             /FORMAT HANDLERS FOR DATE AND TIME
             /DATE
04630  1372  WRPD,   TAD (260        /SET UP FORMAT STUFF FOR TYDEC
04631  3135          DCA X+FILL
04632  7105          CLL IAC RAL
04633  3136          DCA X+FORMN
04634  6002          IOF             /GET DATE
04635  4771'         JMS WRNVR
04636  6201          CDF
04637  1134          TAD X+WRVAR     /GET YEAR
04640  7427          MQL DVI; 564
04641  0564
04642  7521          MQL MQA
04643  1370          TAD (113
04644  3124          DCA X+CVNUM     /AND PUT IN CVNUM
04645  7407          DVI; 37         /GET DAY
04646  0037
04647  7001          IAC
04650  3116          DCA X+RWLK3     /AND SAVE IN RWLK3
04651  7501          MQA             /GET AND TYPE OUT MONTH
04652  7001          IAC
04653  3134          DCA X+WRVAR
04654  6002          IOF
04655  4767'         JMS TYDEC
04656  1366          TAD ("/         /TYPE SLASH
04657  6002          IOF
04660  4774'         JMS WRIT1
04661  1116          TAD X+RWLK3     /TYPE DAY
04662  3134          DCA X+WRVAR
04663  6002          IOF
04664  4767'         JMS TYDEC
04665  1366          TAD ("/         /TYPE SLASH
04666  6002          IOF
04667  4774'         JMS WRIT1
04670  1124          TAD X+CVNUM     /TYPE YEAR
04671  3134          DCA X+WRVAR
04672  6002          IOF
04673  4767'         JMS TYDEC
04674  5777'         JMP WRPL3

             /TIME
04675  1372  WRPT,   TAD (260        /SET UP FORMAT STUFF FOR TYDEC
04676  3135          DCA X+FILL
04677  7105          CLL IAC RAL
04700  3136          DCA X+FORMN
04701  6002          IOF             /GET LOW ORDER TIME
04702  4771'         JMS WRNVR
04703  1134          TAD X+WRVAR
04704  3124          DCA X+CVNUM
04705  6002          IOF
04706  4771'         JMS WRNVR       /GET HIGH ORDER TIME
04707  6201          CDF
04710  1124          TAD X+CVNUM     /GET HOUR, SAVE MINUTES, SECONDS

/PROCESSOR MANAGEMENT AND INPUT/OUTPUT    PAL8-V10D NO DATE   PAGE 60-1

04711  7421          MQL
04712  1134          TAD X+WRVAR
04713  7407          DVI; 7020
04714  7020
04715  3124          DCA X+CVNUM
04716  7501          MQA
04717  3134          DCA X+WRVAR
04720  6002          IOF             /TYPE HOUR
04721  4767'         JMS TYDEC
04722  1365          TAD (":         /TYPE :
04723  6002          IOF
04724  4774'         JMS WRIT1
04725  1124          TAD X+CVNUM     /GET MINUTES, SAVE SECONDS
04726  7427          MQL DVI; 74
04727  0074
04730  3124          DCA X+CVNUM
04731  7501          MQA
04732  3134          DCA X+WRVAR
04733  6002          IOF             /TYPE MINUTES
04734  4767'         JMS TYDEC
04735  1365          TAD (":         /TYPE :
04736  6002          IOF
04737  4774'         JMS WRIT1
04740  1124          TAD X+CVNUM
04741  3134          DCA X+WRVAR
04742  6002          IOF             /TYPE SECONDS
04743  4767'         JMS TYDEC
04744  5777'         JMP WRPL3

             />
04745  1122  WRGT,   TAD X+RWSTO
04746  7110          CLL RAR
04747  7105          CLL IAC RAL
04750  3122          DCA X+RWSTO
04751  5777'         JMP WRPL3

/PROCESSOR MANAGEMENT AND INPUT/OUTPUT    PAL8-V10D NO DATE   PAGE 61


04765  0272
04766  0257
04767  3635
04770  0113
04771  4000
04772  0260
04773  0240
04774  3615
04775  0277
04776  3707
04777  3252
       5000          *5000
             /READ OR WRITE DECTAPE
             /WAIT UNTIL DONE SKIP IF NO ERROR, RETURN STATUS B IN DTERR . MARK
             /TRACK, PARITY, AND TIMING ERRORS WILL BE RETRIED TWICE BEFORE RETURNING
             /THE ERROR CONDITION. IF MORE THAN ONE PROCESS MIGHT USE THE ROUTINE,
             /P/V SYNCHRONIZATION MUST BE USED.  CALLING SEQUENCE:
             /       CDF N           /N IS FIELD OF CALL
             /       CIF
             /       TAD NBLKS       /NUMBER OF BLOCKS TO TRANSFER IN AC
             /       JMS RWTAPE
             /       U0FM            /U=UNIT, F=FIELD, M=0=>READ, M=4=>WRITE
             /       DATA            /CORE ADDRESS
             /       (BLOCK          /POINTER TO STARTING BLOCK NUMBER

       7754  DTWC=7754       /WORD COUNT
       7755  DTCD=7755       /CURRENT ADDRESS
       6766  DTLA=DTCA DTXA
05000  0000  RWTAPE, 0
05001  7041          CIA
05002  3351          DCA DTNBS       /ARGUMENT PICKUP. FIRST NUMBER OF BLOCKS
05003  4342          JMS DTGET       /UNIT, FIELD, R/W BIT
05004  3346          DCA DTUF
05005  7240          STA             /CORE ADDRESS - 1
05006  4342          JMS DTGET
05007  3347          DCA DTCAD
05010  4342          JMS DTGET       /BLOCK NUMBER
05011  3350          DCA DTTAD
05012  1750          TAD I DTTAD
05013  3350          DCA DTTAD
05014  6214          RDF             /SET UP RETURN LINKAGE
05015  1377          TAD (CIF CDF
05016  3252          DCA RWTEX
05017  6201          CDF
05020  7346          CLL STA RTL     /INITIALIZE ERROR COUNTER
05021  3352          DCA DTECT
05022  1376  DTSTRT, TAD (DTBLK      /SET UP FOR SEARCH
05023  3775'         DCA DTCD        /PUT POINTER TO DTBLK IN CURRENT ADDRESS
05024  1374          TAD (DTSEI      /SET UP FOR ENTRY INTO SEARCH HANDLER
05025  3022          DCA MCOM
05026  6774          DTLB            /SET TO FIELD 0
05027  1373          TAD (DTSF
05030  3772'         DCA INTHDL

/PROCESSOR MANAGEMENT AND INPUT/OUTPUT    PAL8-V10D NO DATE   PAGE 61-1

05031  1346          TAD DTUF        /SET TO SEARCH NORMAL REVERSE
05032  0371          AND (7000
05033  1370          TAD (614
05034  6766          DTLA
05035  6571          SVC             /WAIT
05036  1200          P
05037  5705          DTSEM
05040  1031          TAD DTERR       /OPERATION TERMINATED, CHECK ERROR
05041  7450          SNA
05042  5251          JMP RWTEX-1     /NO ERROR, SKIP RETURN
05043  0367          AND (2300       /ERROR, IS IT MR,PAR, OR TIM?
05044  7650          SNA CLA
05045  5252          JMP RWTEX       /NO, NON-SKIP RETURN
05046  2352          ISZ DTECT       /YES, RETRY
05047  5222          JMP DTSTRT
05050  7410          SKP
05051  2200          ISZ RWTAPE
05052  7000  RWTEX,  NOP
05053  5600          JMP I RWTAPE

/PROCESSOR MANAGEMENT AND INPUT/OUTPUT    PAL8-V10D NO DATE   PAGE 62


             /INTERRUPT HANDLER FOR SEARCH PHASE
05054  6761  DTSEI,  DTRA            /IF MOTION IS FORWARD, DON'T TURN ON END ZONE
05055  0366          AND (400
05056  7650          SNA CLA
05057  5264          JMP .+5
05060  6772          DTRB            /IF END ZONE, TURN AROUND (NOTE THAT MOTION
05061  7006          RTL             /BIT IS ZERO IF END ZONE)
05062  7710          SPA  CLA
05063  5313          JMP DTURN0
05064  4334          JMS DTCER       /CHECK FOR ERROR
05065  6761          DTRA            /GET COMPLEMENT OF MOTION BIT, PUT IN LINK
05066  7046          CMA RTL
05067  7006          RTL
05070  7620          SNL CLA         /IF REVERSE, SET AC TO -2
05071  7344          CLL STA RAL     /COMP. OF MOTION BIT IS IN L, DO A DTBLK-DTTADT
05072  1350          TAD DTTAD       /IF FORWARD OR A DTBLK-DTTAD+2 IF REVERSE.
05073  7041          CIA             /L=1 => CONTINUE, L=0&AC=0 => FOUND, AND
05074  1342          TAD DTBLK       /L=0&AC<>0 => TURN.
05075  7660          SZA SNL CLA     /SKIP IF NOT TURN
05076  5314          JMP DTURN
05077  7430          SZL             /SKIP IF FOUND
05100  5315          JMP DTCNT       /NOT FOUND, CONTINUE
05101  1346          TAD DTUF        /FOUND, SET UP FOR READ/WRITE.
05102  6774          DTLB            /LOAD FIELD
05103  1347          TAD DTCAD       /SET CURRENT ADDRESS FOR DATA TRANSFER
05104  3775'         DCA DTCD
05105  1365          TAD (DTRWI      /SET FOR ENTRY INTO R/W INTERRUPT HANDLER
05106  3022          DCA MCOM
05107  1346          TAD DTUF        /SET UP AC TO SET STATUS A FOR READ OR WRITE,
05110  0364          AND (4          /AND CANCEL SEARCH
05111  7106          CLL RTL
05112  1363          TAD (20+10-600
05113  1372  DTURN0, TAD (200
05114  1366  DTURN,  TAD (400
05115  6764  DTCNT,  DTXA
05116  1362          TAD (-200       /SET WORD COUNT TO -200
05117  3761'         DCA DTWC
05120  5760'         JMP DTRET

             /INTERRUPT HANDLER FOR READ/WRITE
05121  4334  DTRWI,  JMS DTCER       /CHECK FOR ERROR
05122  2351          ISZ DTNBS       /COUNT BLOCKS
05123  5315          JMP DTCNT
05124  3031  DTCMP,  DCA DTERR       /OPERATION FINISHED
05125  6761          DTRA            /STOP TAPE
05126  0357          AND (204
05127  6764          DTXA
05130  1371          TAD (NOP
05131  3772'         DCA INTHDL
05132  6574          TSVC
05133  5760'         JMP DTRET

05134  0000  DTCER,  0               /IF NO ERROR, RETURN, ELSE GO TO DTCMP

/PROCESSOR MANAGEMENT AND INPUT/OUTPUT    PAL8-V10D NO DATE   PAGE 62-1

05135  6772          DTRB
05136  7700          SMA CLA
05137  5734          JMP I DTCER
05140  6772          DTRB
05141  5324          JMP DTCMP

             DTBLK,
05142  0000  DTGET,  0               /PICK UP NEXT ARGUMENT
05143  1600          TAD I RWTAPE
05144  2200          ISZ RWTAPE
05145  5742          JMP I DTGET

05146  0000  DTUF,   0
05147  0000  DTCAD,  0
05150  0000  DTTAD,  0
05151  0000  DTNBS,  0
05152  0000  DTECT,  0

/PROCESSOR MANAGEMENT AND INPUT/OUTPUT    PAL8-V10D NO DATE   PAGE 63


05157  0204
05160  0210
05161  7754
05162  7600
05163  7230
05164  0004
05165  5121
05166  0400
05167  2300
05170  0614
05171  7000
05172  0200
05173  6771
05174  5054
05175  7755
05176  5142
05177  6203
       5200          *5200
             /611 SCOPE TYPE OUT ROUTINE
05200  0000  TYPE4,  0
05201  6005          PION
05202  0377          AND (377        /CHOP OFF HIGH 4 BITS OF AC
05203  7421          MQL             /AND SAVE CHARACTER IN MQ
05204  1254          TAD T4WR        /SAVE DF
05205  6214          RDF
05206  3342          DCA TY4EX
05207  7501          MQA             /IS 240<=CHAR<=337?
05210  1376          TAD (-240
05211  7510          SPA
05212  5216          JMP .+4
05213  1375          TAD (240-340
05214  7510          SPA
05215  5254          JMP T4WR        /YES, WRITE CHAR ON SCOPE
05216  7701          CLA MQA         /CR?
05217  1374          TAD (-215
05220  7450          SNA
05221  3032          DCA HPOS        /YES, ZERO HPOS
05222  1373          TAD (215-212    /LF?
05223  7440          SZA
05224  5234          JMP .+10
05225  1033          TAD VPOS        /YES, INCREMENT VPOS MOD 33
05226  7001          IAC
05227  7427          MQL DVI
05230  0041  VTVAL,  41
05231  7450          SNA
05232  5245          JMP T4WAIT      /IF RESULT WAS 0, WAIT TO CONTINUE
05233  3033          DCA VPOS
05234  1372          TAD (212-214    /FORM FEED?
05235  7640          SZA CLA
05236  5600          JMP I TYPE4     /NO, IGNORE CHARACTER
05237  3032  TY4FF,  DCA HPOS        /YES, RESET POINTERS, ERASE SCOPE
05240  3033          DCA VPOS
05241  6051          SCER

/PROCESSOR MANAGEMENT AND INPUT/OUTPUT    PAL8-V10D NO DATE   PAGE 63-1

05242  6061          SCSE
05243  5600          JMP I TYPE4
05244  5242          JMP .-2

05245  6002  T4WAIT, IOF             /WAIT FOR SOMETHING. IF ^O IS RETURNED IN THE AC,
05246  4434          JMS I SCWAIT    /DONT ERASE SCOPE
05247  1371          TAD (-217
05250  7640          SZA CLA
05251  5240          JMP TY4FF+1
05252  3033          DCA VPOS
05253  5600          JMP I TYPE4

/PROCESSOR MANAGEMENT AND INPUT/OUTPUT    PAL8-V10D NO DATE   PAGE 64


05254  6201  T4WR,   CDF
05255  7701          CLA MQA         /SET UP TY4P TO POINT TO FIRST ENTRY
05256  0370          AND (77         /IN TABLE
05257  7425          MQL MUY; 3
05260  0003
05261  7501          MQA
05262  1367          TAD (T4TAB
05263  3351          DCA TY4P
05264  1366          TAD (-7         /INITIALIZE MOD 7 COUNTER
05265  3347          DCA T4CT7
05266  7346          CLL STA RTL     /INITIALIZE MOD 3 COUNTER
05267  3346          DCA T4CT3
05270  1032          TAD HPOS        /INITIALIZE HSCAN AND X BUFFER
05271  7106          CLL RTL; RTL
05272  7006
05273  6052          SCLX
05274  3344          DCA HSCAN
05275  1033          TAD VPOS        /INITIALIZE YSCAN, AND SET UP TO ENTER LOOP
05276  7040          CMA
05277  1230          TAD VTVAL       /REVERSE DIRECTION OF VPOS
05300  7425          MQL MUY; 37
05301  0037
05302  7501          MQA
05303  3345          DCA VSCAN
05304  7001          IAC
05305  7410          SKP
05306  7421  TY4L1,  MQL             /SAVE Y COORD. IN MQ, INITIALIZE THE MOD 12
05307  1365          TAD (-14        /COUNTER, GET THE NEXT WORD FROM THE TABLE ,AND
05310  3350          DCA T4CT12
05311  1751          TAD I TY4P      /PUT IT IN THE MQ, RESTORE THE Y COORD.
05312  2351          ISZ TY4P
05313  7521          MQL MQA
05314  7413  TY4L2,  SHL; 0          /GET NEXT BIT FROM TABLE
05315  0000
05316  7012          RTR
05317  7005          IAC RAL         /UPDATE THE Y COORD.
05320  7430          SZL             /IF BIT IS ONE, PLOT POINT
05321  6066          SCLIY
05322  2347          ISZ T4CT7       /DONE WITH A VERTICAL LINE?
05323  5334          JMP TY4L3
05324  7200          CLA             /YES, UPDATE HSCAN AND LOAD X BUFFER
05325  1344          TAD HSCAN
05326  1364          TAD (2
05327  6052          SCLX
05330  3344          DCA HSCAN
05331  1366          TAD (-7         /RESET MOD 7 COUNTER
05332  3347          DCA T4CT7
05333  1345          TAD VSCAN       /RESET Y COORD.
05334  2350  TY4L3,  ISZ T4CT12      /DONE WITH A WORD?/
05335  5314          JMP TY4L2
05336  2346          ISZ T4CT3       /YES, DONE WITH CHARACTER?
05337  5306          JMP TY4L1
05340  2032          ISZ HPOS        /YES, SPACE

/PROCESSOR MANAGEMENT AND INPUT/OUTPUT    PAL8-V10D NO DATE   PAGE 64-1

05341  7200          CLA
05342  7000  TY4EX,  NOP
05343  5600          JMP I TYPE4

05344  0000  HSCAN,  0
05345  0000  VSCAN,  0
05346  0000  T4CT3,  0
05347  0000  T4CT7,  0
05350  0000  T4CT12, 0
05351  0000  TY4P,   0

/PROCESSOR MANAGEMENT AND INPUT/OUTPUT    PAL8-V10D NO DATE   PAGE 65


05364  0002
05365  7764
05366  7771
05367  5400
05370  0077
05371  7561
05372  7776
05373  0003
05374  7563
05375  7700
05376  7540
05377  0377
       5400          *5400
05400  1614  T4TAB,  1614; 2526; 5316        /@
05401  2526
05402  5316
05403  7604          7604; 2104; 4574        /A
05404  2104
05405  4574
05406  7762          7762; 1446; 2266        /B
05407  1446
05410  2266
05411  3720          3720; 1406; 0242        /C
05412  1406
05413  0242
05414  7760          7760; 1406; 0276        /D
05415  1406
05416  0276
05417  7762          7762; 1446; 0301        /E
05420  1446
05421  0301
05422  7742          7742; 1044; 0201        /F
05423  1044
05424  0201
05425  3720          3720; 1406; 4362        /G
05426  1406
05427  4362
05430  7742          7742; 0040; 2177        /H
05431  0040
05432  2177
05433  0020          0020; 1776; 0200        /I
05434  1776
05435  0200
05436  2020          2020; 0402; 0077        /J
05437  0402
05440  0077
05441  7742          7742; 0121; 0501        /K
05442  0121
05443  0501
05444  7760          7760; 0402; 0100        /L
05445  0402
05446  0100
05447  7740          7740; 2060; 0577        /M

/PROCESSOR MANAGEMENT AND INPUT/OUTPUT    PAL8-V10D NO DATE   PAGE 65-1

05450  2060
05451  0577
05452  7740          7740; 2020; 2177        /N
05453  2020
05454  2177
05455  7760          7760; 1406; 0377        /O
05456  1406
05457  0377
05460  7742          7742; 1044; 2206        /P
05461  1044
05462  2206
05463  3720          3720; 1505; 0336        /Q
05464  1505
05465  0336
05466  7742          7742; 1145; 2306        /R
05467  1145
05470  2306
05471  2120          2120; 5446; 4242        /S
05472  5446
05473  4242
05474  0040          0040; 1774; 0201        /T
05475  1774
05476  0201
05477  3760          3760; 0402; 0077        /U
05500  0402
05501  0077
05502  0346          0346; 0600; 6007        /V
05503  0600
05504  6007
05505  7750          7750; 0101; 0177        /W
05506  0101
05507  0177
05510  6144          6144; 4040; 5143        /X
05511  4040
05512  5143
05513  0140          0140; 4740; 1003        /Y
05514  4740
05515  1003
05516  6064          6064; 1446; 1303        /Z
05517  1446
05520  1303
05521  0036          0036; 7406; 0200        /[
05522  7406
05523  0200
05524  0140          0140; 4040; 4140        /\
05525  4040
05526  4140
05527  0020          0020; 1407; 7600        /]
05530  1407
05531  7600
05532  0200          0200; 6774; 1404        /^
05533  6774
05534  1404
05535  0406          0406; 4040; 2010        /_
05536  4040

/PROCESSOR MANAGEMENT AND INPUT/OUTPUT    PAL8-V10D NO DATE   PAGE 65-2

05537  2010
05540  0000          0000;0000 ; 0000        /
05541  0000
05542  0000
05543  0000          0000; 0574; 0000        /!
05544  0574
05545  0000
05546  0000          0000; 7000; 1600        /"
05547  7000
05550  1600
05551  1236          1236; 7123; 7624        /#
05552  7123
05553  7624
05554  2212          2212; 2775; 2422        /DS
05555  2775
05556  2422
05557  6144          6144; 3043;1143 /%
05560  3043
05561  1143
05562  3322          3322; 1531; 0120        /&
05563  1531
05564  0120
05565  0000          0000; 0034; 0000        /'
05566  0034
05567  0000
05570  0006          0006; 4212; 0200        /(
05571  4212
05572  0200
05573  0020          0020; 1210; 7000        /)
05574  1210
05575  7000
05576  2506          2506; 4370; 7052        /*
05577  4370
05600  7052
05601  0402          0402; 0370; 2010        /+
05602  0370
05603  2010
05604  0026          0026; 0340; 0000        /,
05605  0340
05606  0000
05607  0402          0402; 0040; 2010        /-
05610  0040
05611  2010
05612  0030          0030; 0600; 0000        /.
05613  0600
05614  0000
05615  6004          6004; 0040; 1003        //
05616  0040
05617  1003
05620  3720          3720; 1405; 7400        /0
05621  1405
05622  7400
05623  0020          0020; 2776; 0000        /1
05624  2776
05625  0000

/PROCESSOR MANAGEMENT AND INPUT/OUTPUT    PAL8-V10D NO DATE   PAGE 65-3

05626  7122          7122; 1446; 2306        /2
05627  1446
05630  2306
05631  2120          2120; 1446; 2266        /3
05632  1446
05633  2266
05634  1404          1404; 4113; 7620        /4
05635  4113
05636  7620
05637  2360          2360; 5426; 1271        /5
05640  5426
05641  1271
05642  3622          3622; 2446; 2260        /6
05643  2446
05644  2260
05645  6044          6044; 1044; 1203        /7
05646  1044
05647  1203
05650  3322          3322; 1446; 2266        /8
05651  1446
05652  2266
05653  0322          0322; 1445; 2236        /9
05654  1445
05655  2236
05656  0014          0014; 6330; 0000        /:
05657  6330
05660  0000
05661  0026          0026; 3354; 0000        /;
05662  3354
05663  0000
05664  0404          0404; 4212; 0200        /<
05665  4212
05666  0200
05667  1204          1204; 4120; 5024        /=
05670  4120
05671  5024
05672  4050          4050; 2120; 2000        />
05673  2120
05674  2000
05675  0100          0100; 1504; 2206        /?
05676  1504
05677  2206

/PROCESSOR MANAGEMENT AND INPUT/OUTPUT    PAL8-V10D NO DATE   PAGE 66


             /HANDLER FOR END OF DECTAPE OPERATION
05700  6574  DTAHDL, TSVC    /CLEAR FLAG
05701  1377          TAD (DTSEM      /V ON THE SEMAPHORE
05702  3024          DCA SVCARG
05703  4776'         JMS V
05704  5775'         JMP TC
05705  0000  DTSEM,  0; 0            /SEMAPHORE FOR DECTAPE OPERATIONS
05706  0000
05707  0000  TC1SEM, 0; 0            /SEMAPHORE FOR SEIZING THE TAPE CONTROLLER
05710  0000

             /WAIT FOR POS FIX TO BE PRESSED
05711  0000  SCWPF,  0
05712  6005          PION
05713  7330          CLA STL RAR
05714  6365          ESR 5
05715  7200          CLA
05716  0400          AND I 0
05717  6362          ESR 2
05720  0374          AND (100
05721  7650          SNA CLA
05722  5316          JMP .-4
05723  5711          JMP I SCWPF

/PROCESSOR MANAGEMENT AND INPUT/OUTPUT    PAL8-V10D NO DATE   PAGE 67


05774  0100
05775  0400
05776  1226
05777  5705
       6000          *6000
             /READ PROCESSOR, HANDLER FOR QUOTE. FIRST, SCAN LINT TO DETERMINE
             /HOW MANY WORDS TO DUMP.
06000  1122  RDPQT,  TAD X+RWSTO     /SAVE CURRENT STRING OFFSET
06001  3111          DCA X+WR1
06002  3112          DCA X+WR2       /SET UP CHARACTER COUNT
06003  3113          DCA X+WR3       /SET UP SPACE COUNT
06004  6002  RPQTL1, IOF             /GET NEXT CHARACTER
06005  4777'         JMS RWNCH
06006  1123          TAD X+CVCHAR    /IS IT SPACE?
06007  1376          TAD (-240
06010  7450          SNA
06011  5222          JMP RPQTS
06012  1375          TAD (240-""     /IS IT QUOTE?
06013  7650          SNA CLA
06014  5231          JMP RPQTQ
06015  1112          TAD X+WR2       /NOT SPACE OR QUOTE, ADD SPACE COUNT TO
06016  1113          TAD X+WR3       /CHARACTER COUNT PLUS 1, AND CONTINUE
06017  7001          IAC
06020  3112          DCA X+WR2
06021  5203          JMP RPQTL1-1
06022  1122  RPQTS,  TAD X+RWSTO     /SPACE. IF NOT END OF LINE, UPDATE SPACE
06023  1374          TAD (-110       /COUNT AND CONTINUE
06024  7650          SNA CLA
06025  5230          JMP RPQTQ-1
06026  2113          ISZ X+WR3
06027  5204          JMP RPQTL1
06030  7240          STA
06031  1122  RPQTQ,  TAD X+RWSTO     /COMPUTE STRING OFFSET FOR RETURN TO RDPRC,
06032  3113          DCA X+WR3       /SAVE IN WR3
06033  1111          TAD X+WR1       /RESET STRING OFFSET
06034  3122          DCA X+RWSTO
06035  1112          TAD X+WR2       /DUMP STRING TOKEN
06036  7111          CLL IAC RAR
06037  1373          TAD (2000
06040  6002          IOF
06041  4772'         JMS TOKE
06042  1112          TAD X+WR2       /NEGATE CHARACTER COUNT FOR LOOP
06043  7450          SNA             /IF CHARACTER COUNT IS ZERO, WE ARE DONE
06044  5263          JMP RPQTL3
06045  7041          CIA
06046  3112          DCA X+WR2
06047  7344          CLL STA RAL     /INIT MOD 2 COUNTER FOR RPQTD
06050  3110          DCA X+WR0
06051  6002  RPQTL2, IOF             /GET NEXT CHARACTER
06052  4777'         JMS RWNCH
06053  6002          IOF             /DUMP IT
06054  4771'         JMS RPQTD
06055  2112          ISZ X+WR2       /DONE

/PROCESSOR MANAGEMENT AND INPUT/OUTPUT    PAL8-V10D NO DATE   PAGE 67-1

06056  5251          JMP RPQTL2
06057  1370          TAD (240        /YES, FORCE RPQTD TO DUMP LAST CHAR
06060  3123          DCA X+CVCHAR
06061  6002          IOF
06062  4771'         JMS RPQTD
06063  1113  RPQTL3, TAD X+WR3       /RESET STRING OFFSET FOR RDPRC
06064  3122          DCA X+RWSTO
06065  5767'         JMP RDPRC

/PROCESSOR MANAGEMENT AND INPUT/OUTPUT    PAL8-V10D NO DATE   PAGE 68


             /WRITE HANDLER FOR A
06066  6002  WRPA,   IOF
06067  4766'         JMS WRNVR       /GET 2 CHARACTERS TO BE PRINTED
06070  6201          CDF
06071  1365          TAD (WRPAL2
06072  3114          DCA X+RWLK1
06073  1134          TAD X+WRVAR     /WRITE FIRST
06074  7417          LSR; 5
06075  0005
06076  5764'         JMP RWNCHL
06077  1123  WRPAL2, TAD X+CVCHAR
06100  6002          IOF
06101  4763'         JMS WRIT1
06102  1362          TAD (WRPAL1
06103  3114          DCA X+RWLK1
06104  1134          TAD X+WRVAR
06105  5764'         JMP RWNCHL
06106  1123  WRPAL1, TAD X+CVCHAR
06107  6002          IOF
06110  4763'         JMS WRIT1
06111  5761'         JMP WRPL3

             /WRITE HANDLER FOR L
06112  6002  WRPL,   IOF
06113  4777'         JMS RWNCH
06114  1123          TAD X+CVCHAR
06115  3135          DCA X+FILL
06116  5761'         JMP WRPL3

             /WRITE HANDLER FOR <
06117  3122  WRPLT,  DCA X+RWSTO
06120  5761'         JMP WRPL3

             /WRITE HANDLER FOR V
06121  6002  WRPV,   IOF
06122  4766'         JMS WRNVR
06123  6201          CDF
06124  5761'         JMP WRPL3

             /WRITE HANDLER FOR $
06125  1360  WRPDS,  TAD (33 /WRITE ALT MODE
06126  6002          IOF
06127  4763'         JMS WRIT1
06130  5761'         JMP WRPL3

/PROCESSOR MANAGEMENT AND INPUT/OUTPUT    PAL8-V10D NO DATE   PAGE 69


06160  0033
06161  3252
06162  6106
06163  3615
06164  3725
06165  6077
06166  4000
06167  4466
06170  0240
06171  4525
06172  4150
06173  2000
06174  7670
06175  7776
06176  7540
06177  3707
       6200          *6200
             /SIMPLE DUBUGGING SYSTEM. ENTERED FROM CLKHDL EVERY CLOCK TICK.
06200  0000  DEBUG,  0
06201  6411          TL2 1           /IF THE BUTTON HAS BEEN PUSHED, EXECUTE
06202  5211          JMP DBGL1       /A COMMAND
06203  6416          TL2 6
06204  1377          TAD (DBGTAB
06205  3216          DCA DBGEX
06206  1616          TAD I DBGEX
06207  3216          DCA DBGEX
06210  4616          JMS I DBGEX
06211  4275  DBGL1,  JMS DBGCDF      /FETCH FROM POINTER
06212  1617          TAD I DBGP
06213  3040          DCA MQD
06214  6201  DBGD1,  CDF
06215  5600          JMP I DEBUG
06216  0000  DBGEX,  0
06217  0000  DBGP,   0
06220  6232  DBGTAB, DBNOP; DBLA; DBDEP; DBDPI; DBLF; DBINC; DBDEC; DBIDA; DBNOP
06221  6234
06222  6240
06223  6245
06224  6251
06225  6257
06226  6263
06227  6270
06230  6232
06231  6232          DBNOP

06232  0000  DBNOP,  0
06233  5632          JMP I DBNOP

06234  0000  DBLA,   0
06235  7604          LAS
06236  3217          DCA DBGP
06237  5634          JMP I DBLA


/PROCESSOR MANAGEMENT AND INPUT/OUTPUT    PAL8-V10D NO DATE   PAGE 69-1

06240  0000  DBDEP,  0
06241  4275          JMS DBGCDF
06242  7604          LAS
06243  3617          DCA I DBGP
06244  5640          JMP I DBDEP

06245  0000  DBDPI,  0
06246  4240          JMS DBDEP
06247  4257          JMS DBINC
06250  5645          JMP I DBDPI

06251  0000  DBLF,   0
06252  7604          LAS
06253  0376          AND (30
06254  1214          TAD DBGD1
06255  3276          DCA DBGCDF+1
06256  5651          JMP I DBLF

06257  0000  DBINC,  0
06260  2217          ISZ DBGP
06261  7000          NOP
06262  5657          JMP I DBINC

06263  0000  DBDEC,  0
06264  7240          STA
06265  1217          TAD DBGP
06266  3217          DCA DBGP
06267  5663          JMP I DBDEC

06270  0000  DBIDA,  0
06271  4275          JMS DBGCDF
06272  1617          TAD I DBGP
06273  3217          DCA DBGP
06274  5670          JMP I DBIDA

06275  0000  DBGCDF, 0
06276  6201          CDF
06277  5675          JMP I DBGCDF

/PROCESSOR MANAGEMENT AND INPUT/OUTPUT    PAL8-V10D NO DATE   PAGE 70


                     IFDEF KPMIO <XLIST>

/RADAR SYSTEM                             PAL8-V10D NO DATE   PAGE 71

             /RADAR SYSTEM

             /SYMBOLS FOR RADAR
       0002  EXABLE=2        /# OF NON-EXACUTABLE OPERATORS AT THE BEGINNING OF OPRTAB
       0400  NUMT=400        /SYMBOLS FOR TOKEN TYPES
       1000  OPRT=1000
       1400  TRMT=1400
       2000  STRT=2000

             /PAGE 0, FIELD 1
06376  0030
06377  6220
       0001          FIELD 1
       0020          *20
10020  0000  TP,     0       /POINTER INTO TOKEN BUFFER
10021  0001  IN,     1       /INPUT DEVICE NUMBER
10022  0001  OUT,    1       /OUTPUT DEVICE NUMBER
10023  0000  VAR,    0       /VARIABLE FOR PRINT
10024  0000  VRCT,   0       /REPEAT COUNT FOR PRINT
10025  0000  PNUM,   0       /NUMBER BEFORE COMMAND PUT HERE
10026  0000  CNUM,   0       /COMMAND NUMBER
10027  0000  DATE,   0       /TODAY'S DATE: 372(YEAR-75)+31(MONTH-1)+DAY-1
10030  0000  PAGEN,  0       /PAGE NUMBER
10031  0121  ICW1,   0121
10032  6240  ICW2,   6240
10033  0000  RNORM,  0       /POINTER TO RANGE NORMALIZATION ROUTINE
10034  0000  RNVAL,  0       /VALUE RETURNED BY RNORM
10035  0000  NOIZL,  0       /NOISE LEVEL
10036  0000  NOIZT,  0       /NOISE THRESHOLD
10037  0000  ENDUMP, 0
10040  0000  ENPLOT, 0
10041  0000  PT,     0
10042  0000  AZ,     0
10043  0000  EL,     0
10044  0000  OLDAZ,  0
10045  0000  AZHI,   0
10046  0000  AZLOW,  0
10047  0000  ELNUM,  0
10050  0000  AZNUM,  0
10051  0000  TRAY,   0
10052  0000  PELD,   0
10053  0000  DEL66,  0       /WR66 CONTROL STUFF
10054  4000  EVH4,   4000
10055  0200  EL4AV,  200
10056  0000  OLDEL,  0
10057  0000  CMAX,   0
10060  0000  RMAX,   0
10061  0000  ESRW1,  0
10062  0000  PLOOP,  0
10063  0000  ERRCT,  0
10064  0004  DIDEV,  4       /OUTPUT DEVICE FOR DI INFO

/RADAR SYSTEM                             PAL8-V10D NO DATE   PAGE 72


       0200          *200
             /RADAR MAIN PROGRAM AND COMMAND LOOP
10200  4777' RADAR,  JMS INIT
10201  4776'         JMS GDATE       /GET DATE
10202  4775'         JMS GTIME       /GET TIME
10203  4774'         JMS PPAPER      /ASK OPERATOR TO POSITION PAPER
10204  4773'         JMS EXWR66

             /COMMAND LOOP
10205  4772' CMODE,  JMS CKFORM      /IMPLEMENT PAGINATION
10206  4771'         JMS PRINT       /PRINT "OK, "
10207  0312          FMT01
10210  4770'         JMS TOKES       /READ LINE
10211  7001          IAC             /SET CNUM
10212  3026          DCA CNUM
10213  3062          DCA PLOOP
10214  7001  CLOOP,  IAC             /COMMAND LOOP.
10215  3025          DCA PNUM
10216  1420          TAD I TP        /GET TOKEN TYPE
10217  7450          SNA
10220  5205          JMP CMODE
10221  0367          AND (7400
10222  1367          TAD (-NUMT      /IS IT A NUMBER
10223  7450          SNA
10224  5247          JMP CMDN
10225  1367          TAD (NUMT-OPRT  /IS IT AN OPERATOR
10226  7450          SNA
10227  5254          JMP CMDO
10230  1367          TAD (OPRT-TRMT  /IS IT A TERMINATOR
10231  7650          SNA CLA
10232  5271          JMP CMDT
10233  1420          TAD I TP        /STRING, IGNORE
10234  0366          AND (377
10235  1020          TAD TP
10236  7001          IAC
10237  3020          DCA TP
10240  5214          JMP CLOOP
10241  7200  CMDER,  CLA             /SYNTAX ERROR, PRINT MESSAGE
10242  1026          TAD CNUM
10243  3023          DCA VAR
10244  4771'         JMS PRINT
10245  0317          FMT02
10246  5205          JMP CMODE

             /NUMBER
10247  2020  CMDN,   ISZ TP
10250  1420          TAD I TP
10251  2020          ISZ TP
10252  3025          DCA PNUM
10253  5216          JMP CLOOP+2

             /OPERATOR
10254  1420  CMDO,   TAD I TP        /GET INDEX INTO TABLE

/RADAR SYSTEM                             PAL8-V10D NO DATE   PAGE 72-1

10255  2020          ISZ TP
10256  0366          AND (377
10257  1365          TAD (-EXABLE-1  /IS IT EXECUTABLE
10260  7510          SPA
10261  5241          JMP CMDER
10262  1364          TAD (OPREX
10263  3270          DCA CEXAD
10264  1670          TAD I CEXAD
10265  3270  CMDOL,  DCA CEXAD
10266  4670          JMS I CEXAD
10267  5214          JMP CLOOP
10270  0000  CEXAD,  0

             /TERMINATOR
10271  1420  CMDT,   TAD I TP        /GET TERMINATOR
10272  2020          ISZ TP
10273  0366          AND (377
10274  7041          CIA
10275  3270          DCA CEXAD
10276  1363          TAD (TERTAB-1   /SEARCH TERTAB
10277  3010          DCA 10
10300  1410  CMDTL,  TAD I 10
10301  7450          SNA
10302  5241          JMP CMDER
10303  1270          TAD CEXAD
10304  7650          SNA CLA
10305  5310          JMP .+3
10306  2010          ISZ 10
10307  5300          JMP CMDTL
10310  1410          TAD I 10
10311  5265          JMP CMDOL

10312  5747  FMT01,  TEXT */'OK, ',*
10313  1713
10314  5440
10315  4754
10316  0000
10317  4705  FMT02,  TEXT /'ERROR, COMMAND #',I2,/
10320  2222
10321  1722
10322  5440
10323  0317
10324  1515
10325  0116
10326  0440
10327  4347
10330  5411
10331  6254
10332  0000

/RADAR SYSTEM                             PAL8-V10D NO DATE   PAGE 73


             /RANDOM SHORT EX ROUTINES
10333  0000  EXSCL,  0       /SEMI-COLON
10334  2026          ISZ CNUM
10335  5733          JMP I EXSCL

10336  0000  EXSC,   0       /SCOPE
10337  4762'         JMS SGRAB
10340  7107          CLL IAC RTL
10341  3022          DCA OUT
10342  5736          JMP I EXSC

10343  0000  EXTTY,  0       /TTY
10344  1022          TAD OUT
10345  1361          TAD (-4
10346  7650          SNA CLA
10347  4760'         JMS SCREL
10350  7201          CLA IAC
10351  3022          DCA OUT
10352  5743          JMP I EXTTY

/RADAR SYSTEM                             PAL8-V10D NO DATE   PAGE 74


10360  5102
10361  7774
10362  5047
10363  6177
10364  6271
10365  7775
10366  0377
10367  7400
10370  0426
10371  0400
10372  0615
10373  1032
10374  0541
10375  0500
10376  0450
10377  2600
       0400          *400
             /ROUTINE TO WRITE VAR, AND/OR ANY ALPHA-NUMERIC STRING. WORD
             /FOLLOWING JMS POINTS TO FORMAT
10400  0000  PRINT,  0
10401  1600          TAD I PRINT
10402  2200          ISZ PRINT
10403  6571          SVC
10404  2600          CALL
10405  0411          PRLST
10406  7200          CLA
10407  7200          CLA
10410  5600          JMP I PRINT
10411  3122  PRLST,  WRITE
10412  0001          01
10413  0010          10; OUT
10414  0022
10415  0010          10; IN
10416  0021
10417  0015          15; 0
10420  0000
10421  0010          10; VAR
10422  0023
10423  0010          10; VRCT
10424  0024
10425  4000          4000

             /GET NEXT LINE AND RESET TP
10426  0000  TOKES,  0
10427  6571          SVC
10430  2600          CALL
10431  0436          TKLST
10432  7402          HLT
10433  1247          TAD PTKBUF
10434  3020          DCA TP
10435  5626          JMP I TOKES
10436  3054  TKLST,  READ
10437  0001          01

/RADAR SYSTEM                             PAL8-V10D NO DATE   PAGE 74-1

10440  0010          10; IN
10441  0021
10442  0010          10; OUT
10443  0022
10444  0010          10; OPRTAB
10445  6211
10446  0010          10
10447  6621  PTKBUF, TKBUF

/RADAR SYSTEM                             PAL8-V10D NO DATE   PAGE 75


             /GET DATE
       0113          BASYR=113       /BASE YEAR IS '75
10450  0000  GDATE,  0
10451  4200          JMS PRINT       /ASK FOR DATE
10452  0472          GDFMT
10453  4226          JMS TOKES       /READ DATE
10454  1777'         TAD TKBUF+7     /YEAR
10455  1376          TAD (-BASYR     /YEAR-75
10456  7425          MQL MUY; 14     /12*(YEAR-75)
10457  0014
10460  7701          CLA MQA
10461  1775'         TAD TKBUF+1
10462  1374          TAD (-1         /12*(YEAR-75)+MONTH-1
10463  7425          MQL MUY; 37     /372*(YEAR-75)+31*(MONTH-1)
10464  0037
10465  7701          CLA MQA
10466  1773'         TAD TKBUF+4     /ADD IN DAY-1
10467  1374          TAD (-1
10470  3027          DCA DATE
10471  5650          JMP I GDATE
10472  4704  GDFMT,  TEXT /'DATE?  ',/
10473  0124
10474  0577
10475  4040
10476  4754
10477  0000

             /GET TIME AND START CLOCK
10500  0000  GTIME,  0
10501  4200          JMS PRINT       /ASK FOR TIME
10502  0533          GTFMT
10503  4226          JMS TOKES
10504  1775'         TAD TKBUF+1     /GET TIMER VALUE
10505  7425          MQL MUY; 74
10506  0074
10507  7501          MQA
10510  1773'         TAD TKBUF+4
10511  7425          MQL MUY; 74
10512  0074
10513  7100          CLL
10514  7521          MQL MQA
10515  1777'         TAD TKBUF+7
10516  6201          CDF             /PUT VALUE IN TIMER
10517  3772          DCA I (CLKL
10520  7501          MQA
10521  7430          SZL
10522  7001          IAC
10523  3771          DCA I (CLKH
10524  6372          CLK 2           /ENABLE TIMER TO THE INTERRUPT SYSTEM
10525  6562          RDMSK
10526  0370          AND (7776
10527  6561          LDMSK
10530  3767          DCA I (IMASK

/RADAR SYSTEM                             PAL8-V10D NO DATE   PAGE 75-1

10531  6211          CDF 10
10532  5700          JMP I GTIME
10533  4724  GTFMT,  TEXT /'TIME?  ',/
10534  1115
10535  0577
10536  4040
10537  4754
10540  0000

/RADAR SYSTEM                             PAL8-V10D NO DATE   PAGE 76


             /ASK OPERATOR TO POSITION PAPER, AND SET UP LFCT1
10541  0000  PPAPER, 0
10542  4200          JMS PRINT
10543  0600          PPFMT
10544  4226          JMS TOKES
10545  6642          SXM 40
10546  1366          TAD (7
10547  3035          DCA LFCT1
10550  6602          SXM
10551  3030          DCA PAGEN
10552  5741          JMP I PPAPER

10566  0007
10567  0023
10570  7776
10571  1056
10572  1055
10573  6625
10574  7777
10575  6622
10576  7665
10577  6630
       0600          *600
10600  4720  PPFMT,  TEXT /'PLEASE POSITION PAPER.',/
10601  1405
10602  0123
10603  0540
10604  2017
10605  2311
10606  2411
10607  1716
10610  4020
10611  0120
10612  0522
10613  5647
10614  5400

             /IMPLEMENT PAGINATION. IF LFCT1 IS >=0, DUMP LFS AND WRITE NEW
             /PAGE HEADING
10615  0000  CKFORM, 0
10616  6642          SXM 40
10617  1035          TAD LFCT1
10620  7710          SPA CLA         /IS LFCT1>=0
10621  5247          JMP CKFEX
10622  1035          TAD LFCT1       /YES. IF IT'S >8, THE PAPER HAS GONE TOO FAR.

10623  1377          TAD (-10        /RESET COUNTER AND IGNORE
10624  7550          SPA SNA
10625  5231          JMP .+4
10626  1376          TAD (-72        />8, RESET COUNTER
10627  3035          DCA LFCT1
10630  5247          JMP CKFEX
10631  6602          SXM

/RADAR SYSTEM                             PAL8-V10D NO DATE   PAGE 76-1

10632  7650          SNA CLA         /<=8, DUMP ENOUGH LFS
10633  5237          JMP CKFL1
10634  4775'         JMS PRINT       /DUMP LFS
10635  0651          CKFMT1
10636  5216          JMP CKFORM+1
10637  2030  CKFL1,  ISZ PAGEN
10640  6571          SVC             /WRITE NEW HEADING
10641  2600          CALL
10642  0653          CKFLST
10643  7200          CLA
10644  6642          SXM 40          /RESET LFCT1
10645  1374          TAD (-70
10646  3035          DCA LFCT1
10647  6602  CKFEX,  SXM
10650  5615          JMP I CKFORM

10651  3612  CKFMT1, TEXT /^J/
10652  0000
10653  3122  CKFLST, WRITE
10654  0001          01
10655  0010          10; OUT
10656  0022
10657  0010          10; IN
10660  0021
10661  0010          10; CKFMT2
10662  0677
10663  0010          10; DATE; 10; (1
10664  0027
10665  0010
10666  0773
10667  0000          00; CLKL; 10; (2
10670  1055
10671  0010
10672  0772
10673  0010          10; PAGEN; 10; (1
10674  0030
10675  0010
10676  0773
10677  5747  CKFMT2, TEXT */'RADAR VERSION 4.0',10XD3XT'E',3X'PAGE ',I3,/*
10700  2201
10701  0401
10702  2240
10703  2605
10704  2223
10705  1117
10706  1640
10707  6456
10710  6047
10711  5461
10712  6030
10713  0463
10714  3024
10715  4705
10716  4754
10717  6330

/RADAR SYSTEM                             PAL8-V10D NO DATE   PAGE 76-2

10720  4720
10721  0107
10722  0540
10723  4754
10724  1163
10725  5457
10726  0000

/RADAR SYSTEM                             PAL8-V10D NO DATE   PAGE 77


             /GET SINGLE VALUE. USED BY COMMANDS THAT TAKE A SINGLE NUMBER AS
             /ARGUMENT, OR A ? TO REQUEST THE VALUE. IF ERROR, GO TO CMDER. IF
             /NUMBER, SKIP AND RETURN IT IN THE AC. ON ENTRY, AC CONTAINS A
             /MASK WORD FOR ERROR CHECKING.
10727  0000  GETSV,  0
10730  3361          DCA SVMSK       /SAVE MASK
10731  1420          TAD I TP        /GET NEXT TOKEN
10732  1371          TAD (-TRMT-"=   /IS IT =?
10733  7650          SNA CLA
10734  2020          ISZ TP          /IF YES, IGNORE
10735  1420          TAD I TP        /GET NEXT TOKEN
10736  1370          TAD (-TRMT-"?   /IS IT "?" ?
10737  7640          SZA CLA
10740  5343          JMP .+3
10741  2020          ISZ TP
10742  5727          JMP I GETSV     /YES, NON-SKIP RETURN
10743  1420          TAD I TP        /IS IT A NUMBER
10744  2020          ISZ TP
10745  0367          AND (7400
10746  1367          TAD (-NUMT
10747  7640          SZA CLA
10750  5766'         JMP CMDER       /NO, ERROR
10751  1420          TAD I TP        /YES, RETURN IT IF NO ERROR
10752  0361          AND SVMSK
10753  7640          SZA CLA
10754  5766'         JMP CMDER
10755  1420          TAD I TP
10756  2020          ISZ TP
10757  2327          ISZ GETSV
10760  5727          JMP I GETSV
10761  0000  SVMSK,  0

/RADAR SYSTEM                             PAL8-V10D NO DATE   PAGE 78


10766  0241
10767  7400
10770  6101
10771  6103
10772  0002
10773  0001
10774  7710
10775  0400
10776  7706
10777  7770
       1000          *1000
             /CHANGE TO WR66
11000  0000  WR66, 0
11001  1032          TAD ICW2        /SET BIT IN ICW2
11002  7006          RTL
11003  7132          STL RTR
11004  3032          DCA ICW2
11005  1377          TAD (102        /SET RADAR STATUS WORD
11006  3776'         DCA STATUS
11007  4275          JMS SETPT
11010  6451          OSW 1           /SET RELAY
11011  6571          SVC ; V; ECSEM
11012  1226
11013  0104
11014  4775'         JMS WCHRD
11015  5600          JMP I WR66

             /CHANGE TO WR73
11016  0000  WR73,   0
11017  1032          TAD ICW2        /CLEAR BIT IN ICW2
11020  0374          AND (5777
11021  3032          DCA ICW2
11022  1373          TAD (111        /SET RADAR STATUS
11023  3776'         DCA STATUS
11024  4275          JMS SETPT
11025  1372          TAD (20
11026  6451          OSW 1
11027  7200          CLA
11030  4775'         JMS WCHRD
11031  5616          JMP I WR73

             /WR66 COMMAND
11032  0000  EXWR66, 0
11033  4242          JMS IGNDI
11034  4200          JMS WR66
11035  5632          JMP I EXWR66

             /WR73 COMMAND
11036  0000  EXWR73, 0
11037  4242          JMS IGNDI
11040  4216          JMS WR73
11041  5636          JMP I EXWR73


/RADAR SYSTEM                             PAL8-V10D NO DATE   PAGE 78-1

             /IF DI IS RUNNING, RETURN TO CLOOP
11042  0000  IGNDI,  0
11043  1771'         TAD DIFLG
11044  7640          SZA CLA
11045  5770'         JMP CLOOP
11046  5642          JMP I IGNDI

             /SET WR66 PT
11047  0000  EXPT66, 0
11050  4767'         JMS GETSV
11051  5255          JMP .+4
11052  3766'         DCA STATUS+1
11053  4275          JMS SETPT
11054  5647          JMP I EXPT66
11055  1766'         TAD STATUS+1
11056  3023          DCA VAR
11057  4765'         JMS PRINT
11060  1315          FMT03
11061  5647          JMP I EXPT66

             /SET WR73 PT
11062  0000  EXPT73, 0
11063  4767'         JMS GETSV
11064  5270          JMP .+4
11065  3764'         DCA STATUS+2
11066  4275          JMS SETPT
11067  5662          JMP I EXPT73
11070  1764'         TAD STATUS+2
11071  3023          DCA VAR
11072  4765'         JMS PRINT
11073  1315          FMT03
11074  5662          JMP I EXPT73

             /SET PT FROM STATUS
11075  0000  SETPT,  0
11076  1032          TAD ICW2
11077  7006          RTL
11100  7630          SZL CLA
11101  5304          JMP .+3
11102  1764'         TAD STATUS+2
11103  7410          SKP
11104  1766'         TAD STATUS+1
11105  7041          CIA
11106  3041          DCA PT
11107  5675          JMP I SETPT

/RADAR SYSTEM                             PAL8-V10D NO DATE   PAGE 79


             /SET # OF SAMPLES
11110  0000  EXSAM,  0
11111  1363          TAD (7600
11112  4767'         JMS GETSV
11113  5322          JMP .+7
11114  3762'         DCA STATUS+5
11115  1032          TAD ICW2
11116  0363          AND (7600
11117  1762'         TAD STATUS+5
11120  3032          DCA ICW2
11121  5710          JMP I EXSAM
11122  1762'         TAD STATUS+5
11123  3023          DCA VAR
11124  4765'         JMS PRINT
11125  1324          FMT04
11126  5710          JMP I EXSAM

             /GET TNP
11127  0000  EXTNP,  0
11130  1361          TAD (7770
11131  4767'         JMS GETSV
11132  5345          JMP TNPL1
11133  7421          MQL
11134  7501          MQA
11135  3760'         DCA STATUS+6
11136  7413          SHL; 6
11137  0006
11140  1032          TAD ICW2
11141  0357          AND (6177
11142  7501          MQA
11143  3032          DCA ICW2
11144  5727          JMP I EXTNP
11145  1760' TNPL1,  TAD STATUS+6
11146  3023          DCA VAR
11147  4765'         JMS PRINT
11150  1324          FMT04
11151  5727          JMP I EXTNP

/RADAR SYSTEM                             PAL8-V10D NO DATE   PAGE 80


11157  6177
11160  6323
11161  7770
11162  6322
11163  7600
11164  6317
11165  0400
11166  6316
11167  0727
11170  0214
11171  1621
11172  0020
11173  0111
11174  5777
11175  1415
11176  6315
11177  0102
       1200          *1200
             /GET RANGE. NOTE: ALL NAUTICAL MILES HAVE 1 BITTTO THE RIGHT OF
             /THE BINARY POINT
11200  0000  EXRAN,  0
11201  4777'         JMS GETSV
11202  5273          JMP RANL1
11203  3776'         DCA STATUS+3    /SAVE STARTING RANGE
11204  1776'         TAD STATUS+3    /CONVERT TO NMI
11205  6002          IOF
11206  4344          JMS KMNMI
11207  3300          DCA RANST       /AND PUT IN RANST
11210  1020          TAD TP          /CHECK NEXT TWO TOKENS. IF COMMA FOLLOWED
11211  6667          LDXC SXM 60     /BY NUMBER, TAKE THA T NUMBER TO BE THE
11212  1100          TAD X           /ENDING RANGE. IF NOT, RANGE=50NMI
11213  1375          TAD (-TRMT-",
11214  7640          SZA CLA
11215  5243          JMP RANL2
11216  1101          TAD X+1
11217  0374          AND (7400
11220  1374          TAD (-NUMT
11221  7640          SZA CLA
11222  5243          JMP RANL2
11223  7125          STL IAC RAL     /ENDING RANGE SUPPLIED. UPDATE TP
11224  1020          TAD TP
11225  3020          DCA TP
11226  1102          TAD X+2         /COMPUTE TOTAL RANGE
11227  6002          IOF
11230  4344          JMS KMNMI
11231  7041          CIA
11232  1300          TAD RANST
11233  7041          CIA             /ENDING RANGE-STARTING RANGE
11234  7427          MQL DVI; 144    /DIVIDE BY 50 NMI TO GET RESOLUTION. IF
11235  0144
11236  7701          CLA MQA         /QUOTIENT IS >1, MAKE IT 4
11237  1373          TAD (-2
11240  7500          SMA

/RADAR SYSTEM                             PAL8-V10D NO DATE   PAGE 80-1

11241  7201          CLA IAC
11242  1372          TAD (2
11243  7001  RANL2,  IAC             /WE NOW HAVE RESOLUTION IN NMI
11244  6602          SXM
11245  3031          DCA ICW1        /PUT IN ICW1, WITH RGS=0
11246  1031          TAD ICW1        /SET ENDING RANGE IN STATUS BLOCK
11247  7425          MQL MUY; 144
11250  0144
11251  7501          MQA
11252  1300          TAD RANST
11253  6002          IOF
11254  4356          JMS NMIKM
11255  3771'         DCA STATUS+4
11256  1031          TAD ICW1        /COMPUTE RGS AND INSERT INTO ICW1
11257  3262          DCA .+3
11260  1300          TAD RANST
11261  7427          MQL DVI; 0
11262  0000
11263  7701          CLA MQA
11264  7440          SZA
11265  1370          TAD (-1
11266  7106          CLL RTL; RAL
11267  7004
11270  1031          TAD ICW1
11271  3031          DCA ICW1
11272  5600          JMP I EXRAN
11273  6571  RANL1,  SVC             /DUMP RANGE
11274  2600          CALL
11275  1301          RANLST
11276  7200          CLA
11277  5600          JMP I EXRAN
11300  0000  RANST,  0
11301  3122  RANLST, WRITE
11302  0001          01
11303  0010          10; OUT
11304  0022
11305  0010          10; IN
11306  0021
11307  0010          10; FMT05
11310  1331
11311  0010          10; STATUS+3; 10; (2
11312  6320
11313  0010
11314  1372
11315  1163  FMT03,  TEXT /I3' DBM,  ',/
11316  4740
11317  0402
11320  1554
11321  4040
11322  4754
11323  0000
11324  1163  FMT04,  TEXT /I3',  ',/
11325  4754
11326  4040
11327  4754

/RADAR SYSTEM                             PAL8-V10D NO DATE   PAGE 80-2

11330  0000
11331  1163  FMT05,  TEXT /I3' TO ',I3' KM,  ',/
11332  4740
11333  2417
11334  4047
11335  5411
11336  6347
11337  4013
11340  1554
11341  4040
11342  4754
11343  0000

/RADAR SYSTEM                             PAL8-V10D NO DATE   PAGE 81


             /CONVERT KM TO NMI (1.11). AC->AC.
11344  0000  KMNMI,  0
11345  7425          MQL MUY; 4244   /.5400  (0.12)
11346  4244
11347  7413          SHL; 1
11350  0001
11351  7010          RAR
11352  7430          SZL
11353  7001          IAC
11354  6005          PION
11355  5744          JMP I KMNMI

             /CONVERT NMI TO KM. AC->AC.
11356  0000  NMIKM,  0
11357  7425          MQL MUY; 7321   /1.852  (1.11)
11360  7321
11361  7413          SHL; 0
11362  0000
11363  7010          RAR
11364  7430          SZL
11365  7001          IAC
11366  6005          PION
11367  5756          JMP I NMIKM

/RADAR SYSTEM                             PAL8-V10D NO DATE   PAGE 82


11370  7777
11371  6321
11372  0002
11373  7776
11374  7400
11375  6124
11376  6320
11377  0727
       1400          *1400
             /COMMAND FOR DEBUGGING. TURN OFF CLOCK AND TIMER INTERRUPTS.
11400  0000  EXBUG,  0
11401  6642          SXM 40
11402  7125          STL IAC RAL
11403  6562          RDMSK
11404  6561          LDMSK
11405  3023          DCA IMASK
11406  6602          SXM
11407  5600          JMP I EXBUG

             /ROUTINE FOR ENDUMP AND ENPLOT. ENSKP ENABLES THE OPERATION, ENNOP
             /DISABLES IT
11410  0000  ENNOP,  0
11411  5610          JMP I ENNOP

11412  0000  ENSKP,  0
11413  2212          ISZ ENSKP
11414  5612          JMP I ENSKP

             /WAIT FOR RELAYS TO SETTLE WHEN CHANGING RADARS, THEN TAKE NOISE
11415  0000  WCHRD,  0
11416  4221          JMS SMWT
11417  4237          JMS TKNZ
11420  5615          JMP I WCHRD

             /WAIT BETWEEN 125 & 250 MS.
11421  0000  SMWT,   0
11422  1235          TAD SMWTL       /INITIALIZE TIMER #1
11423  6647          LDXC SXM 40
11424  3100          DCA X
11425  3101          DCA X+1
11426  7240          STA
11427  3103          DCA X+3
11430  7344          CLL STA RAL
11431  3102          DCA X+2
11432  6602          SXM
11433  6571          SVC
11434  1200          P
11435  1060  SMWTL,  ITM1
11436  5621          JMP I SMWT

/RADAR SYSTEM                             PAL8-V10D NO DATE   PAGE 83


                     DECIMAL
       0162  WR66TR=114
       0226  WR73TR=150
                     OCTAL
             /TAKE A NOISE READING
11437  0000  TKNZ,   0
11440  1377          TAD (3272       /START INTEGRATOR - RANGE = 216 TO 315 NMI
11441  4322          JMS ITGST       /PRF BETTER BE <=250
11442  4304          JMS ITGET
11443  1376          TAD (-62        /AVERAGE LAST 50 BINS
11444  3302          DCA TKNCT
11445  1375          TAD (ITGBUF+61
11446  3010          DCA 10
11447  3303          DCA TKNAH
11450  7100  TKNL1,  CLL             /LOOP 50 TIMES. LOW ORDER BITS IN AC, HIGH
11451  1410          TAD I 10        /ORDER BITS IN TKNAH
11452  7430          SZL
11453  2303          ISZ TKNAH
11454  2302          ISZ TKNCT
11455  5250          JMP TKNL1
11456  7421          MQL             /DIVIDE BY 50
11457  1303          TAD TKNAH
11460  7407          DVI; 62
11461  0062
11462  1374          TAD (-31        /ROUND OFF
11463  7004          RAL
11464  7701          CLA MQA
11465  7420          SNL
11466  7001          IAC
11467  7041          CIA             /NEGATE AND STORE
11470  3035          DCA NOIZL
11471  1032          TAD ICW2        /COMPUTE AND STORE NOIZT
11472  7006          RTL
11473  7620          SNL CLA
11474  1373          TAD (WR73TR-WR66TR
11475  1372          TAD (WR66TR
11476  7040          CMA
11477  1035          TAD NOIZL
11500  3036          DCA NOIZT
11501  5637          JMP I TKNZ
11502  0000  TKNCT,  0
11503  0000  TKNAH,  0

/RADAR SYSTEM                             PAL8-V10D NO DATE   PAGE 84


             /WAIT FOR INTEGRATOR TO FINISH, THEN DUMP IT INTO ITGBUF
11504  0000  ITGET,  0
11505  1371          TAD (-144       /SET UP COUNTER
11506  3321          DCA ITGC
11507  1370          TAD (ITGBUF-1   /SET UP POINTER
11510  3012          DCA 12
11511  6571          SVC             /WAIT
11512  1200          P
11513  0753          ITGSEM
11514  6334          RVI 4           /DUMP INTEGRATOR
11515  3412          DCA I 12
11516  2321          ISZ ITGC
11517  5314          JMP .-3
11520  5704          JMP I ITGET
11521  0000  ITGC,   0

             /START UP INTEGRATOR. IF AC<>0, USE IT AS ICW1
11522  0000  ITGST,  0
11523  7450          SNA
11524  1031          TAD ICW1
11525  6322          SRA 2
11526  7200          CLA
11527  1032          TAD ICW2
11530  6326          SRA 6
11531  7200          CLA
11532  5722          JMP I ITGST

/RADAR SYSTEM                             PAL8-V10D NO DATE   PAGE 85


11570  6730
11571  7634
11572  0162
11573  0044
11574  7747
11575  7012
11576  7716
11577  3272
       1600          *1600
             /DI COMMAND. IF DIFLG IS 0, SET FLAG AND CREATE PROCESS TO RUN DI
11600  0000  EXDI,   0
11601  1221          TAD DIFLG
11602  7640          SZA CLA
11603  5600          JMP I EXDI
11604  4777'         JMS EXTTY
11605  4776'         JMS SGRAB
11606  1271          TAD PDISEM
11607  6647          LDXC SXM 40
11610  3100          DCA X
11611  3101          DCA X+1
11612  6602          SXM
11613  2221          ISZ DIFLG
11614  6571          SVC
11615  1252          FORK
11616  1622          DILST
11617  7000          NOP
11620  5600          JMP I EXDI
11621  0000  DIFLG,  0
11622  1625  DILST,  DI
11623  0011          11
11624  1200          1200

       0106  DISEM=106
             /DISPLAY INTEGRATOR
11625  1375  DI,     TAD (ENNOP      /SET UP ENPLOT AND ENDUMP
11626  3037          DCA ENDUMP
11627  1374          TAD (ENSKP
11630  3040          DCA ENPLOT
11631  6642          SXM 40          /CLEAR ^D
11632  1004          TAD CCSW1
11633  0373          AND (5777
11634  3004          DCA CCSW1
11635  6602          SXM
11636  4772'         JMS TKNZ        /TAKE NOISE
11637  4771'         JMS ITGST       /START INTEGRATOR
11640  4770' DIL1,   JMS ITGET       /WAIT AND DUMP
11641  4767'         JMS GESR1       /READ SWITCHES
11642  0417          0417
11643  4256          JMS DICKD       /CHECK FOR ^D
11644  4302          JMS DICKR       /SWITCH RADARS IF NECESSARY
11645  4766'         JMS GPOS        /GET POSITION OF RADAR
11646  4274          JMS DISKR       /SKIP IF IN RUN MODE
11647  5254          JMP .+5

/RADAR SYSTEM                             PAL8-V10D NO DATE   PAGE 85-1

11650  4771'         JMS ITGST       /RUN MODE
11651  4765'         JMS PROS
11652  4765'         JMS PROS
11653  5240          JMP DIL1
11654  4765'         JMS PROS        /STOP MODE
11655  5241          JMP DIL1+1

/RADAR SYSTEM                             PAL8-V10D NO DATE   PAGE 86


             /SERVICE ROUTINES FOR DI
             / IF ^D, QUIT
11656  0000  DICKD,  0
11657  6642          SXM 40
11660  1004          TAD CCSW1
11661  7006          RTL
11662  6602          SXM
11663  7620          SNL CLA
11664  5656          JMP I DICKD
11665  3221          DCA DIFLG
11666  4764'         JMS SCREL
11667  6571          SVC ; V
11670  1226
11671  0106  PDISEM, DISEM
11672  6571          SVC
11673  1331          QUIT

             /SKIP IF NW PLT/OV = 1
11674  0000  DISKR,  0
11675  1061          TAD ESRW1
11676  0363          AND (4
11677  7640          SZA CLA
11700  2274          ISZ DISKR
11701  5674          JMP I DISKR

             /IF NOSE/SIDE HAS CHANGED, CALL EXWR66 OR EXWR73
11702  0000  DICKR,  0
11703  1032          TAD ICW2
11704  7006          RTL
11705  7200          CLA
11706  1061          TAD ESRW1
11707  0362          AND (20
11710  7650          SNA CLA
11711  7020          CML
11712  7420          SNL
11713  5702          JMP I DICKR
11714  1032          TAD ICW2
11715  7006          RTL
11716  7200          CLA
11717  7420          SNL
11720  5323          JMP .+3
11721  4761'         JMS WR73
11722  5702          JMP I DICKR
11723  4760'         JMS WR66
11724  5702          JMP I DICKR

/RADAR SYSTEM                             PAL8-V10D NO DATE   PAGE 87


             /SAME AS BINMI IN DSPLY.
11725  0000  BINMI,  0
11726  1357          TAD (-1
11727  3341          DCA BINMIL
11730  1031          TAD ICW1
11731  7417          LSR; 2
11732  0002
11733  1341          TAD BINMIL
11734  7124          STL RAL
11735  3341          DCA BINMIL
11736  1031          TAD ICW1
11737  0356          AND (7
11740  7425          MQL MUY
11741  0000  BINMIL, 0
11742  7701          CLA MQA
11743  7110          CLL RAR
11744  7430          SZL
11745  7001          IAC
11746  6005          PION
11747  5725          JMP I BINMI

/RADAR SYSTEM                             PAL8-V10D NO DATE   PAGE 88


11756  0007
11757  7777
11760  1000
11761  1016
11762  0020
11763  0004
11764  5102
11765  2200
11766  2710
11767  5625
11770  1504
11771  1522
11772  1437
11773  5777
11774  1412
11775  1410
11776  5047
11777  0343
       2000          *2000
             /INITIALIZATION FOR RANGE NORMALIZATION
12000  0000  RNINIT, 0
12001  1031          TAD ICW1        /FIRST, SET UP RNORM
12002  0377          AND (7
12003  1376          TAD (RNSTAB-1
12004  3033          DCA RNORM
12005  1433          TAD I RNORM
12006  3033          DCA RNORM
12007  7240          STA             /INIT. RNCT
12010  3273          DCA RNCT
12011  1375          TAD (-144       /INIT RNVAL
12012  3034          DCA RNVAL
12013  1374          TAD (RNTAB-1    /INIT POINTER (LOC. 10)
12014  3010          DCA 10
12015  7201          CLA IAC
12016  6002          IOF
12017  4773'         JMS BINMI
12020  7041          CIA             /NEGATE STARTING RANGE
12021  7001          IAC             /INCREMENT TO GET # 1/2 NMI BINS TO SKIP
12022  7450          SNA             /IF ZERO, RETURN
12023  5600          JMP I RNINIT
12024  3252          DCA RNICT       /PUT -(# TO SKIP) IN RNICT
12025  1410  RNIL1,  TAD I 10        /GET NEXT WORD FROM RNTAB
12026  7510          SPA
12027  5235          JMP RNIL2
12030  1034          TAD RNVAL       />0, ADD TO RNVAL
12031  3034          DCA RNVAL
12032  2252          ISZ RNICT       /DONE?
12033  5225          JMP RNIL1
12034  5600          JMP I RNINIT
12035  2034  RNIL2,  ISZ RNVAL       /<0, INCREMENT RNVAL
12036  7000          NOP
12037  7041          CIA
12040  1252          TAD RNICT       /UPDATE RNICT AND CHECK FOR DONE

/RADAR SYSTEM                             PAL8-V10D NO DATE   PAGE 88-1

12041  7500          SMA
12042  5245          JMP .+3
12043  3252          DCA RNICT
12044  5225          JMP RNIL1
12045  7040          CMA
12046  3273          DCA RNCT
12047  5600          JMP I RNINIT
12050  2054  RNSTAB, RN50; RN100
12051  2074
12052  0000  RNICT,  0; RN200
12053  2100

/RADAR SYSTEM                             PAL8-V10D NO DATE   PAGE 89


             /RETURN IN RNVAL THE NEXT VALUE TO BE USED FOR RANGE CORRECTION
12054  0000  RN50,   0
12055  2273          ISZ RNCT        /GET NEW WORD?
12056  5654          JMP I RN50
12057  1410          TAD I 10        /GET NEXT WORD
12060  7500          SMA
12061  5266          JMP .+5
12062  3273          DCA RNCT        /<0, SET UP NEW COUNTER
12063  2034          ISZ RNVAL
12064  7000          NOP
12065  5654          JMP I RN50
12066  1034          TAD RNVAL       />0, COUNT IS -1
12067  3034          DCA RNVAL
12070  7240          STA
12071  3273          DCA RNCT
12072  5654          JMP I RN50
12073  0000  RNCT,   0

12074  0000  RN100,  0
12075  4254          JMS RN50
12076  4254          JMS RN50
12077  5674          JMP I RN100

12100  0000  RN200,  0
12101  4274          JMS RN100
12102  4274          JMS RN100
12103  5700          JMP I RN200

                     DECIMAL
12104  0106  RNTAB,  70; 6; 4; 2; 2; 2; -1; -1; -1; -1; -1; -1; -2; -2; -2
12105  0006
12106  0004
12107  0002
12110  0002
12111  0002
12112  7777
12113  7777
12114  7777
12115  7777
12116  7777
12117  7777
12120  7776
12121  7776
12122  7776
12123  7776          -2; -2; -3; -3; -4; -3; -5; -5; -5; -6; -7; -8; -9; -10
12124  7776
12125  7775
12126  7775
12127  7774
12130  7775
12131  7773
12132  7773
12133  7773

/RADAR SYSTEM                             PAL8-V10D NO DATE   PAGE 89-1

12134  7772
12135  7771
12136  7770
12137  7767
12140  7766
12141  7765          -11; -12; -14; -16; -17; -20; -22; -24; -28; -31; -35
12142  7764
12143  7762
12144  7760
12145  7757
12146  7754
12147  7752
12150  7750
12151  7744
12152  7741
12153  7735
12154  7731          -39; -44; -49; -2000
12155  7724
12156  7717
12157  4060
                     OCTAL

/RADAR SYSTEM                             PAL8-V10D NO DATE   PAGE 90


12173  1725
12174  2103
12175  7634
12176  2047
12177  0007
       2200          *2200
             /PROCESS RADAR DATA. FOR EACH BIN, COMPARE TO THE THRESHOLD,
             /SUBTRACT THE DC LEVEL, NORMALIZE, RANGE CORRECT, AND OPTIONALLY
             /PLOT AND/OR DUMP DATA.
       0050  DBZBAS=50       /VALUE OF DATA WORD FRO 0 DBZ. (RANGE -39 TO +87)
12200  0000  PROS,   0
12201  4777'         JMS RNINIT      /INIT RANGE NORMALIZATION SYSTEM
12202  4776'         JMS SPPI        /SET UP FOR PPI
12203  1375          TAD (-144       /INIT. POINTER AND COUNTER FOR 100 SAMPLES
12204  3267          DCA PRSCT
12205  1374          TAD (ITGBUF-1
12206  3011          DCA 11
12207  3270          DCA PLOTX       /INIT. PLOTTING SYSTEM
12210  6062          SCLY
12211  6056          SCLIX
12212  4440          JMS I ENPLOT    /IF PLOT IS ENABLED, CALL CKDCR TO HANDLE
12213  7410          SKP
12214  4334          JMS CKDCR       /DBZ/KM CROSS.
12215  3057          DCA CMAX        /ZERO CONTINUOUS MAX
12216  4433  PRSL1,  JMS I RNORM     /LOOP 100 TIMES
12217  1411          TAD I 11        /GET SAMPLE
12220  7421          MQL
12221  7501          MQA
12222  7120          STL
12223  1036          TAD NOIZT       /IS VALUE OVER THRESHOLD
12224  7630          SZL CLA
12225  5231          JMP .+4
12226  4271          JMS NORM        /YES, SUBTRACT DC LEVEL AND NORMALIZE
12227  1034          TAD RNVAL       /RANGE CORRECT
12230  1373          TAD (DBZBAS     /ADD BASE VALUE
12231  7421          MQL

             /ATTEMPT TO WRITE TO TI
12232  7501          MQA
12233  7440          SZA
12234  1372          TAD (-DBZBAS
12235  4771'         JMS TICW

             /PLOTTING SECTION
12236  4440          JMS I ENPLOT    /SKIP IF PLOT IS ENABLED
12237  5256          JMP PRSL2
12240  7501          MQA             /PLOT POINT
12241  7450          SNA
12242  1373          TAD (DBZBAS
12243  7106          CLL RTL; RAL
12244  7004
12245  6062          SCLY
12246  7200          CLA

/RADAR SYSTEM                             PAL8-V10D NO DATE   PAGE 90-1

12247  1270          TAD PLOTX
12250  6056          SCLIX
12251  7001          IAC
12252  6056          SCLIX
12253  1370          TAD (11
12254  3270          DCA PLOTX

             /HANDLE MAX DBZ
12255  4767'         JMS HMAX

             /DUMP SECTION
12256  4437  PRSL2,  JMS I ENDUMP
12257  5261          JMP PRSL3
12260  4766'         JMS DUMP
12261  2267  PRSL3,  ISZ PRSCT
12262  5216          JMP PRSL1
12263  4437          JMS I ENDUMP
12264  7410          SKP
12265  4765'         JMS TERAY
12266  5600          JMP I PROS
12267  0000  PRSCT,  0
12270  0000  PLOTX,  0

/RADAR SYSTEM                             PAL8-V10D NO DATE   PAGE 91


             /SUBTRACT DC LEVEL AND NORMALIZE
                     DECIMAL
       0365  WR66K1=245
       0043  WR66K2=35
       0674  WR73K1=444
       0045  WR73K2=37
                     OCTAL
12271  0000  NORM,   0
12272  1032          TAD ICW2        /TEST RADAR
12273  7006          RTL
12274  7620          SNL CLA
12275  5315          JMP NORM73
12276  7501          MQA
12277  7120          STL
12300  1035          TAD NOIZL       /SUBTRACT DC
12301  1364          TAD (WR66K1     /X+K1
12302  7421          MQL
12303  7004          RAL
12304  7407          DVI; WR66K2     /(X+K1)/K2
12305  0043
12306  1363          TAD (-WR66K2%2 4000
12307  7004          RAL
12310  7701          CLA MQA
12311  7420          SNL
12312  7001          IAC
12313  1041          TAD PT
12314  5671          JMP I NORM
12315  7501  NORM73, MQA
12316  7120          STL
12317  1035          TAD NOIZL
12320  1362          TAD (WR73K1
12321  7421          MQL
12322  7004          RAL
12323  7407          DVI; WR73K2
12324  0045
12325  1361          TAD (-WR73K2%2 4000
12326  7004          RAL
12327  7701          CLA MQA
12330  7420          SNL
12331  7001          IAC
12332  1041          TAD PT
12333  5671          JMP I NORM

/RADAR SYSTEM                             PAL8-V10D NO DATE   PAGE 92


             /READ DIAL AND CALL APPROPRIATE DISPLAY ROUTINE
12334  0000  CKDCR,  0
12335  1360          TAD (10         /READ DIAL
12336  6002          IOF
12337  6365          ESR 5
12340  7200          CLA
12341  0400          AND I 0
12342  6362          ESR 2
12343  6005          PION
12344  7417          LSR; 7          /GET MAG
12345  0007
12346  1357          TAD (DTAB       /LOOK UP IN TABLE
12347  3356          DCA DTABP
12350  1756          TAD I DTABP
12351  3356          DCA DTABP
12352  4756          JMS I DTABP     /EXECUTE DI ROUTINE
12353  7307          CLL CLA IAC RTL /RESET DI DEVICE # TO 4 (SCOPE)
12354  3064          DCA DIDEV
12355  5734          JMP I CKDCR
12356  0000  DTABP,  0

/RADAR SYSTEM                             PAL8-V10D NO DATE   PAGE 93


12357  5534
12360  0010
12361  7755
12362  0674
12363  7756
12364  0365
12365  4217
12366  4400
12367  5600
12370  0011
12371  5646
12372  7730
12373  0050
12374  6730
12375  7634
12376  5676
12377  2000
       2400          *2400
             /READ DIALS, DISPLAY CROSS, DISPLAY DBZ AND KM
       0004  CRSIZ=4
       0030  CRNUM=30
12400  0000  DBZKM,  0
12401  7305          CLA CLL IAC RAL /READ DIALS
12402  4320          JMS RDAD
12403  3271          DCA CRKM
12404  7201          CLA IAC
12405  4320          JMS RDAD
12406  6062          SCLY
12407  3270          DCA CRDBZ       /DISPLAY DBZ LINE. LOAD Y BUFFER WITH CRDBZ.
12410  1377          TAD (-CRNUM-1
12411  3267          DCA DBKCT
12412  1376          TAD (CRSIZ^CRNUM%2
12413  7041          CIA
12414  1271          TAD CRKM
12415  6056          SCLIX
12416  1375          TAD (CRSIZ
12417  2267          ISZ DBKCT
12420  5215          JMP .-3
12421  7200          CLA             /DRAW KM LINE
12422  1271          TAD CRKM
12423  6052          SCLX
12424  7200          CLA
12425  1377          TAD (-CRNUM-1
12426  3267          DCA DBKCT
12427  1376          TAD (CRSIZ^CRNUM%2
12430  7041          CIA
12431  1270          TAD CRDBZ
12432  6066          SCLIY
12433  1375          TAD (CRSIZ
12434  2267          ISZ DBKCT
12435  5232          JMP .-3
12436  7200          CLA             /COMPUTE DBZ
12437  1270          TAD CRDBZ

/RADAR SYSTEM                             PAL8-V10D NO DATE   PAGE 93-1

12440  7110          CLL RAR
12441  7110          CLL RAR
12442  7110          CLL RAR
12443  7430          SZL
12444  7001          IAC
12445  1374          TAD (-DBZBAS
12446  3270          DCA CRDBZ
12447  1271          TAD CRKM        /COMPUTE KM
12450  7427          MQL DVI; 12
12451  0012
12452  7701          CLA MQA
12453  7001          IAC
12454  6002          IOF
12455  4773'         JMS BINMI
12456  6002          IOF
12457  4772'         JMS NMIKM
12460  3271          DCA CRKM
12461  4332          JMS SETSC       /SET SCOPE POINTERS
12462  6571          SVC             /WRITE DBZ AND KM
12463  2600          CALL
12464  2472          DBKLST
12465  7200          CLA
12466  5600          JMP I DBZKM
12467  0000  DBKCT,  0
12470  0000  CRDBZ,  0
12471  0000  CRKM,   0
12472  3122  DBKLST, WRITE
12473  0001          01
12474  0010          10; DIDEV
12475  0064
12476  0010          10; (0
12477  2571
12500  0010          10; DBKFMT
12501  2506
12502  0010          10; CRDBZ; 10; (2
12503  2470
12504  0010
12505  2570
12506  1163  DBKFMT, TEXT /I3' DBZ ',I3' KM',/
12507  4740
12510  0402
12511  3240
12512  4754
12513  1163
12514  4740
12515  1315
12516  4754
12517  0000

             /READ A/D FOR DBZKM
12520  0000  RDAD,   0
12521  6542          ADSC
12522  6531          ADSF
12523  5322          JMP .-1
12524  7200          CLA

/RADAR SYSTEM                             PAL8-V10D NO DATE   PAGE 93-2

12525  6534          ADRB
12526  7104          CLL RAL
12527  7032          CML RTR
12530  7110          CLL RAR
12531  5720          JMP I RDAD

             /SET SCOPE POINTERS FOR DISPLAY ROUTINES
12532  0000  SETSC,  0
12533  6642          SXM 40
12534  1367          TAD (37
12535  3033          DCA VPOS
12536  1366          TAD (30
12537  3032          DCA HPOS
12540  6602          SXM
12541  5732          JMP I SETSC

/RADAR SYSTEM                             PAL8-V10D NO DATE   PAGE 94


12566  0030
12567  0037
12570  0002
12571  0000
12572  1356
12573  1725
12574  7730
12575  0004
12576  0060
12577  7747
       2600          *2600
             /INITIALIZATION ROUTINE FOR RADAR
12600  0000  INIT,   0
             /SET WORD ZERO OF MAP STATUS BLOCK TO LMSB
       0013  LMSB=13
12601  1377          TAD (-LMSB
12602  3776'         DCA STBLK

             /INITIALIZE WDS1 AND WDS2, AND CREATE THE PROCESS THAT WILL
             /EXECUTE DBUF
       0100  WDS1=100
       0102  WDS2=102
12603  1375          TAD (WDS1
12604  6647          LDXC SXM 40
12605  7001          IAC
12606  3100          DCA X
12607  3101          DCA X+1
12610  3102          DCA X+2
12611  3103          DCA X+3
12612  6602          SXM
12613  6571          SVC
12614  1252          FORK
12615  2636          INTLST
12616  7402          HLT

12617  3774'         DCA DIFLG       /CLEAR THE DI FLAG

             /CREATE A PROCESS TO RUN THE DISPLAY SYSTEM
12620  6571          SVC
12621  1252          FORK
12622  2644          DSPL1
12623  7402          HLT

             /INITIALIZE ECSEM, CREATE ELEVATION CONTROL PROCESS
       0104  ECSEM=104
12624  1373          TAD (ECSEM
12625  6647          LDXC SXM 40
12626  3100          DCA X
12627  3101          DCA X+1
12630  6602          SXM
12631  6571          SVC
12632  1252          FORK
12633  2641          ECLST

/RADAR SYSTEM                             PAL8-V10D NO DATE   PAGE 94-1

12634  7402          HLT
12635  5600          JMP I INIT
12636  4121  INTLST, DBUF; 11; 1600
12637  0011
12640  1600
12641  5200  ECLST,  ECT66; 11; 1500
12642  0011
12643  1500
12644  5032  DSPL1,  DSPLY; 11; 1300
12645  0011
12646  1300

/RADAR SYSTEM                             PAL8-V10D NO DATE   PAGE 95


             /TYPE ONE CHARACTER ON TTY1. SIMILAR TO TYPE, MADE FOR FIELD 1
12647  0000  TYPE,   0
12650  6571          SVC
12651  1200          P
12652  2336          TP1SEM
12653  6571          SVC
12654  2027          CHOUT
12655  2340          TP1BSC
12656  6046          TLS
12657  7200          CLA
12660  5647          JMP I TYPE

             /CONVERT DEGREES TO BINARY ANGLE. AC->AC. IOF LINKAGE.
12661  0000  DEGBA,  0
12662  7421          MQL
12663  7527          MQL MQA DVI; 550
12664  0550
12665  7430          SZL
12666  7621          CAM
12667  1372          TAD (-264
12670  7004          RAL
12671  7701          CLA MQA
12672  7420          SNL
12673  7001          IAC
12674  6005          PION
12675  5661          JMP I DEGBA

             /CONVERT BINARY ANGLE TO DEGREES
12676  0000  BADEG,  0
12677  7425          MQL MUY; 1320
12700  1320
12701  7110          CLL RAR
12702  7430          SZL
12703  7001          IAC
12704  7427          MQL DVI; 550
12705  0550
12706  6005          PION
12707  5676          JMP I BADEG

/RADAR SYSTEM                             PAL8-V10D NO DATE   PAGE 96


             /GET POSITION OF THE ANTENNA. RETURNS TO AZ & EL, BINARY ANGLES.
12710  0000  GPOS,   0
12711  1032          TAD ICW2
12712  7006          RTL
12713  7620          SNL CLA
12714  5334          JMP GPOSL1

             /WR66 AZ
12715  6002          IOF
12716  6111          INA 1           /LATCH S/D
12717  7346          CLL STA RTL     /WAIT A BIT
12720  7001          IAC
12721  7440          SZA
12722  5320          JMP .-2
12723  6112          INA 2           /LOW BITS
12724  6314          FRE 4
12725  6005          PION
12726  7421          MQL
12727  6117          INA 7
12730  7413          SHL; 11
12731  0011
12732  3042          DCA AZ

             /WR66 EL
12733  5710          JMP I GPOS

             /WR73 AZ
12734  7201  GPOSL1, CLA IAC         /INHIBIT S/D
12735  6351          INB 1
12736  7200          CLA
12737  0400          AND I 0         /WAIT A BIT
12740  6127          DNS 7           /LOW BITS
12741  7421          MQL
12742  6122          DNS 2           /HIGH BITS
12743  7417          LSR; 11
12744  0011
12745  4771'         JMS BCDBA
12746  3042          DCA AZ

             /WR73 EL
12747  6123          DNS 3           /LOW BITS
12750  7421          MQL
12751  6127          DNS 7           /HIGH BITS
12752  0370          AND (3
12753  4771'         JMS BCDBA
12754  3043          DCA EL
12755  6351          INB 1           /RELEASE S/D
12756  5710          JMP I GPOS

/RADAR SYSTEM                             PAL8-V10D NO DATE   PAGE 97


12770  0003
12771  3000
12772  7514
12773  0104
12774  1621
12775  0100
12776  6344
12777  7765
       3000          *3000
             /CONVERT BCD TO BINARY ANGLE
13000  0000  BCDBA,  0
13001  3242          DCA BCD         /BREAK UP NUMBER INTO DIGITS
13002  7413          SHL; 3
13003  0003
13004  3243          DCA BCD+1
13005  7413          SHL; 3
13006  0003
13007  3244          DCA BCD+2
13010  7413          SHL; 3
13011  0003
13012  3245          DCA BCD+3
13013  1242          TAD BCD         /GET ANGLE IN TENTHS
13014  7425          MQL MUY; 12
13015  0012
13016  7501          MQA
13017  1243          TAD BCD+1
13020  7425          MQL MUY; 12
13021  0012
13022  7501          MQA
13023  1244          TAD BCD+2
13024  7425          MQL MUY; 12
13025  0012
13026  7721          CLA MQL MQA
13027  1245          TAD BCD+3
13030  7407  TENBA,  DVI; 7020       /CONVERT TO BINARY ANGLE
13031  7020
13032  7430          SZL
13033  7621          CAM
13034  1377          TAD (-3410
13035  7004          RAL
13036  7701          CLA MQA
13037  7420          SNL
13040  7001          IAC
13041  5600          JMP I BCDBA
13042  0000  BCD,    ZBLOCK 4

/RADAR SYSTEM                             PAL8-V10D NO DATE   PAGE 98


             /ROUTINE TO RECORD A RASTOR SCAN MAP
13046  0000  EXREC,  0
13047  6642          SXM 40          /SET ^D TO STOP DI
13050  1004          TAD CCSW1
13051  7006          RTL
13052  7132          STL RTR
13053  0376          AND (7767       /KILL ^K BIT
13054  3004          DCA CCSW1
13055  6602          SXM
13056  1775'         TAD DIFLG       /WAIT FOR RESPONSE
13057  7650          SNA CLA
13060  5264          JMP .+4
13061  6571          SVC; P; DISEM
13062  1200
13063  0106
13064  4774'         JMS EXTTY
13065  4773'         JMS SCFTS       /ATTEMPT TO GRAB SCOPE. IF IN USE, DONT
13066  1372          TAD (ENNOP-ENSKP        /ENABLE PLOT
13067  1371          TAD (ENSKP      /ENABLE DUMPING AND PLOTTING DATA
13070  3040          DCA ENPLOT
13071  1371          TAD (ENSKP
13072  3037          DCA ENDUMP
13073  1370          TAD (7760       /GET # OF ELEVATION ANGLES, PUT IN ELNUM
13074  4767'         JMS GETSV
13075  5766'         JMP CMDER
13076  7040          CMA
13077  3047          DCA ELNUM
13100  4765'         JMS INMAP       /INITIALIZE RECORDING STUFF
13101  4764'         JMS TKNZ        /TAKE A NOISE READING
13102  3763'         DCA AZFLG       /SET UP FOR ENTERING RASTOR TO START SCAN
13103  7240          STA
13104  3050          DCA AZNUM
13105  1362          TAD (ELIST
13106  3761'         DCA PELST
13107  1762'         TAD ELIST       /DUMP FIRST SCAN DESCRIPTOR WORD
13110  4760'         JMS WRDAT
13111  4757'         JMS RASTOR
13112  5646          JMP I EXREC
13113  4756'         JMS ITGST       /START INTEGRATOR
13114  4755' EXRL1,  JMS ITGET       /WAIT AND DUMP
13115  4754'         JMS GESR1       /GET SWITCHES
13116  0410          0410
13117  4753'         JMS CKTER       /CHECK FOR TAPE ERRORS
13120  4752'         JMS CKCTRK      /CHECK FOR ^K
13121  4751'         JMS INRAY       /INITIALIZE FOR NEXT RAY
13122  4757'         JMS RASTOR      /WAIT FOR NEXT RAY
13123  5327          JMP EXRL2
13124  4756'         JMS ITGST       /START INTEGRATOR
13125  4750'         JMS PROS        /PROCESS RAY
13126  5314          JMP EXRL1
13127  4750' EXRL2,  JMS PROS        /PROCESS FINAL RAY
13130  6571          SVC; P; WDS1    /WAIT FOR ALL TAPE OPERATIONS TO FINISH
13131  1200

/RADAR SYSTEM                             PAL8-V10D NO DATE   PAGE 98-1

13132  0100
13133  6571          SVC; V; WDS1
13134  1226
13135  0100
13136  4753'         JMS CKTER
13137  4747'         JMS TRMAP
13140  5646          JMP I EXREC

/RADAR SYSTEM                             PAL8-V10D NO DATE   PAGE 99


13147  4000
13150  2200
13151  4200
13152  3732
13153  3400
13154  5625
13155  1504
13156  1522
13157  3444
13160  4072
13161  3501
13162  6324
13163  3551
13164  1437
13165  3600
13166  0241
13167  0727
13170  7760
13171  1412
13172  7776
13173  5067
13174  0343
13175  1621
13176  7767
13177  4370
       3200          *3200
             /EXECUTE AZMUTH COMMAND
13200  0000  EXAZ,   0
13201  4777'         JMS GETSV
13202  5600          JMP I EXAZ      /FOR NOW
13203  3046          DCA AZLOW
13204  1420          TAD I TP        /TEST NEXT TOKEN FOR COMMA
13205  2020          ISZ TP
13206  1376          TAD (-TRMT-",
13207  7640          SZA CLA
13210  5775'         JMP CMDER
13211  1420          TAD I TP        /TEST NEXT TOKEN FOR NUMBER
13212  2020          ISZ TP
13213  0374          AND (7400
13214  1374          TAD (-NUMT
13215  7640          SZA CLA
13216  5775'         JMP CMDER
13217  1420          TAD I TP        /GET AZHI
13220  2020          ISZ TP
13221  3045          DCA AZHI
13222  5600          JMP I EXAZ

/RADAR SYSTEM                             PAL8-V10D NO DATE   PAGE 100


             /WRITE THE AC INTO THE COMMANT BUFFER. DUMP TAPE IF NECESSARY
13223  0000  WRCB,   0
13224  6231          CDF 30
13225  3750          DCA I CBP
13226  6211          CDF 10
13227  2350          ISZ CBP
13230  5623          JMP I WRCB
13231  1237          TAD WRCL1       /RESET POINTER
13232  3350          DCA CBP
13233  6202          CIF
13234  7105          CLL IAC RAL
13235  4773'         JMS RWTAPE      /WRITE OUT BUFFER
13236  1034          1034
13237  7400  WRCL1,  CBUF
13240  3351          CBLK
13241  4772'         JMS TPERR
13242  2351          ISZ CBLK
13243  2351          ISZ CBLK
13244  5623          JMP I WRCB

/RADAR SYSTEM                             PAL8-V10D NO DATE   PAGE 101


             /UPDATE THE DIRECTORY AND THE COMMENT BUFFER
13245  0000  UPDATE, 0
13246  7240          STA
13247  1351          TAD CBLK        /UPDATE WORD 3 (COMMENTS POINTER) IN THE
13250  7433          MQL SHL; 22     /DIRECTORY FROM CBP & CBLK
13251  0022
13252  1350          TAD CBP
13253  1371          TAD (-CBUF
13254  3770'         DCA DTY+3
13255  6571          SVC; P; TC1SEM
13256  1200
13257  5707
13260  6202          CIF             /WRITE THE DIRECTORY
13261  7001          IAC
13262  4773'         JMS RWTAPE
13263  1014          1014
13264  6421          DTY
13265  3367          (0
13266  4772'         JMS TPERR
13267  6202          CIF             /WRITE THE COMMENT BUFFER
13270  7105          CLL IAC RAL
13271  4773'         JMS RWTAPE
13272  1034          1034
13273  7400          CBUF
13274  3351          CBLK
13275  4772'         JMS TPERR
13276  6571          SVC; V; TC1SEM
13277  1226
13300  5707
13301  4303          JMS NUTAPE      /RE-INITIALIZE AS IF NEW TAPE
13302  5645          JMP I UPDATE

             //SET UP FOR RECORDING ON A TAPE. READ THE DIRECTORY, SET UP THE
             /COMMENT BUFFER, ETC.
13303  0000  NUTAPE, 0
13304  6571          SVC; P; TC1SEM
13305  1200
13306  5707
13307  6202          CIF
13310  7001          IAC             /READ THE DIRECTORY
13311  4773'         JMS RWTAPE
13312  1010          1010
13313  6421  NUTL1,  DTY
13314  3367          (0
13315  4772'         JMS TPERR
13316  1770'         TAD DTY+3       /SET UP COMMENT BUFFER
13317  0366          AND (177
13320  1341          TAD NUTL2
13321  3350          DCA CBP
13322  1770'         TAD DTY+3
13323  7417          LSR; 6
13324  0006
13325  7001          IAC

/RADAR SYSTEM                             PAL8-V10D NO DATE   PAGE 101-1

13326  3351          DCA CBLK
13327  1765'         TAD DTY+1       /PRINT # BLOCKS LEFT
13330  7041          CIA
13331  1364          TAD (2702
13332  3023          DCA VAR
13333  4771'         JMS PRINT
13334  3352          NUTFMT
13335  6202          CIF             /READ CURRENT COMMENT BUFFER
13336  7001          IAC
13337  4773'         JMS RWTAPE
13340  1030          1030
13341  7400  NUTL2,  CBUF
13342  3351          CBLK
13343  4772'         JMS TPERR
13344  6571          SVC; V; TC1SEM
13345  1226
13346  5707
13347  5703          JMP I NUTAPE
13350  0000  CBP,    0
13351  0000  CBLK,   0
13352  1164  NUTFMT, TEXT *I4' BLOCKS LEFT.',/*
13353  4740
13354  0214
13355  1703
13356  1323
13357  4014
13360  0506
13361  2456
13362  4754
13363  5700

/RADAR SYSTEM                             PAL8-V10D NO DATE   PAGE 102


13364  2702
13365  6422
13366  0177
13367  0000
13370  6424
13371  0400
13372  4243
13373  5000
13374  7400
13375  0241
13376  6124
13377  0727
       3400          *3400
             /CHECK FOR TAPE ERROR. IF NOT, RETURN. IF SO, JMP TPERR+2
             /ALSO HANDEL THE END OF TAPE CONDITION
13400  0000  CKTER,  0
13401  1377          TAD (DTY
13402  6647          LDXC SXM 40
13403  1031          TAD DTERR
13404  6602          SXM
13405  7510          SPA
13406  5211          JMP .+3
13407  7200          CLA
13410  5600          JMP I CKTER
13411  7006          RTL             /ERROR DETECTED, END OF TAPE?
13412  7700          SMA CLA
13413  4220          JMS ABMAP       /NO, ABORT MAP
13414  3013          DCA DBP         /END OF TAPE
13415  4776'         JMS TRMAP
13416  4775'         JMS UPDATE
13417  5774'         JMP CMODE

             /ABORT MAP. AC<> -1 => TAPE ERROR
13420  0000  ABMAP,  0
13421  3220          DCA ABMAP
13422  4773'         JMS SETAZ       /STOP ANTENNA
13423  1377          TAD (DTY        /RESET NEXT AVAILABLE BLOCK NUMBER
13424  1772'         TAD DTY+2
13425  3243          DCA ABML1
13426  1643          TAD I ABML1
13427  3771'         DCA DTY+1
13430  4440          JMS I ENPLOT    /RELEASE THE SCOPE
13431  7410          SKP
13432  4770'         JMS SCREL
13433  2220          ISZ ABMAP       /TAPE ERROR?
13434  5767'         JMP TPERR+2
13435  6571          SVC; V; TC1SEM  /NO, RELEASE TAPE CONTROLLER
13436  1226
13437  5707
13440  4766'         JMS PRINT       /WRITE MESSAGE
13441  5107          ABFMT
13442  5774'         JMP CMODE
13443  0000  ABML1,  0

/RADAR SYSTEM                             PAL8-V10D NO DATE   PAGE 103


             /ROUTINE TO GENERATE A RASTOR SCAN. SKIP IF THERE ARE MORE RAYS
             /TO BE TAKEN, WITH THE ANTENNA POSITIONED FOR THE NEXT RAY
13444  0000  RASTOR, 0
13445  2050          ISZ AZNUM       /ANY MORE AZMUTHS THIS SCAN?
13446  5265          JMP RASL1
13447  2047          ISZ ELNUM       /NO, ANY MORE ELEVATIONS?
13450  5254          JMP RASL2
13451  7201          CLA IAC         /NO, DUMP ENOF MAP
13452  3051          DCA TRAY
13453  5644          JMP I RASTOR
13454  7240  RASL2,  STA             /MORE ELEVATIONS. DUMP END OF SCAN
13455  3051          DCA TRAY
13456  1701          TAD I PELST     /DUMP SCAN DESCRIPTOR WORD
13457  2301          ISZ PELST
13460  3052          DCA PELD
13461  4765'         JMS PEL
13462  4302          JMS STAZ        /SET AZMUTH SCAN VELOCITY & WAIT FOR POSITION
13463  2244          ISZ RASTOR
13464  5644          JMP I RASTOR
13465  3051  RASL1,  DCA TRAY        /MORE AZMUTHS, DUMP END OF RAY
13466  4764'         JMS GPOS        /WAIT FOR AZ IN DEGREES TO CHANGE
13467  1042          TAD AZ
13470  6002          IOF
13471  4763'         JMS BADEG
13472  1044          TAD OLDAZ
13473  7450          SNA
13474  5266          JMP RASL1+1
13475  7041          CIA
13476  1044          TAD OLDAZ
13477  3044          DCA OLDAZ
13500  5263          JMP RASL1-2
13501  0000  PELST,  0

/RADAR SYSTEM                             PAL8-V10D NO DATE   PAGE 104


             /ROUTINE TO START UP THE AZIMUTH FOR ONE SCAN, AND INIT. VARIABLES
13502  0000  STAZ,   0
13503  1045          TAD AZHI        /COMPUTE AZNUM
13504  7040          CMA
13505  1046          TAD AZLOW
13506  7500          SMA
13507  1362          TAD (-550
13510  3050          DCA AZNUM
13511  2351          ISZ AZFLG       /COMP. AZFLG TO REVERSE DIRECTIONS
13512  1351          TAD AZFLG       /SET AZIMUTH VELOCITY
13513  0361          AND (1
13514  7450          SNA
13515  7240          STA
13516  4773'         JMS SETAZ
13517  1351          TAD AZFLG       /SET OLDAZ TO - THE ANGLE WR'RE LOOKING FOR 5
13520  7010          RAR
13521  7620          SNL CLA
13522  5325          JMP .+3
13523  1046          TAD AZLOW
13524  7410          SKP
13525  1045          TAD AZHI
13526  7041          CIA
13527  3044          DCA OLDAZ
13530  4764' STAZL,  JMS GPOS        /WAIT FOR AZ=OLDAZ
13531  1042          TAD AZ
13532  6002          IOF
13533  4763'         JMS BADEG
13534  1044          TAD OLDAZ
13535  7450          SNA
13536  5702          JMP I STAZ
13537  7510          SPA             /NOT EQUAL. IF > 3 DEG. AWAY, WAIT BEFORE
13540  7041          CIA             /LOOKING AGAIN
13541  6002          IOF
13542  4760'         JMS DEGBA
13543  7510          SPA
13544  7041          CIA
13545  1357          TAD (-42
13546  7740          SMA SZA CLA
13547  4756'         JMS SMWT
13550  5330          JMP STAZL
13551  0000  AZFLG,  0

/RADAR SYSTEM                             PAL8-V10D NO DATE   PAGE 105


13556  1421
13557  7736
13560  2661
13561  0001
13562  7230
13563  2676
13564  2710
13565  4430
13566  0400
13567  4245
13570  5102
13571  6422
13572  6423
13573  4450
13574  0205
13575  3245
13576  4000
13577  6421
       3600          *3600
             /INITIALIZATION FOR  RECORDING A MAP:
             /       1. SIEZE THE TAPE CONTROLLER
             /       2. FORM THE MAP STATUS BLOCK
             /       3. POSITION THE TAPE FOR RECORDING
             /       4. ADD AN ENTRY INTO THE DIRECTORY
             /       5. INIT. VARIABLES FOR DUMPING DATA
             /       B  DUMP MAP HEADING
13600  0000  INMAP,  0
             /STEP 1
13601  6571          SVC; P; TC1SEM
13602  1200
13603  5707

             /STEP 2
13604  1377          TAD (STBLK      /PUT POINTER TO STATUS BLOCK IN X
13605  6667          LDXC SXM 60
13606  1027          TAD DATE        /INSERT DATE
13607  3101          DCA X+1
13610  6201          CDF             /TIME
13611  6002          IOF
13612  1776          TAD I (CLKL
13613  3102          DCA X+2
13614  1775          TAD I (CLKH
13615  3103          DCA X+3
13616  6005          PION
13617  6211          CDF 10
13620  1031          TAD ICW1        /ICW1
13621  3104          DCA X+4
13622  1032          TAD ICW2        /ICW2
13623  3105          DCA X+5
13624  1041          TAD PT          /PT
13625  7041          CIA
13626  3106          DCA X+6
13627  1046          TAD AZLOW       /AZLOW

/RADAR SYSTEM                             PAL8-V10D NO DATE   PAGE 105-1

13630  3107          DCA X+7
13631  1045          TAD AZHI
13632  3110          DCA X+10
13633  1047          TAD ELNUM       /ELNUM
13634  3111          DCA X+11
13635  1645          TAD I PSTB      /STARTING BLOCK NUMBER
13636  3112          DCA X+12
13637  6602          SXM

             /STEP 3
13640  7001          IAC
13641  6202          CIF
13642  4774'         JMS RWTAPE
13643  1030          1030
13644  0000          0
13645  6422  PSTB,   DTY+1
13646  4773'         JMS TPERR

             /STEP 4
13647  1772'         TAD DTY+2
13650  1371          TAD (DTY
13651  3277          DCA IRCT
13652  1645          TAD I PSTB
13653  3677          DCA I IRCT

             /STEP 5
13654  7240          STA
13655  3013          DCA DBP
13656  1370          TAD (-DB2
13657  3767'         DCA DBCT
13660  7344          CLL STA RAL
13661  3766'         DCA DBFLG
13662  3063          DCA ERRCT
13663  6642          SXM 40
13664  3031          DCA DTERR
13665  6602          SXM

             /STEP 6
13666  1777'         TAD STBLK       /SET UP COUNTER & POINTER
13667  3277          DCA IRCT
13670  1365          TAD (STBLK-1
13671  3010          DCA 10
13672  1410          TAD I 10
13673  4764'         JMS WRDAT
13674  2277          ISZ IRCT
13675  5272          JMP .-3
13676  5600          JMP I INMAP
13677  0000  IRCT,   0

/RADAR SYSTEM                             PAL8-V10D NO DATE   PAGE 106


             /PACK 3 8-BIT NUMBERS INTO TWO WORDS AND DUMP TO DATA BUFFER.
             /8-BIT # IN AC4-11
13700  0000  PCK32,  0
13701  0363          AND (377
13702  7421          MQL
13703  2327          ISZ PK32C       /3RD CHAR?
13704  5322          JMP PK32L
13705  7513          MQA SHL; 3      /YES, INSERT BITS AND DUMP 2 WORDS
13706  0003
13707  0362          AND (7400
13710  1330          TAD PK32B1
13711  4764'         JMS WRDAT
13712  7513          MQA SHL; 3      /WORD 2
13713  0003
13714  0362          AND (7400
13715  1331          TAD PK32B2
13716  4764'         JMS WRDAT
13717  7346          CLL STA RTL     /RESET MOD 3 COUNTER
13720  3327          DCA PK32C
13721  5700          JMP I PCK32
13722  1331  PK32L,  TAD PK32B2      /PUSH NUMBER ONTO STACK
13723  3330          DCA PK32B1
13724  7501          MQA
13725  3331          DCA PK32B2
13726  5700          JMP I PCK32
13727  0000  PK32C,  0
13730  0000  PK32B1, 0
13731  0000  PK32B2, 0

             /IF ^[, ABORT MAP
13732  0000  CKCTRK, 0
13733  6642          SXM 40
13734  1004          TAD CCSW1
13735  6602          SXM
13736  0361          AND (10
13737  7650          SNA CLA
13740  5732          JMP I CKCTRK
13741  7240          STA
13742  4760'         JMS ABMAP

/RADAR SYSTEM                             PAL8-V10D NO DATE   PAGE 107


13760  3420
13761  0010
13762  7400
13763  0377
13764  4072
13765  6343
13766  4120
13767  4117
13770  4200
13771  6421
13772  6423
13773  4243
13774  5000
13775  1056
13776  1055
13777  6344
       4000          *4000
             /TERMINATE MAP (SUCESSFUL (NO TAPE ERRORS))
             /       0. STOP ANTENNA
             /       1. WRITE OUT ANY DATA REMAINING IN THE BUFFER
             /       2. WRITE COMMENTS
             /       3. UPDATE DTY
             /       4. RESET MAP STATUS BLOCK LENGTH TO WIPE OUT COMMENTS
             /       5. RELEASE THE TAPE CONTROLLER
             /       6. RELEASE THE SCOPE
14000  0000  TRMAP,  0
             /STEP 0
14001  4777'         JMS SETAZ

             /STEP 1
14002  1211          TAD TMDB2       /INSERT BUFFER ADDRESS INTO CALLING SEQ.
14003  2320          ISZ DBFLG
14004  7200          CLA
14005  3235          DCA TRML1
14006  1013          TAD DBP         /COMPUTE NUMBER OF BLOCKS TO WRITE
14007  7001          IAC
14010  7427          MQL DVI; TMDB2, DB2
14011  3600
14012  1376          TAD (177
14013  7417          LSR; 6
14014  0006
14015  3271          DCA DBUFN
14016  1271          TAD DBUFN       /DO NOT WRITE PAST END OF TAPE
14017  1636          TAD I TRML1+1
14020  7041          CIA
14021  1375          TAD (2702
14022  7500          SMA
14023  7200          CLA
14024  1271          TAD DBUFN
14025  3271          DCA DBUFN
14026  1271          TAD DBUFN
14027  7750          SPA SNA CLA
14030  5240          JMP TRML2

/RADAR SYSTEM                             PAL8-V10D NO DATE   PAGE 107-1

14031  1271          TAD DBUFN
14032  6202          CIF             /WRITE DATE
14033  4774'         JMS RWTAPE
14034  1034          1034
14035  0000  TRML1,  0
14036  6422          DTY+1
14037  4773'         JMS TPERR

             /STEP 2
14040  1772' TRML2,  TAD STBLK       /SET UP COUNT AND POINTER
14041  3235          DCA TRML1
14042  1371          TAD (STBLK-1
14043  3010          DCA 10
14044  1410          TAD I 10
14045  4770'         JMS WRCB
14046  2235          ISZ TRML1
14047  5244          JMP .-3

             /STEP 3
14050  1636          TAD I TRML1+1   /UPDATE NEXT AVAILABLE BLOCK NUMBER
14051  1271          TAD DBUFN
14052  3636          DCA I TRML1+1
14053  2767'         ISZ DTY+2       /NEXT AVAILABLE ENTRY IN DTY
14054  1772'         TAD STBLK       /NEXT AVAILABLE WORD IN COMMENTS
14055  7041          CIA
14056  1766'         TAD DTY+3
14057  3766'         DCA DTY+3

             /STEP 4
14060  1365          TAD (-LMSB
14061  3772'         DCA STBLK

             /STEP 5
14062  6571          SVC; V; TC1SEM
14063  1226
14064  5707
             /STEP 6
14065  4440          JMS I ENPLOT
14066  7410          SKP
14067  4764'         JMS SCREL

14070  5600          JMP I TRMAP
14071  0000  DBUFN,  0

/RADAR SYSTEM                             PAL8-V10D NO DATE   PAGE 108


             /WRITE THE AC INTO THE DATA BUFFER. DUMP & SWITCH BUFFERS IF NECESSARY

             /DB1=0  /DATA BUFFER 1, MUST START AT LOC 0, FIELD 3
       3600  DB2=3600        /DATA BUFFER 2, ALSO SIZE OF BOTH BUFFERS
       7400  CBUF=7400       /START OF COMMENT BUFFER
       0013  DBP=13
14072  0000  WRDAT,  0
14073  6231          CDF 30          /DUMP WORD
14074  3413          DCA I DBP
14075  6211          CDF 10
14076  2317          ISZ DBCT        /END OF BUFFER?
14077  5672          JMP I WRDAT
14100  6571          SVC; P; WDS1    /YES, WAIT FOR PREVIOUS OPEATIONS TO FINISH
14101  1200
14102  0100

14103  6571          SVC; V; WDS2    /WAKE UP PROCESS TO DUMP BUFFER
14104  1226
14105  0102
14106  1363          TAD (-DB2       /RESET COUNTER
14107  3317          DCA DBCT
14110  2320          ISZ DBFLG       /SWITCH BUFFERS
14111  5672          JMP I WRDAT
14112  7240          STA
14113  3013          DCA DBP
14114  7344          CLL STA RAL
14115  3320          DCA DBFLG
14116  5672          JMP I WRDAT
14117  0000  DBCT,   0
14120  0000  DBFLG,  0

             /DUMP  DATA ONTO TAPE
14121  6571  DBUF,   SVC; P; WDS2    /WAIT FOR SIGNAL TO DUMP BUFFER.
14122  1200
14123  0102
14124  1013          TAD DBP         /INSERT BUFFER ADDRESS INTO ARG. LIST. WE CAN

14125  1362          TAD (-DB2+1     /TRUST THE VALUE OF DBP SINCE THIS PROCESS
14126  3341          DCA DBFL        /HAS SUCH HIGH PRIORITY
14127  1742          TAD I DBFL+1    /IF <=8 WRITES LEFT ON TAPE, RING BELL
14130  1361          TAD (DB2%20-2702
14131  7710          SPA CLA
14132  5335          JMP .+3
14133  1360          TAD (207
14134  4757'         JMS TYPE
14135  1356          TAD (DB2%200    /DUMP BUFFER
14136  6202          CIF
14137  4774'         JMS RWTAPE
14140  1034          1034
14141  0000  DBFL,   0
14142  6422          DTY+1
14143  7000          NOP             /IGNORE ERRORS
14144  1742          TAD I DBFL+1    /UPDATE NEXT AVAILABLE BLOCK NUMBER

/RADAR SYSTEM                             PAL8-V10D NO DATE   PAGE 108-1

14145  1356          TAD (DB2%200
14146  3742          DCA I DBFL+1
14147  6571          SVC; V; WDS1    /SIGNAL DONE
14150  1226
14151  0100
14152  5321          JMP DBUF

/RADAR SYSTEM                             PAL8-V10D NO DATE   PAGE 109


14156  0017
14157  2647
14160  0207
14161  5266
14162  4201
14163  4200
14164  5102
14165  7765
14166  6424
14167  6423
14170  3223
14171  6343
14172  6344
14173  4243
14174  5000
14175  2702
14176  0177
14177  4450
       4200          *4200
             /INITIALIZE FOR RAY PROCESSING. DUMP RAY HEADER, INIT. VARAIBLES.
14200  0000  INRAY,  0
14201  1042          TAD AZ          /DUMP AZ
14202  4777'         JMS WRDAT
14203  1043          TAD EL          /ELEVATION
14204  4777'         JMS WRDAT
14205  6201          CDF             /TIM
14206  1776          TAD I (CLKL
14207  4777'         JMS WRDAT
14210  6201          CDF
14211  1775          TAD I (CLKH
14212  4777'         JMS WRDAT
14213  7346          CLL STA RTL     /INIT. VARIABLES
14214  3774'         DCA PK32C
14215  3773'         DCA CNOIZ
14216  5600          JMP I INRAY

             /TERMINATE RAY. DUMP ANY ACCUMULAED NOISE, THEN DUMP ENOUGH 0
             /TERMINATORS TO FORCE PCK32 TO WRITE
14217  0000  TERAY,  0
14220  1773'         TAD CNOIZ       /DUMP NOISE IF ANY
14221  7450          SNA
14222  5225          JMP .+3
14223  7041          CIA
14224  4772'         JMS PCK32
14225  7125          STL IAC RAL     /DUMP 0S UNTIL PK32C=-3
14226  1774'         TAD PK32C
14227  7650          SNA CLA
14230  5233          JMP .+3
14231  4772'         JMS PCK32
14232  5225          JMP .-5
14233  1051          TAD TRAY        /DUMP RAY TERMINATOR
14234  4777'         JMS WRDAT
14235  1051          TAD TRAY        /IF TERM. IS <0, DUMP SCAN DESCRIPTOR WORD

/RADAR SYSTEM                             PAL8-V10D NO DATE   PAGE 109-1

14236  7700          SMA CLA
14237  5617          JMP I TERAY
14240  1052          TAD PELD
14241  4777'         JMS WRDAT
14242  5617          JMP I TERAY

/RADAR SYSTEM                             PAL8-V10D NO DATE   PAGE 110


             /TAPE ERROR ROUTINE. MAY BE ENTERED BY JMS TPERR OR JMP TPERR+2.
             /SELECT ERROR AND JMS ENTRY ALLOOWS RETRY.
14243  0000  TPERR,  0
14244  7240          STA
14245  3301          DCA TEFLG
14246  6642          SXM 40          /FETCH DTERR AND PUT IN VAR
14247  1031          TAD DTERR
14250  6602          SXM
14251  3023          DCA VAR
14252  1023          TAD VAR         /SELECT ERROR
14253  0371          AND (400
14254  7640          SZA CLA
14255  5264          JMP TERL1
14256  4771' TERL2,  JMS PRINT       /NO, WRITE MESSAGE, RELEASE THE TAPE CONTROLLER
14257  4302          TEF1            /AND GO TO CMODE
14260  6571          SVC; V; TC1SEM
14261  1226
14262  5707
14263  5770'         JMP CMODE
14264  2301  TERL1,  ISZ TEFLG       /YES, ENTERED BY JMS?
14265  5256          JMP TERL2
14266  4771'         JMS PRINT       /PRINT MEGGASE
14267  4330          TEF2
14270  4767'         JMS TOKES       /WAIT
14271  1420          TAD I TP        /IF NO WAS TYPED, DON'T RETRY
14272  1366          TAD (-OPRT-2
14273  7650          SNA CLA
14274  5260          JMP TERL2+2
14275  1243          TAD TPERR
14276  1365          TAD (-7
14277  3243          DCA TPERR
14300  5643          JMP I TPERR
14301  0000  TEFLG,  0
14302  6536  TEF1,   TEXT /5^G'TAPE ERROR, OPERATION ABORTED. B= ',I5/
14303  0747
14304  2401
14305  2005
14306  4005
14307  2222
14310  1722
14311  5440
14312  1720
14313  0522
14314  0124
14315  1117
14316  1640
14317  0102
14320  1722
14321  2405
14322  0456
14323  4002
14324  7540
14325  4754

/RADAR SYSTEM                             PAL8-V10D NO DATE   PAGE 110-1

14326  1165
14327  0000
14330  6536  TEF2,   TEXT /5^G'YOU BLEW IT, SPORT! FIX TAPE & HIT RETURN.',/
14331  0747
14332  3117
14333  2540
14334  0214
14335  0527
14336  4011
14337  2454
14340  4023
14341  2017
14342  2224
14343  4140
14344  0611
14345  3040
14346  2401
14347  2005
14350  4046
14351  4010
14352  1124
14353  4022
14354  0524
14355  2522
14356  1656
14357  4754
14360  0000

/RADAR SYSTEM                             PAL8-V10D NO DATE   PAGE 111


14365  7771
14366  6776
14367  0426
14370  0205
14371  0400
14372  3700
14373  4427
14374  3727
14375  1056
14376  1055
14377  4072
       4400          *4400
             /ROUTINE (CALLED BY PROS) TO PACK NOISE AND PUT SAMPLES IN THE BUFFER.
             /SAMPLE IN MQ ON ENTRY. MQ=0=>NOISE. CLOBBERS MQ
14400  0000  DUMP,   0
14401  7501          MQA
14402  7440          SZA
14403  5206          JMP .+3
14404  2227          ISZ CNOIZ       /PACK NIOSE
14405  5600          JMP I DUMP
14406  3226          DCA DMPSV
14407  1227          TAD CNOIZ       /DUMP SAMPLE. FIRST, DUMP ANY NOISE
14410  7450          SNA
14411  5215          JMP .+4
14412  7041          CIA
14413  4777'         JMS PCK32
14414  3227          DCA CNOIZ
14415  1226          TAD DMPSV       /NOW DUMP SAMPLE
14416  0376          AND (7600       /TEST FOR 0<SAMPLE<128, ELSE DUMP ZERO
14417  7650          SNA CLA
14420  1226          TAD DMPSV
14421  7450          SNA
14422  2063          ISZ ERRCT
14423  7000          NOP
14424  4777'         JMS PCK32
14425  5600          JMP I DUMP
14426  0000  DMPSV,  0
14427  0000  CNOIZ,  0

/RADAR SYSTEM                             PAL8-V10D NO DATE   PAGE 112


             /POSITION ELEVATION. BINARY ANGLE IN PELD.
       6422  SEL73=6422
14430  0000  PEL,    0
14431  1032          TAD ICW2        /WHICH RADAR?
14432  7006          RTL
14433  7620          SNL CLA
14434  5243          JMP PELL1

             /WR66
14435  1052          TAD PELD
14436  3053          DCA DEL66
14437  4775' PELL2,  JMS SMWT        /FOR NOW
14440  4775'         JMS SMWT
14441  4775'         JMS SMWT
14442  5630          JMP I PEL

             /WR73
14443  1052  PELL1,  TAD PELD
14444  1374          TAD (2434
14445  6422          SEL73
14446  7200          CLA
14447  5237          JMP PELL2

             /SET AZIMUTH VELOCITY FOR SCAN. DIRECTION OF MOTION IN AC:
             /<0 => CCW, =0 => STOP, >0 => CW.
       6440  INI=6440
14450  0000  SETAZ,  0
14451  3302          DCA SAZV
14452  1032          TAD ICW2        /WHICH RADAR
14453  7006          RTL
14454  7620          SNL CLA
14455  5273          JMP SAZL1

             /WR66
14456  1302          TAD SAZV
14457  1373          TAD (SAZT2+1
14460  3302          DCA SAZV
14461  6002          IOF
14462  1055          TAD EL4AV
14463  0372          AND (7400
14464  1702          TAD I SAZV
14465  3055          DCA EL4AV
14466  4771'         JMS SS66
14467  5650          JMP I SETAZ
14470  0150  SAZT2,  0150; 0200; 0270        /FOR PRF=250
14471  0200
14472  0270

             /WR73
14473  1302  SAZL1,  TAD SAZV
14474  1370          TAD (SAZT+1
14475  3302          DCA SAZV
14476  1702          TAD I SAZV

/RADAR SYSTEM                             PAL8-V10D NO DATE   PAGE 112-1

14477  6441          INI 1
14500  7200          CLA
14501  5650          JMP I SETAZ
14502  0000  SAZV,   0
14503  1300  SAZT,   1300; 1000; 520
14504  1000
14505  0520

/RADAR SYSTEM                             PAL8-V10D NO DATE   PAGE 113


             /ROUTINE TO SET THE ELEVATION LIST
14506  0000  EXELST, 0
14507  1367          TAD (EXEL1+1    /SET UP FOR CALLING BCDBA
14510  3766'         DCA BCDBA
14511  1365          TAD (ELIST-1    /SET UP POINTER TO ELIST
14512  3010          DCA 10
14513  4764'         JMS GETSV       /GET FIRST VALUE
14514  5706          JMP I EXELST    /FOR NOW
14515  5763' EXEL1,  JMP TENBA       /CONVERT TENTHS TO BINARY ANGLE
14516  3410          DCA I 10
14517  1420          TAD I TP        /IF NEXT TOKEN IS A COMMA, CONTINUE
14520  1362          TAD (-TRMT-",
14521  7640          SZA CLA
14522  5706          JMP I EXELST
14523  2020          ISZ TP          /COMMA FOUND, IS NEXT TOKEN A NUMBER?
14524  1420          TAD I TP
14525  2020          ISZ TP
14526  0372          AND (7400
14527  1372          TAD (-NUMT
14530  7640          SZA CLA
14531  5761'         JMP CMDER
14532  1420          TAD I TP        /CONVERT NEXT NUMBER
14533  2020          ISZ TP
14534  5315          JMP EXEL1

/RADAR SYSTEM                             PAL8-V10D NO DATE   PAGE 114


14561  0241
14562  6124
14563  3030
14564  0727
14565  6323
14566  3000
14567  4516
14570  4504
14571  5343
14572  7400
14573  4471
14574  2434
14575  1421
14576  7600
14577  3700
       4600          *4600
             /COMMAND TO SET ELEVATION
14600  0000  EXEL,   0
14601  1377          TAD (.+5        /SET UP TO CALL TENBA
14602  3776'         DCA BCDBA
14603  4775'         JMS GETSV       /GET ANGLE IN TENTHS
14604  5600          JMP I EXEL      /FOR NOW
14605  5774'         JMP TENBA       /CONVERT TO BINARY ANGLE
14606  3052          DCA PELD
14607  4773'         JMS PEL         /POSITION ELEVATION
14610  5600          JMP I EXEL

             /COMMAND TO ZERO TAPE
14611  0000  EXZERO, 0
14612  6571          SVC; P; TC1SEM
14613  1200
14614  5707
14615  6202          CIF             /WRITE OUT ZDTY
14616  7001          IAC
14617  4772'         JMS RWTAPE
14620  1014          1014
14621  4631          ZDTY
14622  4771          (0
14623  5770'         JMP TPERR+2
14624  6571          SVC; V; TC1SEM
14625  1226
14626  5707
14627  4767'         JMS NUTAPE
14630  5611          JMP I EXZERO
14631  0000  ZDTY,   0; 22; 12; 0; 13; 0; 0; 0; 0; 0
14632  0022
14633  0012
14634  0000
14635  0013
14636  0000
14637  0000
14640  0000
14641  0000

/RADAR SYSTEM                             PAL8-V10D NO DATE   PAGE 114-1

14642  0000
             /COMMAND TO DUMP STATUS
14643  0000  EXST,   0
14644  6571          SVC
14645  2600          CALL
14646  4651          EXSTL
14647  7200          CLA
14650  5643          JMP I EXST
14651  3122  EXSTL,  WRITE
14652  0001          01
14653  0010          10; OUT
14654  0022
14655  0010          10; IN
14656  0021
14657  0010          10; EXSTF
14660  4665
14661  0010          10; STATUS; 10; (STNUM
14662  6315
14663  0010
14664  4766
14665  4723  EXSTF,  TEXT *'STATUS:',/2X'WR',I2',  PT66= ',I3',  PT73= ',I3>*
14666  2401
14667  2425
14670  2372
14671  4754
14672  5762
14673  3047
14674  2722
14675  4754
14676  1162
14677  4754
14700  4040
14701  2024
14702  6666
14703  7540
14704  4754
14705  1163
14706  4754
14707  4040
14710  2024
14711  6763
14712  7540
14713  4754
14714  1163
14715  7600
14716  4740          TEXT *'  RANGE= ',I3' TO ',I3' KM,',/2XI3>*
14717  4022
14720  0116
14721  0705
14722  7540
14723  4754
14724  1163
14725  4740
14726  2417
14727  4047

/RADAR SYSTEM                             PAL8-V10D NO DATE   PAGE 114-2

14730  5411
14731  6347
14732  4013
14733  1554
14734  4754
14735  5762
14736  3011
14737  6376
14740  0000
14741  4740          TEXT *' SAMPLES INTEGRATED,  TNP= ',I1/*
14742  2301
14743  1520
14744  1405
14745  2340
14746  1116
14747  2405
14750  0722
14751  0124
14752  0504
14753  5440
14754  4024
14755  1620
14756  7540
14757  4754
14760  1161
14761  5700

/RADAR SYSTEM                             PAL8-V10D NO DATE   PAGE 115


14766  0007
14767  3303
14770  4245
14771  0000
14772  5000
14773  4430
14774  3030
14775  0727
14776  3000
14777  4606
       5000          *5000
             /COMMAND TO INSERT COMMENTS INTO THE MAP STATUS BLOCK
15000  0000  EXCOM,  0
15001  1420          TAD I TP        /IS A STRING NEXT?
15002  0377          AND (7400
15003  1376          TAD (-STRT
15004  7640          SZA CLA
15005  5775'         JMP CMDER
15006  1420          TAD I TP        /YES, GET SIZE, NEGATE
15007  2020          ISZ TP
15010  0374          AND (377
15011  7041          CIA
15012  3231          DCA EXCMC
15013  1373          TAD (-LMSB      /ADJUST LENGTH OF MAP STATUS BLOCK
15014  1231          TAD EXCMC
15015  3772'         DCA STBLK
15016  1231          TAD EXCMC       /IF LENGTH IS ZERO, RETURN
15017  7650          SNA CLA
15020  5600          JMP I EXCOM
15021  1371          TAD (STBLK+LMSB-1       /DUMP STRING
15022  3010          DCA 10
15023  1420          TAD I TP
15024  2020          ISZ TP
15025  3410          DCA I 10
15026  2231          ISZ EXCMC
15027  5223          JMP .-4
15030  5600          JMP I EXCOM
15031  0000  EXCMC,  0

/RADAR SYSTEM                             PAL8-V10D NO DATE   PAGE 116


             /CALL THE DISPLAY SYSTEM
15032  1376  DSPLY,  TAD (6000       /BUFFER ADDRESS
15033  6605          LDXC
15034  1370          TAD (2020       /TAPE UNIT 2, FIELD 2
15035  7421          MQL
15036  7105          CLL IAC RAL     /READ FROM TTY2
15037  6571          SVC
15040  2600          CALL
15041  5045          DSPL2
15042  7402          HLT
15043  7200          CLA
15044  5232          JMP DSPLY
15045  0200  DSPL2,  0200
15046  0022          0022

/RADAR SYSTEM                             PAL8-V10D NO DATE   PAGE 117


             /ATTEMPT TO GRAB SCOPE. IF ALREADY IN USE, PRINT MESSAGE AND GO
             /TO CMODE. IF NOT IN USE, SET SCFLG AND RETURN
15047  0000  SGRAB,  0
15050  4267          JMS SCFTS       /TEST AND SET SCOPE FLAG
15051  7410          SKP
15052  5647          JMP I SGRAB     /NOT IN USE
15053  4767'         JMS PRINT       /IN USE
15054  5056          SGFMT
15055  5766'         JMP CMODE
15056  4723  SGFMT,  TEXT /'SCOPE IN USE!',/
15057  0317
15060  2005
15061  4011
15062  1640
15063  2523
15064  0541
15065  4754
15066  0000

             /TEST AND SET SCOPE FLAG. SKIP IF NOT IN USE
15067  0000  SCFTS,  0
15070  6002          IOF
15071  6642          SXM 40
15072  1037          TAD SCFLG
15073  7640          SZA CLA
15074  5277          JMP .+3
15075  2037          ISZ SCFLG
15076  2267          ISZ SCFTS
15077  6602          SXM
15100  6005          PION
15101  5667          JMP I SCFTS

             /RELEASE SCOPE
15102  0000  SCREL,  0
15103  6642          SXM 40
15104  3037          DCA SCFLG
15105  6602          SXM
15106  5702          JMP I SCREL

             /MESSAGE WRITTEN IF A MAP IS ABORTED
15107  4715  ABFMT,  TEXT /'MAP ABORTED!',/
15110  0120
15111  4001
15112  0217
15113  2224
15114  0504
15115  4147
15116  5400

/RADAR SYSTEM                             PAL8-V10D NO DATE   PAGE 118


15166  0205
15167  0400
15170  2020
15171  6356
15172  6344
15173  7765
15174  0377
15175  0241
15176  6000
15177  7400
       5200          *5200
             /CONTROL WR66 ELEVATION. USE TIMER #2 TO RUN EVERY 125 MS. COMPUTE
             /AND SEND ELEVATION COMMAND, DESIRED EL. IS IN DEL66. IF WR73,
             /P ON ECSEM.
15200  6571  ECT66,  SVC; P; ECSEM   /WAIT FOR EXWR66
15201  1200
15202  0104
15203  1032          TAD ICW2        /WR73?
15204  7006          RTL
15205  7620          SNL CLA
15206  5200          JMP ECT66
15207  1043          TAD EL          /UPDATE OLDEL
15210  3056          DCA OLDEL
15211  4275          JMS GEL66       /READ ELEVATION
15212  1043          TAD EL          /COMPUTE VELOCITY COMMAND IN BINARY UNITS
15213  7041          CIA             /PER SECOND
15214  1053          TAD DEL66
15215  4316          JMS SKMPY; 5    /(11.1)
15216  0005
15217  7415          ASR; 0
15220  0000
15221  3274          DCA ECVC
15222  1043          TAD EL
15223  7041          CIA
15224  1056          TAD OLDEL
15225  4316          JMS SKMPY; 4    /(12.0)
15226  0004
15227  1274          TAD ECVC
15230  4316          JMS SKMPY; 33   /(7.5) CONVERT TO WR66 INTERFACE UNITS
15231  0033
15232  7415          ASR; 4
15233  0004
15234  7450          SNA             /ELIMINATE DEAD SPOT
15235  5241          JMP .+4
15236  7510          SPA
15237  1377          TAD (-20-30
15240  1376          TAD (30
15241  1375          TAD (200
15242  7433          MQL SHL; 7      /SEND IT OUT
15243  0007
15244  7521          MQL MQA
15245  3274          DCA ECVC
15246  6002          IOF

/RADAR SYSTEM                             PAL8-V10D NO DATE   PAGE 118-1

15247  1055          TAD EL4AV
15250  0374          AND (377
15251  1274          TAD ECVC
15252  3055          DCA EL4AV
15253  7513          MQA SHL; 7
15254  0007
15255  3054          DCA EVH4
15256  4343          JMS SS66
15257  1272          TAD ECL         /SET UP TIMER #2, WAIT
15260  6647          LDXC SXM 40
15261  3100          DCA X
15262  3101          DCA X+1
15263  7240          STA
15264  3102          DCA X+2
15265  7240          STA
15266  3103          DCA X+3
15267  6602          SXM
15270  6571          SVC
15271  1200          P
15272  1064  ECL,    ITM2
15273  5203          JMP ECT66+3
15274  0000  ECVC,   0

             /READ WR66 ELEVATION INTO EL
15275  0000  GEL66,  0
15276  6002          IOF
15277  6111          INA 1           /LATCH S/D
15300  7346          CLL STA RTL     /WAIT A BIT
15301  7001          IAC
15302  7440          SZA
15303  5301          JMP .-2
15304  6113          INA 3           /LOW BITS
15305  7421          MQL
15306  6117          INA 7           /HIGH BITS
15307  6314          FRE 4
15310  6005          PION
15311  7012          RTR
15312  7413          SHL; 11
15313  0011
15314  3043          DCA EL
15315  5675          JMP I GEL66

             /MULTIPLY THE SIGNED NUMBER IN THE AC BY THE POSITIVE CONSTANT
             /FOLLOWING THE JMS. RETURN THE RESULT IN THE AC. IF OVERFLOW,
             /RETURN +-2047
15316  0000  SKMPY,  0
15317  7120          STL
15320  7510          SPA             /ABSOLUTE VALUE, SAVE SIGN
15321  7061          CIA CML
15322  7421          MQL
15323  7244          STA RAL         /SAVE SIGN (-2 NEGATIVE, -1 POSITIVE)
15324  3342          DCA SKMSG
15325  1716          TAD I SKMPY
15326  2316          ISZ SKMPY
15327  3331          DCA .+2

/RADAR SYSTEM                             PAL8-V10D NO DATE   PAGE 118-2

15330  7405          MUY; 0
15331  0000
15332  7640          SZA CLA         /CHECK FOR OVERFLOW
15333  5336          JMP .+3
15334  7501          MQA
15335  7510          SPA
15336  7350          CLL STA RAR
15337  2342          ISZ SKMSG
15340  7041          CIA
15341  5716          JMP I SKMPY
15342  0000  SKMSG,  0

             /SEND WR66 SERVO INFO FROM EVH4, EL4AV
15343  0000  SS66,   0
15344  1055          TAD EL4AV
15345  6516          WL66
15346  7327          STL CLA IAC RTL
15347  1054          TAD EVH4
15350  6517          WH66
15351  6005          PION
15352  5743          JMP I SS66

/RADAR SYSTEM                             PAL8-V10D NO DATE   PAGE 119


15374  0377
15375  0200
15376  0030
15377  7730
       5400          *5400
             /DISPLAY AZ&EL ON SCOPE
15400  0000  DAZEL,  0
15401  1042          TAD AZ          /CONVERT BINARY ANGLES TO DEGREES
15402  6002          IOF             /AZ
15403  4777'         JMS BADEG
15404  3222          DCA DAEV
15405  1043          TAD EL          /EL
15406  7425          MQL MUY; 550
15407  0550
15410  3223          DCA DAEV+1
15411  7405          MUY; 12
15412  0012
15413  3224          DCA DAEV+2
15414  4776'         JMS SETSC       /SET SCOPE POINTERS
15415  6571          SVC             /WRITE IT OUT
15416  2600          CALL
15417  5425          DAELST
15420  7200          CLA
15421  5600          JMP I DAZEL
15422  0000  DAEV,   0; 0; 0
15423  0000
15424  0000
15425  3122  DAELST, WRITE
15426  0001          01
15427  0010          10; DIDEV
15430  0064
15431  0010          10; (0
15432  5575
15433  0010          10; DAEFMT
15434  5441
15435  0010          10; DAEV; 10; (3
15436  5422
15437  0010
15440  5574
15441  1163  DAEFMT, TEXT /I3,2XI2'.',I1/
15442  5462
15443  3011
15444  6247
15445  5647
15446  5411
15447  6100

/RADAR SYSTEM                             PAL8-V10D NO DATE   PAGE 120


             /DISPLAY TIME ON SCOPE
15450  0000  DTIME,  0
15451  4776'         JMS SETSC
15452  6571          SVC
15453  2600          CALL
15454  5457          DTMLST
15455  7200          CLA
15456  5650          JMP I DTIME
15457  3122  DTMLST, WRITE
15460  0001          01
15461  0010          10; DIDEV
15462  0064
15463  0010          10; (0
15464  5575
15465  0010          10; DTMFMT
15466  5473
15467  0000          00; CLKL; 10; (2
15470  1055
15471  0010
15472  5573
15473  2400  DTMFMT, TEXT /T/

/RADAR SYSTEM                             PAL8-V10D NO DATE   PAGE 121


             /DISPLAY MAX DBZ. IF <MAP RECALL>, RESET RMAX
15474  0000  DMAX,   0
15475  1061          TAD ESRW1
15476  0372          AND (400
15477  7640          SZA CLA
15500  3060          DCA RMAX        /YES, ZERO RMAX
15501  4776'         JMS SETSC       /WRITE STUFF
15502  6571          SVC
15503  2600          CALL
15504  5507          DMXLST
15505  7200          CLA
15506  5674          JMP I DMAX
15507  3122  DMXLST, WRITE
15510  0001          01
15511  0010          10; DIDEV
15512  0064
15513  0010          10; (0
15514  5575
15515  0010          10; DMXFMT
15516  5523
15517  0010          10; CMAX; 10; (2
15520  0057
15521  0010
15522  5573
15523  1162  DMXFMT, TEXT /I2', ',I2' DBZ',/
15524  4754
15525  4047
15526  5411
15527  6247
15530  4004
15531  0232
15532  4754
15533  0000
15534  5546  DTAB,   DNOP; DBZKM; DAZEL; DTIME; DMAX; DBZKM; DNOP; DNOP
15535  2400
15536  5400
15537  5450
15540  5474
15541  2400
15542  5546
15543  5546
15544  5546          DNOP; DNOP
15545  5546
15546  0000  DNOP,   0
15547  5746          JMP I DNOP

/RADAR SYSTEM                             PAL8-V10D NO DATE   PAGE 122


15572  0400
15573  0002
15574  0003
15575  0000
15576  2532
15577  2676
       5600          *5600
             /HANDLE HMAX AND CMAX. DBZ IN MQ
15600  0000  HMAX,   0
15601  7501          MQA
15602  1377          TAD (-DBZBAS
15603  7041          CIA
15604  3224          DCA HMAXV
15605  1224          TAD HMAXV               /COMPARE TO CMAX
15606  1057          TAD CMAX
15607  7700          SMA CLA
15610  5214          JMP .+4
15611  1224          TAD HMAXV
15612  7041          CIA
15613  3057          DCA CMAX
15614  1224          TAD HMAXV               /COMPARE TO RMAX
15615  1060          TAD RMAX
15616  7700          SMA CLA
15617  5600          JMP I HMAX
15620  1224          TAD HMAXV
15621  7041          CIA
15622  3060          DCA RMAX
15623  5600          JMP I HMAX
15624  0000  HMAXV,  0

/RADAR SYSTEM                             PAL8-V10D NO DATE   PAGE 123


             /READ ESR WD1 AND PUT IN ESRW1. WRITE BACK TO OSW1 THOSE BITS
             /INDICATED BY THE WORD FOLLOWING THE JMS, EXCEPT FOR BIT 7,
             /WHICH SHOULD BE ICW2(2)  COMPLEMENTED.
15625  0000  GESR1,  0
15626  7330          CLA STL RAR     /SELECT WD1
15627  6365          ESR 5
15630  1032          TAD ICW2        /GET ICW2(2), COMP. AND PUT IN MQ
15631  7040          CMA
15632  0376          AND (2000
15633  7437          MQL LSR; 5
15634  0005
15635  6362          ESR 2           /GET WD1
15636  3061          DCA ESRW1
15637  1061          TAD ESRW1       /WRITE OSW1
15640  0625          AND I GESR1
15641  2225          ISZ GESR1
15642  7501          MQA
15643  6451          OSW 1
15644  7200          CLA
15645  5625          JMP I GESR1

             /WRITE WORD TO TI IF ESRW1(8), BUT WAIT NO MORE THAN 200 USEC.
             /NUMBER IN AC.
15646  0000  TICW,   0
15647  3275          DCA TICWV
15650  1061          TAD ESRW1       /SEND ENABLED?
15651  0375          AND (10
15652  7650          SNA CLA
15653  5646          JMP I TICW
15654  1274          TAD TICWF       /CHECK FLAG
15655  7640          SZA CLA
15656  5646          JMP I TICW
15657  1374          TAD (-23        /SET UP COUNT
15660  3273          DCA TICWC
15661  1275          TAD TICWV               /ATTEMPT TO WRITE
15662  6162  TICWL,  TIW
15663  5266          JMP .+3
15664  7200          CLA             /SUCESSFUL, RETURN
15665  5646          JMP I TICW
15666  2273          ISZ TICWC       /UNSUCESSFUL, TOO LONG?
15667  5262          JMP TICWL
15670  7201          CLA IAC         /YES, SET FLAG
15671  3274          DCA TICWF
15672  5646          JMP  I TICW
15673  0000  TICWC,  0
15674  0000  TICWF,  0
15675  0000  TICWV,  0

             /SET UP FOR REAL TIME PPI DISPLAY
15676  0000  SPPI,   0
15677  3274          DCA TICWF
15700  1373          TAD (5252       /SEND SYNC
15701  4246          JMS TICW

/RADAR SYSTEM                             PAL8-V10D NO DATE   PAGE 123-1

15702  7130          STL RAR         /COMMAND
15703  4246          JMS TICW
15704  1042          TAD AZ          /AZ
15705  4246          JMS TICW
15706  1375          TAD (10         /WIDTH
15707  4246          JMS TICW
15710  1031          TAD ICW1        /ICW1
15711  4246          JMS TICW
15712  5676          JMP I SPPI

/RADAR SYSTEM                             PAL8-V10D NO DATE   PAGE 124


15773  5252
15774  7755
15775  0010
15776  2000
15777  7730
       6000          *6000
             /ROUTINE TO WAIT THE NUMBER OF SECONDS IN THE AC, BUT IF ^S IS
             /TYPED, GO TO CMODE. USES TIMER #4
16000  0000  WTCK,   0
16001  7041          CIA
16002  3233          DCA WTCKT
16003  1215          TAD PITM1       /SET UP TIMER #1 FOR 1 SEC.
16004  6647          LDXC SXM 40
16005  3100          DCA X
16006  3101          DCA X+1
16007  7240          STA
16010  3103          DCA X+3
16011  1377          TAD (-10
16012  3102          DCA X+2
16013  6571          SVC; P          /WAIT
16014  1200
16015  1074  PITM1,  ITM4
16016  1005          TAD CCSW1+1     /^S?
16017  0376          AND (200
16020  7650          SNA CLA
16021  5227          JMP .+6
16022  1005          TAD CCSW1+1     /CLEAR ^S
16023  0375          AND (7577
16024  3005          DCA CCSW1+1
16025  6602          SXM
16026  5774'         JMP CMODE
16027  2233          ISZ WTCKT
16030  5203          JMP WTCK+3
16031  6602          SXM
16032  5600          JMP I WTCK
16033  0000  WTCKT,  0

             /WAIT COMMAND
16034  0000  EXCL,   0
16035  1025          TAD PNUM
16036  7450          SNA
16037  5634          JMP I EXCL
16040  7425          MQL MUY; 74
16041  0074
16042  7701          CLA MQA
16043  4200          JMS WTCK
16044  5634          JMP I EXCL

/RADAR SYSTEM                             PAL8-V10D NO DATE   PAGE 125


             /"(" COMMAND. SET UP PLOOP AND ITM3
16045  0000  EXLP,   0
16046  7240          STA     /SET UP PLOOP: TP-1 IF PNUM=1,
16047  1025          TAD PNUM        /       TP-3 IF PNUM<>1
16050  7640          SZA CLA
16051  7105          CLL IAC RAL
16052  7040          CMA
16053  1020          TAD TP
16054  3062          DCA PLOOP
16055  1025          TAD PNUM
16056  7421          MQL
16057  1373          TAD (ITM3       /SET TIMER #3
16060  6647          LDXC SXM 40
16061  3100          DCA X
16062  3101          DCA X+1
16063  7405          MUY; 74
16064  0074
16065  7701          CLA MQA
16066  7040          CMA
16067  3103          DCA X+3
16070  7240          STA
16071  3102          DCA X+2
16072  6602          SXM
16073  5645          JMP I EXLP

             /")" COMMAND. WAIT FOR TIMER, THEN SET TP=PLOOP
16074  0000  EXRP,   0
16075  1062          TAD PLOOP       /IS PLOOP NON-ZERO?
16076  7650          SNA CLA
16077  5674          JMP I EXRP      /NO, IGNORE ")" SINCE NO "("
16100  1373          TAD (ITM3       /WAIT FOR TIMER
16101  6647          LDXC SXM 40
16102  3102          DCA X+2         /STOP TIMER
16103  1103          TAD X+3 /GET # SECONDS LEFT
16104  7041          CIA
16105  7450          SNA
16106  7001          IAC
16107  4200          JMS WTCK        /WAIT
16110  1062          TAD PLOOP
16111  3020          DCA TP
16112  5674          JMP I EXRP

/RADAR SYSTEM                             PAL8-V10D NO DATE   PAGE 126


16173  1070
16174  0205
16175  7577
16176  0200
16177  7770
       6200          PAGE
             /TABLES
16200  0273  TERTAB, ";; EXSCL; "(; EXLP; "); EXRP; ":; EXCL
16201  0333
16202  0250
16203  6045
16204  0251
16205  6074
16206  0272
16207  6034
16210  0000          0

16211  3105  OPRTAB, TEXT /YES NO SC,TTY WR66 WR73 PT66 PT73 SAM,TNP RAN,BUGS DI /
16212  2340
16213  1617
16214  4023
16215  0354
16216  2424
16217  3140
16220  2722
16221  6666
16222  4027
16223  2267
16224  6340
16225  2024
16226  6666
16227  4020
16230  2467
16231  6340
16232  2301
16233  1554
16234  2416
16235  2040
16236  2201
16237  1654
16240  0225
16241  0723
16242  4004
16243  1140
16244  0000
16245  0132          TEXT /AZ,REC,LOAD UPD,ELIST EL,ZERO ST,COM,./
16246  5422
16247  0503
16250  5414
16251  1701
16252  0440
16253  2520
16254  0454

/RADAR SYSTEM                             PAL8-V10D NO DATE   PAGE 126-1

16255  0514
16256  1123
16257  2440
16260  0514
16261  5432
16262  0522
16263  1740
16264  2324
16265  5403
16266  1715
16267  5456
16270  0000
16271  0336  OPREX,  EXSC; EXTTY; EXWR66; EXWR73; EXPT66; EXPT73; EXSAM;  EXTNP
16272  0343
16273  1032
16274  1036
16275  1047
16276  1062
16277  1110
16300  1127
16301  1200          EXRAN; EXBUG; EXDI; EXAZ; EXREC; NUTAPE; UPDATE; EXELST
16302  1400
16303  1600
16304  3200
16305  3046
16306  3303
16307  3245
16310  4506
16311  4600          EXEL; EXZERO; EXST; EXCOM
16312  4611
16313  4643
16314  5000
16315  0102  STATUS, 102     /RADAR (INIT=WR66)
16316  0001          1       /PT66
16317  7771          -7      /PT73
16320  0012          12      /STARTING KM
16321  0146          146     /ENDING KM  (INIT=102)
16322  0040          40      /# OF SAMPLES
16323  0001          1       /TNP
       0007  STNUM=.-STATUS

16324  0006  ELIST,  6; 13; 27; 42; 56; 104; 133; 162; 211; 253; 344; 525
16325  0013
16326  0027
16327  0042
16330  0056
16331  0104
16332  0133
16333  0162
16334  0211
16335  0253
16336  0344
16337  0525
16340  1000          1000; 1000; 1000; 1000
16341  1000

/RADAR SYSTEM                             PAL8-V10D NO DATE   PAGE 126-2

16342  1000
16343  1000
16344  0000  STBLK,  ZBLOCK 55
16421  0000  DTY,    ZBLOCK 200
16621  0000  TKBUF,  ZBLOCK 110
16731  0000  ITGBUF, ZBLOCK 144
             $
             /PAGE 0, FIELD 2
       0002          FIELD 2
             /WORKING REGISTER DEFINITIONS
       0101  VAR=X+WRALST
       0110  TP=X+WR0
       0103  IN=X+WRAC
       0111  OUT=X+WR1
       0112  PNUM=X+WR2
       0113  CNUM=X+WR3
                     NOPUNCH
       0114          *X+WR
20114  0000  ICW1,   0
20115  0000  OPTS,   0
20116  0000  R0,     0
20117  0000  R1,     0
20120  0000  R2,     0
20121  0000  R3,     0
20122  0000  R4,     0
20123  0000  R5,     0
20124  0000  R6,     0
20125  0000  R7,     0
20126  0000  R8,     0
20127  0000  R9,     0
20130  0000  R10,    0
20131  0000  R11,    0

/DISPLAY SYSTEM                           PAL8-V10D NO DATE   PAGE 72-1

20132  0000  R12,    0
20133  0000  LK1,    0       /LINKAGE STACK
20134  0000  LK2,    0
20135  0000  LK3,    0
20136  0000  LK4,    0
20137  0000  LK5,    0
20140  0000  LK6,    0
       0041  DSPWR=.-100

             /MAP DESCRIPTOR BLOCK
       0355          *DTY+155
20355  0000  MAPN,   0
20356  0000  AZCEN,  0
20357  0000  AZHS,   0
20360  0000  ELCEN,  0
20361  0000  ELHS,   0
20362  0000  BINC,   0
20363  0000  BINHS,  0

             /RAY HEADER
       0000          *SCR
20000  0000  SDW,    0
20001  0000  AZB,    0
20002  0000  ELB,    0
20003  0000  TIME,   0;0
20004  0000
20005  0000  AZD,    0
20006  0000  ELD,    0;0
20007  0000
                     ENPUNCH

/DISPLAY SYSTEM                           PAL8-V10D NO DATE   PAGE 73


       0200          *200
             /DISPLAY MAIN PROGRAM AND COMMAND LOOP
             /ENTERED BY SVC CALL MECHANISM. ARGUMENTS:
             /       AC= INPUT DEVICE NUMBER (ALSO=TOKEN BUFFER SWITCH)
             /       MQ(0-2)= DECTAPE UNIT NUMBER
             /       MQ(3-5,9-11)=0
             /       MQ(6-8)=FIELD OF A DATA BUFFER
             /       X= ADDRESS OF THE DATA BUFFER (1K- 8 PAGES)
20200  0041  DSPLY,  DSPWR
20201  6646          SXM 40 XCLA
20202  1103          TAD IN
20203  3111          DCA OUT

             /COMMAND LOOP
20204  6002  CMODE,  IOF
20205  4777'         JMS PRINT       /PRINT "OK, "
20206  0312          FMT01
20207  6002          IOF
20210  4776'         JMS TOKES       /READ LINE
20211  7001          IAC             /SET CNUM
20212  3113          DCA CNUM
20213  7001  CLOOP,  IAC             /COMMAND LOOP.
20214  3112          DCA PNUM
20215  1510          TAD I TP        /GET TOKEN TYPE
20216  7450          SNA
20217  5204          JMP CMODE
20220  0375          AND (7400
20221  1375          TAD (-NUMT      /IS IT A NUMBER
20222  7450          SNA
20223  5247          JMP CMDN
20224  1375          TAD (NUMT-OPRT  /IS IT AN OPERATOR
20225  7450          SNA
20226  5254          JMP CMDO
20227  1375          TAD (OPRT-TRMT  /IS IT A TERMINATOR
20230  7650          SNA CLA
20231  5271          JMP CMDT
20232  1510          TAD I TP        /STRING, IGNORE
20233  0374          AND (377
20234  1110          TAD TP
20235  7001          IAC
20236  3110          DCA TP
20237  5213          JMP CLOOP
20240  7200  CMDER,  CLA             /SYNTAX ERROR, PRINT MESSAGE
20241  1113          TAD CNUM
20242  3101          DCA VAR
20243  6002          IOF
20244  4777'         JMS PRINT
20245  0317          FMT02
20246  5204          JMP CMODE

             /NUMBER
20247  2110  CMDN,   ISZ TP
20250  1510          TAD I TP

/DISPLAY SYSTEM                           PAL8-V10D NO DATE   PAGE 73-1

20251  2110          ISZ TP
20252  3112          DCA PNUM
20253  5215          JMP CLOOP+2

             /OPERATOR
20254  1510  CMDO,   TAD I TP        /GET INDEX INTO TABLE
20255  2110          ISZ TP
20256  0374          AND (377
20257  1373          TAD (-EXABLE-1  /IS IT EXECUTABLE
20260  7510          SPA
20261  5240          JMP CMDER
20262  1372          TAD (OPREX
20263  3116          DCA CEXAD
20264  1516          TAD I CEXAD
20265  3116  CMDOL,  DCA CEXAD
20266  6002          IOF
20267  4516          JMS I CEXAD
20270  5213          JMP CLOOP
       0116  CEXAD=R0

             /TERMINATOR
20271  1510  CMDT,   TAD I TP        /GET TERMINATOR
20272  2110          ISZ TP
20273  0374          AND (377
20274  7041          CIA
20275  3116          DCA CEXAD
20276  1371          TAD (TERTAB-1   /SEARCH TERTAB
20277  3010          DCA 10
20300  1410  CMDTL,  TAD I 10
20301  7450          SNA
20302  5240          JMP CMDER
20303  1116          TAD CEXAD
20304  7650          SNA CLA
20305  5310          JMP .+3
20306  2010          ISZ 10
20307  5300          JMP CMDTL
20310  1410          TAD I 10
20311  5265          JMP CMDOL

20312  5747  FMT01,  TEXT */'OK, ',*
20313  1713
20314  5440
20315  4754
20316  0000
20317  4705  FMT02,  TEXT /'ERROR, COMMAND #',I2,/
20320  2222
20321  1722
20322  5440
20323  0317
20324  1515
20325  0116
20326  0440
20327  4347
20330  5411
20331  6254

/DISPLAY SYSTEM                           PAL8-V10D NO DATE   PAGE 73-2

20332  0000

/DISPLAY SYSTEM                           PAL8-V10D NO DATE   PAGE 74


             /RANDOM SHORT EX ROUTINES
20333  0000  EXSCL,  0       /SEMI-COLON
20334  2113          ISZ CNUM
20335  6005          PION
20336  5733          JMP I EXSCL

20337  0000  EXSC,   0       /SCOPE
20340  1337          TAD EXSC
20341  3135          DCA LK3
20342  4770'         JMS SGRAB
20343  7107          CLL IAC RTL
20344  3111          DCA OUT
20345  5535          JMP I LK3

20346  0000  EXTTY,  0       /TTY
20347  1111          TAD OUT
20350  1373          TAD (-4
20351  7650          SNA CLA
20352  3037          DCA SCFLG
20353  1103          TAD IN
20354  3111          DCA OUT
20355  6005          PION
20356  5746          JMP I EXTTY

/DISPLAY SYSTEM                           PAL8-V10D NO DATE   PAGE 75


20370  0462
20371  4177
20372  4231
20373  7774
20374  0377
20375  7400
20376  0430
20377  0400
       0400          *400
             /ROUTINE TO WRITE VAR, AND/OR ANY ALPHA-NUMERIC STRING. WORD
             /FOLLOWING JMS POINTS TO FORMAT
20400  0000  PRINT,  0
20401  1200          TAD PRINT
20402  3133          DCA LK1
20403  6005          PION
20404  1533          TAD I LK1
20405  2133          ISZ LK1
20406  6571          SVC
20407  2600          CALL
20410  0414          PRLST
20411  7200          CLA
20412  7200          CLA
20413  5533          JMP I LK1
20414  3122  PRLST,  WRITE
20415  0002          02
20416  0002          02; OUT-X
20417  0011
20420  0002          02; IN-X
20421  0003
20422  0025          25; 0
20423  0000
20424  0002          02; VAR-X; 20; (-1
20425  0001
20426  0020
20427  0577

             /GET NEXT LINE AND RESET TP
20430  0000  TOKES,  0
20431  1230          TAD TOKES
20432  3133          DCA LK1
20433  6005          PION
20434  7240          STA             /COMPUTE WHICH TOKEN BUFFER TO USE
20435  1103          TAD IN          /FROM THE INPUT UNIT NUMBER
20436  7425          MQL MUY; 110
20437  0110
20440  7701          CLA MQA
20441  1376          TAD (TKBUF
20442  6571          SVC
20443  2600          CALL
20444  0450          TKLST
20445  7402          HLT
20446  3110          DCA TP
20447  5533          JMP I LK1

/DISPLAY SYSTEM                           PAL8-V10D NO DATE   PAGE 75-1

20450  3054  TKLST,  READ
20451  0002          02
20452  0002          02; IN-X
20453  0003
20454  0002          02; OUT-X
20455  0011
20456  0020          20; OPRTAB
20457  4203
20460  0025          25; 0
20461  0000

/DISPLAY SYSTEM                           PAL8-V10D NO DATE   PAGE 76


             /ATTEMPT TO GRAB SCOPE. IF ALREADY IN USE, PRINT MESSAGE AND GO
             /TO CMODE. IF NOT IN USE, SET SCFLG AND RETURN
20462  0000  SGRAB,  0
20463  1262          TAD SGRAB
20464  3134          DCA LK2
20465  4305          JMS SCFTS       /TEST AND SET SCOPE FLAG
20466  7410          SKP
20467  5534          JMP I LK2       /NOT IN USE
20470  6002          IOF             /IN USE
20471  4200          JMS PRINT
20472  0474          SGFMT
20473  5775'         JMP CMODE
20474  4723  SGFMT,  TEXT /'SCOPE IN USE!',/
20475  0317
20476  2005
20477  4011
20500  1640
20501  2523
20502  0541
20503  4754
20504  0000

             /TEST AND SET SCOPE FLAG. SKIP IF NOT IN USE
20505  0000  SCFTS,  0
20506  1037          TAD SCFLG
20507  7640          SZA CLA
20510  5313          JMP .+3
20511  2037          ISZ SCFLG
20512  2305          ISZ SCFTS
20513  6005          PION
20514  5705          JMP I SCFTS

/DISPLAY SYSTEM                           PAL8-V10D NO DATE   PAGE 77


             /CONVERT KM TO NMI (1.11). AC->AC.
20515  0000  KMNMI,  0
20516  7425          MQL MUY; 4244   /.5400  (0.12)
20517  4244
20520  7413          SHL; 1
20521  0001
20522  7010          RAR
20523  7430          SZL
20524  7001          IAC
20525  6005          PION
20526  5715          JMP I KMNMI

             /CONVERT NMI TO KM. AC->AC.
20527  0000  NMIKM,  0
20530  7425          MQL MUY; 7321   /1.852  (1.11)
20531  7321
20532  7413          SHL; 0
20533  0000
20534  7010          RAR
20535  7430          SZL
20536  7001          IAC
20537  6005          PION
20540  5727          JMP I NMIKM

             /GIVEN ICW1 AND A BIN NUMBER (1-100) IN THE AC, RETURN THE
             /RANGE (NMI, 11.1) IN THE AC. USES VAR FOR TEMP.
20541  0000  BINMI,  0
20542  3101          DCA VAR
20543  1114          TAD ICW1        /RANGE(RGS+BIN#)
20544  7417          LSR; 2
20545  0002
20546  1101          TAD VAR
20547  1377          TAD (-1
20550  7124          STL RAL
20551  3355          DCA .+4
20552  1114          TAD ICW1
20553  0374          AND (7
20554  7425          MQL MUY; 0
20555  0000
20556  7701          CLA MQA
20557  7110          CLL RAR
20560  7430          SZL
20561  7001          IAC
20562  6005          PION
20563  5741          JMP I BINMI

/DISPLAY SYSTEM                           PAL8-V10D NO DATE   PAGE 78


20574  0007
20575  0204
20576  4240
20577  7777
       0600          *600
             /LOAD COMMAND. READ DIRECTORY
20600  0000  EXLOAD, 0
20601  1200          TAD EXLOAD
20602  3133          DCA LK1
20603  6005          PION
20604  6571          SVC; P; TC1SEM
20605  1200
20606  5707
20607  1104          TAD X+WRMQ      /SET UP FOR READING THE DTY.
20610  3217          DCA EXLOC
20611  1105          TAD X+WRX
20612  1377          TAD (DTY
20613  3220          DCA EXLOC+1
20614  7001          IAC             /READ BLOCK 0
20615  6202          CIF
20616  4776'         JMS RWTAPE
20617  0000  EXLOC,  0
20620  0000          0
20621  0775          (0
20622  5227          JMP TPERR
20623  6571          SVC; V; TC1SEM
20624  1226
20625  5707
20626  5533          JMP I LK1

             /TAPE ERROR HANDLER. RELEASE THE TCO1, PRINT A MESSAGE, AND GO
             /TO CMODE
20627  6571  TPERR,  SVC; V; TC1SEM
20630  1226
20631  5707
20632  1031          TAD DTERR
20633  3101          DCA VAR
20634  6002          IOF
20635  4774'         JMS PRINT
20636  0640          TEFMT
20637  5773'         JMP CMODE
20640  5747  TEFMT,  TEXT */'TAPE ERROR, OPERATION ABORTED. B= ',I5*
20641  2401
20642  2005
20643  4005
20644  2222
20645  1722
20646  5440
20647  1720
20650  0522
20651  0124
20652  1117
20653  1640

/DISPLAY SYSTEM                           PAL8-V10D NO DATE   PAGE 78-1

20654  0102
20655  1722
20656  2405
20657  0456
20660  4002
20661  7540
20662  4754
20663  1165
20664  0000

/DISPLAY SYSTEM                           PAL8-V10D NO DATE   PAGE 79


             /FILL THE DATA BUFFER FROM THE TAPE, STARTING AT THE BLOCK NUMBER
             /IN R0. UPDATE R0 IN NO ERROR
20665  0000  RTAPE,  0
20666  1265          TAD RTAPE
20667  3133          DCA LK1
20670  6005          PION
20671  6571          SVC; P; TC1SEM
20672  1200
20673  5707
20674  1104          TAD X+WRMQ      /SET UP FOR READING
20675  3306          DCA RTPC
20676  1105          TAD X+WRX
20677  1374          TAD (BUF
20700  3307          DCA RTPC+1
20701  1116          TAD R0
20702  3321          DCA RTPL1
20703  1372          TAD (BUFS%200   /READ
20704  6202          CIF
20705  4776'         JMS RWTAPE
20706  0000  RTPC,   0
20707  0000          0
20710  0721          RTPL1
20711  5227          JMP TPERR
20712  1116          TAD R0          /UPDATE R0
20713  1372          TAD (BUFS%200
20714  3116          DCA R0
20715  6571          SVC; V; TC1SEM
20716  1226
20717  5707
20720  5533          JMP I LK1
20721  0000  RTPL1,  0

             /GET NEXT WORD FROM TAPE. TAPE ADDRESS IN R0, (BUFFER OFFSET
             / -BUFFER SIZE-1) IN R1. UPDATE R1, READ TAPE IN NECESSARY, AND
             /RETURN WORD IN AC.
20722  0000  RWORD,  0
20723  1322          TAD RWORD
20724  3134          DCA LK2
20725  6005          PION
20726  2117          ISZ R1          /UPDATE R1
20727  5334          JMP .+5
20730  6002          IOF             /END OF BUFFER, REFILL
20731  4265          JMS RTAPE
20732  1371          TAD (-BUFS
20733  3117          DCA R1
20734  6002          IOF             /GET WORD
20735  4770'         JMS LB; RG1 D; BUF+BUFS
20736  0003
20737  2000
20740  5534          JMP I LK2

/DISPLAY SYSTEM                           PAL8-V10D NO DATE   PAGE 80


20770  1000
20771  6400
20772  0006
20773  0204
20774  0400
20775  0000
20776  5000
20777  0200
       1000          *1000
             /FETCH A WORD FROM THE BUFFER AREA. OFFSET OF WROD IN THE BUFFER AREA

             /IS DEFINED BY THE 2 WORDS FOLLOWING THE JMS. BITS 8-10 OF WORD 1
             /SPECIFY R0-R7, AND IF BIT 11 OF WROD 1 IS 1, WORD 2 SPECIFIES A
             /DISPLACEMENT. IF BIT 1 OF WORD 1 IS 1, THE SPECIFIED REGISTER IS
             /INCREMENTED AFTER THE TRANSFER. THE CONTENTS OF THE REGISTER, OR 0

             /FOR R0, ARE ADDED TO THE DISPLACEMENT (IF ANY) TO FORM AN OFFSET
             /IN THE BUFFER AREA. THE RESULT IS RETURNED IN THE AC, AND THE ADDRESS

             /USED IS RETURNED IN VAR.
21000  0000  LB,     0
21001  1200          TAD LB
21002  3133          DCA LK1
21003  4220          JMS LSBAD       /DO ADDRESSING, SET DF
21004  1501          TAD I VAR
21005  6221          CDF 20
21006  5533          JMP I LK1

             /STORE AC INTO BUFFER AREA IN THE SAME WAY AS LB. VALUE IN MQ ON
             /RETURN
21007  0000  SB,     0
21010  7421          MQL
21011  1207          TAD SB
21012  3133          DCA LK1
21013  4220          JMS LSBAD
21014  7501          MQA
21015  3501          DCA I VAR
21016  6221          CDF 20
21017  5533          JMP I LK1

             /DO ADDRESSING FOR LB AND SB
21020  0000  LSBAD,  0
21021  1533          TAD I LK1       /SET UP TO INC. THE SPECIFIED REGISTER
21022  7110          CLL RAR
21023  1377          TAD (TAD R0
21024  3244          DCA LSBL1
21025  1533          TAD I LK1       /FETCH WORD 1
21026  2133          ISZ LK1
21027  7110          CLL RAR         /PUT WHICH REG. IN AC9-11, D IN LINK
21030  0376          AND (7
21031  7450          SNA             /IF R0, DON'T ADD CONTENTS
21032  5236          JMP .+4
21033  1377          TAD (TAD R0     /FORM A TAD RN INSTRUCTION

/DISPLAY SYSTEM                           PAL8-V10D NO DATE   PAGE 80-1

21034  3235          DCA .+1
21035  7000          NOP
21036  7420          SNL             /IF L=1, ADD IN WORD 2
21037  5242          JMP .+3
21040  1533          TAD I LK1
21041  2133          ISZ LK1
21042  1105          TAD X+WRX       /ADD IN BASE ADDRESS.
21043  3101          DCA VAR
21044  7000  LSBL1,  NOP             /ISZ RN OR TAD RN
21045  7200          CLA
21046  1104          TAD X+WRMQ      /NOW CHANGE FIELD
21047  0375          AND (70
21050  1374          TAD (CDF
21051  3252          DCA .+1
21052  7000          NOP
21053  6005          PION
21054  5620          JMP I LSBAD

/DISPLAY SYSTEM                           PAL8-V10D NO DATE   PAGE 81


             /COMMAND TO PRINT A TAPE DIRECTORY. READ THE DIRECTORY, LOOP TO
             /PRINT INFO FOR EACH MAP, THEN PRINT BLOCKS LEFT.
             /REGISTER UTILIZATION:  R0,R1  BLOCK&WORD OFFSET FOR RWORD
             /                       R2   COUNTS MAPS
             /                       R3   COUNTS COMMENT WORDS
             /                       R4   CONTAINS VARIABLE REPEAT COUNT
             /                       R5   POINTER INTO SCRATCH AREA
21055  0000  EXDTY,  0
21056  1255          TAD EXDTY
21057  3137          DCA LK5
21060  4773'         JMS EXLOAD      /READ THE TAPE DIRECTORY
21061  7201          CLA IAC         /SET UP FOR PRINT LOOP
21062  3116          DCA R0
21063  7240          STA
21064  3117          DCA R1
21065  6002          IOF             /INITIALIZE MAP COUNTER
21066  4200          JMS LB; D; DTY+2
21067  0001
21070  0202
21071  1372          TAD (-12
21072  7450          SNA             /IF NO MAPS, JUST PRINT BLOCKS LEFT
21073  5307          JMP EXDTL1
21074  7041          CIA
21075  3120          DCA R2
21076  6002  EXDTL2, IOF             /PRINT INFO FOR NEXT MAP
21077  4771'         JMS PDTY1
21100  1400          DTYFMT
21101  5307          JMP EXDTL1      /^O RETURN
21102  6002          IOF
21103  4200          JMS LB; 0
21104  0000
21105  2120          ISZ R2          /DONE WITH MAPS?
21106  5276          JMP EXDTL2
21107  7200  EXDTL1, CLA             /YES, PRINT BLOCKS LEFT
21110  6002          IOF
21111  4200          JMS LB; D; DTY+1
21112  0001
21113  0201
21114  7041          CIA
21115  1370          TAD (2702
21116  3101          DCA VAR
21117  6002          IOF
21120  4767'         JMS PRINT
21121  1123          BLKFMT
21122  5537          JMP I LK5
21123  1164  BLKFMT, TEXT *I4' BLOCKS LEFT.',/*
21124  4740
21125  0214
21126  1703
21127  1323
21130  4014
21131  0506
21132  2456

/DISPLAY SYSTEM                           PAL8-V10D NO DATE   PAGE 81-1

21133  4754
21134  5700
21135  3122  DTYLST, WRITE
21136  0002          02
21137  0002          02; OUT-X
21140  0011
21141  0002          02; IN-X
21142  0003
21143  0007          07; 0
21144  0000
21145  0306          306; 0; 02; R4-X
21146  0000
21147  0002
21150  0022
21151  4000          4000

/DISPLAY SYSTEM                           PAL8-V10D NO DATE   PAGE 82


21167  0400
21170  2702
21171  1200
21172  7766
21173  0600
21174  6201
21175  0070
21176  0007
21177  1116
       1200          *1200
             /PRINT INFO FOR ONE MAP FOR EXDTY
21200  0000  PDTY1,  0
21201  7421          MQL
21202  1200          TAD PDTY1
21203  3136          DCA LK4
21204  6005          PION
21205  7501          MQA
21206  7001          IAC             /INIT (OR UPDATE) MAP NUMBER
21207  4777'         JMS SB; 0
21210  0000
21211  7201          CLA IAC         /SET POINTER INTO THE SCRATCH AREA
21212  3123          DCA R5
21213  6002          IOF             /GET LENGTH OF MAP STATUS BLOCK AND COMPUTE
21214  4776'         JMS RWORD       /NUMBER OF COMMENT WORDS
21215  3121          DCA R3
21216  6002          IOF
21217  4775'         JMS LB; D; DTY+4
21220  0001
21221  0204
21222  1121          TAD R3
21223  1374          TAD (-1
21224  3121          DCA R3
21225  1121          TAD R3          /COMPUTE REPEAT COUNT FOR THE WRITE STATEMENT
21226  7040          CMA
21227  1373          TAD (15
21230  3122          DCA R4
21231  7105          CLL IAC RAL     /GET DATE, TIME
21232  6002          IOF
21233  4772'         JMS MOVEN
21234  6002          IOF             /SAVE ICW1
21235  4776'         JMS RWORD
21236  3114          DCA ICW1
21237  6002          IOF             /WHICH RADAR
21240  4776'         JMS RWORD
21241  3125          DCA R7
21242  1125          TAD R7
21243  7006          RTL
21244  7620          SNL CLA
21245  1371          TAD (111-102
21246  1370          TAD (102
21247  6002          IOF
21250  4777'         JMS SB; A RG5
21251  2012

/DISPLAY SYSTEM                           PAL8-V10D NO DATE   PAGE 82-1

21252  1125          TAD R7          /# OF SAMPLES
21253  0367          AND (177
21254  6002          IOF
21255  4777'         JMS SB; A RG5
21256  2012
21257  1125          TAD R7          /TNP
21260  7417          LSR; 6
21261  0006
21262  0371          AND (7
21263  6002          IOF
21264  4777'         JMS SB; A RG5
21265  2012
21266  7105          CLL IAC RAL     /GET PT, AZ1, AZ2
21267  6002          IOF
21270  4772'         JMS MOVEN
21271  6002          IOF             /# EL ANGLES
21272  4776'         JMS RWORD
21273  7040          CMA
21274  6002          IOF
21275  4777'         JMS SB; A RG5
21276  2012
21277  6002          IOF             /IGNORE STARTING BLOCK NUMBER
21300  4776'         JMS RWORD
21301  7201          CLA IAC         /STARTING KM
21302  6002          IOF
21303  4766'         JMS BINMI
21304  6002          IOF
21305  4765'         JMS NMIKM
21306  6002          IOF
21307  4777'         JMS SB; A RG5
21310  2012
21311  1364          TAD (144        /ENDING KM
21312  6002          IOF
21313  4766'         JMS BINMI
21314  6002          IOF
21315  4765'         JMS NMIKM
21316  6002          IOF
21317  4777'         JMS SB; A RG5
21320  2012
21321  2121  PDTYL1, ISZ R3          /COMMENTS
21322  7410          SKP
21323  5327          JMP PDTYL2
21324  6002          IOF
21325  4772'         JMS MOVEN
21326  5321          JMP PDTYL1
21327  1105  PDTYL2, TAD X+WRX       /SET UP FOR WRITE
21330  7421          MQL
21331  1104          TAD X+WRMQ
21332  6002          IOF
21333  3200          DCA PDTY1
21334  1536          TAD I LK4
21335  2136          ISZ LK4
21336  6605          LDXC
21337  6005          PION
21340  1200          TAD PDTY1

/DISPLAY SYSTEM                           PAL8-V10D NO DATE   PAGE 82-2

21341  7100          CLL
21342  6571          SVC
21343  2600          CALL
21344  1135          DTYLST
21345  7120          STL
21346  7200          CLA
21347  1003          TAD PWREGS
21350  6605          LDXC
21351  7420          SNL
21352  2136          ISZ LK4
21353  5536          JMP I LK4

/DISPLAY SYSTEM                           PAL8-V10D NO DATE   PAGE 83


21364  0144
21365  0527
21366  0541
21367  0177
21370  0102
21371  0007
21372  1452
21373  0015
21374  7777
21375  1000
21376  0722
21377  1007
       1400          *1400
21400  1162  DTYFMT, TEXT *I2'. ',DXT'  WR',I2,3VL ', AZ=',I3'-',I3', EL#=',I2', ',>*
21401  4756
21402  4047
21403  5404
21404  3024
21405  4740
21406  4027
21407  2247
21410  5411
21411  6254
21412  6326
21413  1440
21414  4754
21415  4001
21416  3275
21417  4754
21420  1163
21421  4755
21422  4754
21423  1163
21424  4754
21425  4005
21426  1443
21427  7547
21430  5411
21431  6247
21432  5440
21433  4754
21434  7600
21435  1163          TEXT *I3'-',I3' KM',/4X'"',40A*
21436  4755
21437  4754
21440  1163
21441  4740
21442  1315
21443  4754
21444  5764
21445  3047
21446  4247
21447  5464

/DISPLAY SYSTEM                           PAL8-V10D NO DATE   PAGE 83-1

21450  6001
21451  0000

             /MOVE N WORDS FROM THE TAPE THRU R5 FOR PDTY1. N-1 IN AC
21452  0000  MOVEN,  0
21453  7040          CMA
21454  3125          DCA R7
21455  1252          TAD MOVEN
21456  3135          DCA LK3
21457  6005          PION
21460  6002          IOF
21461  4777'         JMS RWORD
21462  6002          IOF
21463  4776'         JMS SB; A RG5
21464  2012
21465  2125          ISZ R7
21466  5260          JMP .-6
21467  5535          JMP I LK3

/DISPLAY SYSTEM                           PAL8-V10D NO DATE   PAGE 84


             /CONVERT DEGREES TO BINARY ANGLE, AC->AC.
21470  0000  DEGBA,  0
21471  7421          MQL
21472  7527          MQL MQA DVI; 550
21473  0550
21474  7430          SZL
21475  7621          CAM
21476  1375          TAD (-264
21477  7004          RAL
21500  7701          CLA MQA
21501  7420          SNL
21502  7001          IAC
21503  6005          PION
21504  5670          JMP I DEGBA

             /CONVERT BINARY ANGLE TO DEGREES, AC->AC.
21505  0000  BADEG,  0
21506  7425          MQL MUY; 1320
21507  1320
21510  7110          CLL RAR
21511  7430          SZL
21512  7001          IAC
21513  7427          MQL DVI; 550
21514  0550
21515  6005          PION
21516  5705          JMP I BADEG

             /CONVERT TENTHS OF A DEGREE TO BINARY ANGLE
21517  0000  TENBA,  0
21520  7421          MQL
21521  7527          MQA MQL DVI; 7020
21522  7020
21523  7430          SZL
21524  7621          CAM
21525  1374          TAD (-3410
21526  7004          RAL
21527  7701          CLA MQA
21530  7420          SNL
21531  7001          IAC
21532  6005          PION
21533  5717          JMP I TENBA

/DISPLAY SYSTEM                           PAL8-V10D NO DATE   PAGE 85


             /READ NEXT BYTE FROM TAPE. BYTES ARE PACKED 3 TO 2 WORDS. RETURN
             /BYTE AS 12 BIT SIGNED NUMBER IN THE AC. USES R2 TO STORE THE
             /THIRD BYTE. R2 SHOULD BE INITIALIZED TO 0010.
21534  0000  RBYTE,  0
21535  1334          TAD RBYTE
21536  3135          DCA LK3
21537  6005          PION
21540  1120          TAD R2          /RETURN THIRD BYTE?
21541  7500          SMA
21542  5351          JMP RBTL1
21543  7417          LSR; 7          /YES
21544  0007
21545  3120          DCA R2          /FIRST RESET R2
21546  7515          MQA ASR; 3      /BYTE->12 BIT SIGNED NUMBER
21547  0003
21550  5535          JMP I LK3
21551  7421  RBTL1,  MQL             /NOT 3RD BYTE. CALL RWORD, SAVE NIBBLE,
21552  6002          IOF             /RETURN BYTE
21553  4777'         JMS RWORD
21554  7533          MQL MQA SHL; 3
21555  0003
21556  5345          JMP RBTL1-4

/DISPLAY SYSTEM                           PAL8-V10D NO DATE   PAGE 86


21574  4370
21575  7514
21576  1007
21577  0722
       1600          *1600
             /UNPACK NIOSE. RETURN NEXT SAMPLE IN R3. >0 IS DATA, <0 IS NOISE.
             /R3 SHOULD BE INITIALIZED TO 0
21600  0000  UNPK,   0
21601  1200          TAD UNPK
21602  3136          DCA LK4
21603  6005          PION
21604  1121          TAD R3          /IS R3 >=0?
21605  7710          SPA CLA
21606  5213          JMP UNPKL1
21607  6002  UNPKL2, IOF             /YES, READ NEXT BYTE, RETURN
21610  4777'         JMS RBYTE
21611  3121          DCA R3
21612  5536          JMP I LK4
21613  2121  UNPKL1, ISZ R3          /NO, INC R3. IF ZERO, READ NEXT BYTE
21614  5536          JMP I LK4
21615  5207          JMP UNPKL2

/DISPLAY SYSTEM                           PAL8-V10D NO DATE   PAGE 87


             /GET RAY HEADING, PUT IN APPROPRIATE PLACE IN THE SCRATCH
             /AREA. USES R2,R3 AS TEMP STORAGE
21616  0000  GRYHD,  0
21617  1216          TAD GRYHD
21620  3135          DCA LK3
21621  6005          PION
21622  7001          IAC             /SET UP R2 TO PIONT INTO THE SCRATCH AREA.
21623  3120          DCA R2
21624  6002          IOF             /GET AZ
21625  4776'         JMS RWORD
21626  6002          IOF             /CONVERT TO DEGREES
21627  4775'         JMS BADEG
21630  6002          IOF             /STORE IN AZD
21631  4774'         JMS SB; D; AZD
21632  0001
21633  0005
21634  7501          MQA             /CONVERT BACK TO BINARY ANGLE
21635  6002          IOF
21636  4773'         JMS DEGBA
21637  6002          IOF             /STORE IN AZB
21640  4774'         JMS SB; A RG2
21641  2004
21642  6002          IOF             /GET ELEVATION
21643  4776'         JMS RWORD
21644  6002          IOF             /STORE IN ELB
21645  4774'         JMS SB; A RG2
21646  2004
21647  7405          MUY; 550        /GET ELD
21650  0550
21651  3121          DCA R3
21652  7405          MUY; 12         /GET TENTHS
21653  0012
21654  6002          IOF             /STORE TENTHS
21655  4774'         JMS SB; D; ELD+1
21656  0001
21657  0007
21660  1121          TAD R3          /STORE UNITS
21661  6002          IOF
21662  4774'         JMS SB; D; ELD
21663  0001
21664  0006
21665  6002          IOF             /GET TIME
21666  4776'         JMS RWORD
21667  6002          IOF
21670  4774'         JMS SB; A RG2
21671  2004
21672  6002          IOF
21673  4776'         JMS RWORD
21674  6002          IOF
21675  4774'         JMS SB; A RG2
21676  2004
21677  5535          JMP I LK3

/DISPLAY SYSTEM                           PAL8-V10D NO DATE   PAGE 88


             /CONDITIONAL CALL AND SET FLAG. THE 1ST WORD FOLLOWING THE JMS IS AN
             /OFFSET INTO THE BUFFER. THE TWO WORDS AT THAT OFFSET, C AND S, DEFINE
             /A SECTOR, WITH C AT THE CENTER AND S THE DISTANCE FROM THE CENTER TO T
             /AN EDGE. R4 IS A FLAG. IF IT IS NOT ZERO ON ENTRY, RETURN. IF NOT
             /COMPARE THE VALUE IN THE AC TO THE SECTOR. IF IT IS WITHIN THE SECTOR,
             /CALL EITHER THE SSR, RSR, OR SMR DEPENDING ON THE 2ND WORD FOLLOWING

             /THE JMS (0,1,OR 2). IF NOT, SET FLAG AND RETURN.
21700  0000  CCSTF,  0
21701  7421          MQL             /SAVE VALUE IN THE MQ
21702  1300          TAD CCSTF
21703  3136          DCA LK4
21704  6005          PION
21705  1122          TAD R4          /TEST FLAG. IF SET, RETURN
21706  7640          SZA CLA
21707  5345          JMP CCSL1
21710  1536          TAD I LK4       /NOT SET. IS MQ WITHIN SECTOR?
21711  2136          ISZ LK4
21712  3122          DCA R4          /PUT OFFSET IN R4
21713  6002          IOF             /GET MINUS THE ABSOLUTE VALUE OF THE DIFFERENCE

21714  4772'         JMS LB; A RG4   /BETWEEN THE ANGLE AND THE SECTOR CENTER
21715  2010
21716  3101          DCA VAR
21717  7501          MQA
21720  7041          CIA
21721  1101          TAD VAR
21722  7500          SMA
21723  7041          CIA
21724  7421          MQL             /PUT IN MQ
21725  6002          IOF             /COMPARE DIFFERENCE TO SECTOR HALF SIZE
21726  4772'         JMS LB; RG4
21727  0010
21730  3101          DCA VAR
21731  7501          MQA
21732  1101          TAD VAR
21733  7710          SPA CLA         /TEST
21734  5347          JMP CCSL1+2
21735  1536          TAD I LK4       /AC>=0 => WITHIN SECTOR, CALL ROUTINE
21736  1137          TAD LK5
21737  3101          DCA VAR
21740  1501          TAD I VAR
21741  3101          DCA VAR
21742  6002          IOF
21743  4501          JMS I VAR
21744  5353          JMP CCSL2-1
21745  2136  CCSL1,  ISZ LK4
21746  5354          JMP CCSL2
21747  1536          TAD I LK4
21750  7104          CLL RAL
21751  7450          SNA
21752  7001          IAC
21753  3122          DCA R4

/DISPLAY SYSTEM                           PAL8-V10D NO DATE   PAGE 88-1

21754  2136  CCSL2,  ISZ LK4
21755  5536          JMP I LK4

/DISPLAY SYSTEM                           PAL8-V10D NO DATE   PAGE 89


21772  1000
21773  1470
21774  1007
21775  1505
21776  0722
21777  1534
       2000          *2000
             /ROUTINE TO PROCESS A MAP. SSR, RSR, AND SMR (LK3 OR LESS) FOLLOW
             /THE JMS. REGISTER UTILIZATION:
             /       R0, R1  TAPE AND BUFFER ABBRESS FOR RWORD
             /       R2  3RD BYTE STORAGE FOR RBYTE
             /       R3  SAMPLE RETURNED BY UNPK
             /       R4  PROS SKIP FLAG
             /       R5  BIN COUNTER
22000  0000  PROS,   0
22001  1200          TAD PROS
22002  3137          DCA LK5
22003  4777'         JMS LB; D; MAPN /SET UP R0 & R1. FIRST, GET MAP NUMBER
22004  0001
22005  0355
22006  3117          DCA R1          /USE MAP NUMBER AS AN OFFSET TO GET THE STARTING BLOCK.
22007  6002          IOF
22010  4777'         JMS LB; RG1 D; DTY+11
22011  0003
22012  0211
22013  3116          DCA R0
22014  7240          STA
22015  3117          DCA R1
22016  6002          IOF             /DUMP MAP HEADER, SKIP OVER MAP STATUS BLOCK0
22017  4776'         JMS PDTY1
22020  3000          HEDFMT
22021  7200          CLA
22022  6002  PROSL1, IOF             /BEGINNING OF SCAN. GET SCAN DESCRIPTOR WORD0
22023  4775'         JMS RWORD
22024  6002          IOF
22025  4774'         JMS SB; 0
22026  0000
22027  6002          IOF             /GET RAY HEADER SO TIME WILL BE RIGHT
22030  4773'         JMS GRYHD
22031  3122          DCA R4          /CLEAR SKIP FLAG
22032  6002          IOF             /CALL SSR
22033  4777'         JMS LB; 0
22034  0000
22035  6002          IOF
22036  4772'         JMS CCSTF
22037  0360          ELCEN
22040  0000          0
22041  5244          JMP PROSL2+2
22042  6002  PROSL2, IOF             /START OF RAY. GET RAY HEADER
22043  4773'         JMS GRYHD
22044  1122          TAD R4          /HACK SKIP FLAG
22045  0371          AND (1
22046  3122          DCA R4

/DISPLAY SYSTEM                           PAL8-V10D NO DATE   PAGE 89-1

22047  6002          IOF             /CALL RSR
22050  4777'         JMS LB; D; AZB
22051  0001
22052  0001
22053  6002          IOF
22054  4772'         JMS CCSTF
22055  0356          AZCEN
22056  0001          1
22057  1370          TAD (10         /SET UP R2,R3,R5 FOR PROCESSING 100 SAMPLES
22060  3120          DCA R2
22061  3121          DCA R3
22062  1367          TAD (-144
22063  3123          DCA R5
22064  1122  PROSL3, TAD R4          /PROCESS NEXT SAMPLE
22065  0366          AND (3
22066  3122          DCA R4
22067  6002          IOF             /GET THE SAMPLE
22070  4765'         JMS UNPK
22071  6002          IOF
22072  4764'         JMS RATES
22073  1123          TAD R5          /CALL THE SMR
22074  1363          TAD (145
22075  7104          CLL RAL
22076  6002          IOF
22077  4772'         JMS CCSTF
22100  0362          BINC
22101  0002          2
22102  2123          ISZ R5          /DONE?
22103  5264          JMP PROSL3
22104  1120  PROSL4, TAD R2          /YES, CALL RBYTE UNTIL R2=10
22105  1362          TAD (-10
22106  7650          SNA CLA
22107  5314          JMP .+5
22110  6002          IOF
22111  4761'         JMS RBYTE
22112  7200          CLA
22113  5304          JMP PROSL4
22114  6002          IOF             /CHECK TERMINATOR
22115  4775'         JMS RWORD
22116  7450          SNA
22117  5242          JMP PROSL2      /ZERO, DO NEXT RAY
22120  7710          SPA CLA
22121  5222          JMP PROSL1      /<0, DO NEXT SCAN
22122  7125          STL IAC RAL     />0, DONE
22123  1137          TAD LK5
22124  3137          DCA LK5
22125  5537          JMP I LK5

/DISPLAY SYSTEM                           PAL8-V10D NO DATE   PAGE 90


             /SKIP IF THE NEXT TOKEN IS A COMMA, UPDATE TP IF SO
22126  0000  SKPCM,  0
22127  1510          TAD I TP
22130  1360          TAD (-TRMT-",
22131  7640          SZA CLA
22132  5335          JMP .+3
22133  2110          ISZ TP
22134  2326          ISZ SKPCM
22135  6005          PION
22136  5726          JMP I SKPCM

             /SKIP IF THE NEXT TOKEN IS A NUMBER, RETURN THE NUMBER IN THE AC
             /AND UPDATE TP IF SO
22137  0000  SKNUM,  0
22140  1510          TAD I TP
22141  0357          AND (7400
22142  1357          TAD (-NUMT
22143  7640          SZA CLA
22144  5351          JMP .+5
22145  2337          ISZ SKNUM
22146  2110          ISZ TP
22147  1510          TAD I TP
22150  2110          ISZ TP
22151  6005          PION
22152  5737          JMP I SKNUM

/DISPLAY SYSTEM                           PAL8-V10D NO DATE   PAGE 91


22157  7400
22160  6124
22161  1534
22162  7770
22163  0145
22164  4000
22165  1600
22166  0003
22167  7634
22170  0010
22171  0001
22172  1700
22173  1616
22174  1007
22175  0722
22176  1200
22177  1000
       2200          *2200
             /ROUTINE TO PARSE AN ARGUMENT LIST AND SET UP THE MAP DESCRIPTOR
             /BLOCK FOR PROS. # OF BINS/RAY TO OUTPUT IN AC ON ENTRY
22200  0000  ARGS,   0
22201  3116          DCA R0          /SAVE # OF BINS IN R0
22202  1200          TAD ARGS
22203  3135          DCA LK3
22204  6005          PION
22205  1377          TAD (MAPN       /SET UP POINTER IN R1
22206  3117          DCA R1
22207  6002          IOF             /MAP NUMBER
22210  4776'         JMS SKPCM
22211  5214          JMP .+3
22212  2117          ISZ R1          /NO MAP NUMBER, USE OLD VALUE
22213  5225          JMP ARGSL1
22214  6002          IOF             /GET NUMBER
22215  4775'         JMS SKNUM
22216  5212          JMP  .-4
22217  6002          IOF
22220  4774'         JMS SB; A RG1
22221  2002
22222  6002          IOF
22223  4776'         JMS SKPCM
22224  7000          NOP
22225  6002  ARGSL1, IOF             /DO AZMUTHS
22226  4776'         JMS SKPCM
22227  5240          JMP ARGSL2
22230  6002          IOF             /DEFAULT AZMUTTS
22231  4774'         JMS SB; A RG1
22232  2002
22233  7350          CLL STA RAR
22234  6002          IOF
22235  4774'         JMS SB; A RG1
22236  2002
22237  5262          JMP ARGSL3
22240  6002  ARGSL2, IOF

/DISPLAY SYSTEM                           PAL8-V10D NO DATE   PAGE 91-1

22241  4775'         JMS SKNUM
22242  5230          JMP ARGSL1+3
22243  6002          IOF             /NO DEFAULT AZIMUTHS. SET UP R2&R3 FOR LHCS
22244  4773'         JMS DEGBA
22245  3120          DCA R2
22246  6002          IOF
22247  4775'         JMS SKNUM
22250  5772'         JMP CMDER
22251  7041          CIA
22252  6002          IOF
22253  4773'         JMS DEGBA
22254  3121          DCA R3
22255  6002          IOF             /CONVERT TO CENTER, SIZE AND STORE
22256  4771'         JMS LHCS
22257  6002          IOF
22260  4776'         JMS SKPCM
22261  7000          NOP
22262  6002  ARGSL3, IOF             /DO ELEVATIONS
22263  4776'         JMS SKPCM
22264  5275          JMP ARGSL4
22265  6002          IOF             /DEFAULT ELEVATIONS
22266  4774'         JMS SB; A RG1
22267  2002
22270  7350          CLL STA RAR
22271  6002          IOF
22272  4774'         JMS SB; A RG1
22273  2002
22274  5317          JMP ARGSL5
22275  6002  ARGSL4, IOF
22276  4775'         JMS SKNUM
22277  5265          JMP ARGSL3+3
22300  6002          IOF             /NO DEFAULT ELEVATIONS
22301  4770'         JMS TENBA
22302  3120          DCA R2
22303  6002          IOF
22304  4775'         JMS SKNUM
22305  5772'         JMP CMDER
22306  7041          CIA
22307  6002          IOF
22310  4770'         JMS TENBA
22311  3121          DCA R3
22312  6002          IOF             /CONVERT TO CENTER, SIZE
22313  4771'         JMS LHCS
22314  6002          IOF
22315  4776'         JMS SKPCM
22316  7000          NOP
22317  6002  ARGSL5, IOF             /DO BIN NUMBER
22320  4775'         JMS SKNUM
22321  7001          IAC
22322  3126          DCA R8          /SAVE STARTING BIN # IN R8
22323  1126          TAD R8
22324  7104          CLL RAL         /NO DEFAULT BIN NUMBER
22325  1116          TAD R0
22326  1367          TAD (-1
22327  6002          IOF

/DISPLAY SYSTEM                           PAL8-V10D NO DATE   PAGE 91-2

22330  4774'         JMS SB; A RG1
22331  2002
22332  1116          TAD R0
22333  6002          IOF
22334  4774'         JMS SB; A RG1
22335  2002
22336  6002          IOF
22337  4766'         JMS HOPT        /HANDLE OPTIONS
22340  5535          JMP I LK3

/DISPLAY SYSTEM                           PAL8-V10D NO DATE   PAGE 92


22366  4073
22367  7777
22370  1517
22371  2400
22372  0240
22373  1470
22374  1007
22375  2137
22376  2126
22377  0355
       2400          *2400
             /CONVERT LOW, HIGH TO CENTER, SIZE AND STORE USING R1 AS A POINTER
22400  0000  LHCS,   0
22401  1200          TAD LHCS
22402  3134          DCA LK2
22403  6005          PION
22404  1120          TAD R2          /COMPUTE SIZE
22405  7041          CIA
22406  1121          TAD R3
22407  7110          CLL RAR
22410  7430          SZL
22411  7001          IAC
22412  3121          DCA R3          /SAVE IN R3
22413  1120          TAD R2          /STORE CENTER
22414  1121          TAD R3
22415  6002          IOF
22416  4777'         JMS SB; A RG1
22417  2002
22420  1121          TAD R3          /STORE SIZE
22421  6002          IOF
22422  4777'         JMS SB; A RG1
22423  2002
22424  5534          JMP I LK2

/DISPLAY SYSTEM                           PAL8-V10D NO DATE   PAGE 93


             /COMMAND TO LIST RAYS
22425  0000  EXLIST, 0
22426  1225          TAD EXLIST
22427  3140          DCA LK6
22430  1376          TAD (144        /PARSE ARGUMENTS
22431  4775'         JMS ARGS
22432  6002          IOF             /PROCESS MAP
22433  4774'         JMS PROS
22434  2440          EXNOP
22435  2443          LIRSR
22436  2600          LISMR
22437  5540          JMP I LK6

             /NULL ROUTINE
22440  0000  EXNOP,  0
22441  6005          PION
22442  5640          JMP I EXNOP

/DISPLAY SYSTEM                           PAL8-V10D NO DATE   PAGE 94


             /RAY START ROUTINE FOR EXLIST
22443  0000  LIRSR,  0
22444  1243          TAD LIRSR
22445  3133          DCA LK1
22446  6005          PION
22447  1105          TAD X+WRX       /WRITE RAY HEADER
22450  7421          MQL
22451  1104          TAD X+WRMQ
22452  6571          SVC
22453  2600          CALL
22454  2462          LILST1
22455  5260          JMP .+3
22456  7200          CLA
22457  5533          JMP I LK1
22460  7200  LIRSRL, CLA             /^O
22461  5773'         JMP CMODE
22462  3122  LILST1, WRITE
22463  0002          02
22464  0002          02; OUT-X
22465  0011
22466  0002          02; IN-X
22467  0003
22470  0020          20; LIFMT1
22471  2476
22472  0306          306; TIME; 20; (5
22473  0003
22474  0020
22475  2572
22476  3612  LIFMT1, TEXT*^J2XT10XI3,2XI2'.',I1/^J*
22477  6230
22500  2461
22501  6030
22502  1163
22503  5462
22504  3011
22505  6247
22506  5647
22507  5411
22510  6157
22511  3612
22512  0000

/DISPLAY SYSTEM                           PAL8-V10D NO DATE   PAGE 95


22572  0005
22573  0204
22574  2000
22575  2200
22576  0144
22577  1007
       2600          *2600
             /SAMPLE ROUTINE FOR EXLIST
22600  0000  LISMR,  0
22601  1200          TAD LISMR
22602  3134          DCA LK2
22603  4777'         JMS WRSAM       /WRITE NUMBER, DOT, OR ?
22604  1123          TAD R5          /IF BIN NUMBER IS DIVISABLE BY 20, DO AN EOL

22605  1376          TAD (145
22606  7427          MQL DVI; 24
22607  0024
22610  7640          SZA CLA
22611  5534          JMP I LK2
22612  6002          IOF             /DO AN EOL
22613  4775'         JMS PRINT
22614  2625          LIFMT4
22615  1123          TAD R5          /IF BIN COUNT = 100, DO 3 LFS
22616  7001          IAC
22617  7640          SZA CLA
22620  5534          JMP I LK2
22621  6002          IOF
22622  4775'         JMS PRINT
22623  2626          LIFMT5
22624  5534          JMP I LK2
22625  5700  LIFMT4, TEXT */*
22626  6336  LIFMT5, TEXT /3^J/
22627  1200

/DISPLAY SYSTEM                           PAL8-V10D NO DATE   PAGE 96


             /PRINT A RANGE HEADING. STARTING BIN # IN R8.
             /       R12- CURRENT NMI
             /       R9 - NMI PER BIN
             /       R10- 10(NMI/BIN)
             /       R11- COUNT (INIT=4)
             /       R8 - STARTING BIN #
             /ALL NMI IN (11.1) FORMAT
22630  0000  RHED,   0
22631  1230          TAD RHED
22632  3134          DCA LK2
22633  4775'         JMS PRINT       /PRINT '-NMI-'
22634  2711          RHFMT1
22635  1114          TAD ICW1        /INIT:  R9
22636  0374          AND (7
22637  3127          DCA R9
22640  1127          TAD R9          /       R10
22641  7425          MQL MUY; 12
22642  0012
22643  7701          CLA MQA
22644  3130          DCA R10
22645  1114          TAD ICW1        /       R8
22646  7417          LSR; 2
22647  0002
22650  1126          TAD R8
22651  6002          IOF
22652  3255          DCA .+3
22653  1127          TAD R9
22654  7425          MQL MUY; 0
22655  0000
22656  6005          PION
22657  7701          CLA MQA
22660  3132          DCA R12
22661  1373          TAD (-4         /       R11
22662  3131          DCA R11
             /
             /PRINT HEADING: FETCH NEXT NMI, DIVIDE BY R10, IF THE REMAINDER = 0
             /PRINT IT, ELSE PRINT 3 SPACES. UPDATE R8 & CONTINUE.
22663  1130  RHL1,   TAD R10
22664  6002          IOF
22665  3270          DCA .+3
22666  1132          TAD R12
22667  7427          MQL DVI; 0
22670  0000
22671  7650          SNA CLA         /REMAINDER = 0?
22672  5301          JMP RHL3
22673  4775'         JMS PRINT       /NO, SPACES
22674  2716          RHFMT2
22675  1132  RHL2,   TAD R12         /UPDATE R8
22676  1127          TAD R9
22677  3132          DCA R12
22700  5263          JMP RHL1
22701  1132  RHL3,   TAD R12
22702  7110          CLL RAR

/DISPLAY SYSTEM                           PAL8-V10D NO DATE   PAGE 96-1

22703  3101          DCA VAR
22704  4775'         JMS PRINT
22705  2720          RHFMT3
22706  2131          ISZ R11         /DONE?
22707  5275          JMP RHL2
22710  5534          JMP I LK2
22711  4755  RHFMT1, TEXT /'-NMI-',/
22712  1615
22713  1155
22714  4754
22715  0000
22716  6330  RHFMT2, TEXT /3X/
22717  0000
22720  1163  RHFMT3, TEXT /I3/
22721  0000

/DISPLAY SYSTEM                           PAL8-V10D NO DATE   PAGE 97


22773  7774
22774  0007
22775  0400
22776  0145
22777  3407
       3000          *3000
             /MAP HEADER FORMAT
23000  2604  HEDFMT, TEXT *VD11XT11X'WR',I2L //5XI2' SAMPLES INTEGRATED',>*
23001  6161
23002  3024
23003  6161
23004  3047
23005  2722
23006  4754
23007  1162
23010  1440
23011  5757
23012  6530
23013  1162
23014  4740
23015  2301
23016  1520
23017  1405
23020  2340
23021  1116
23022  2405
23023  0722
23024  0124
23025  0504
23026  4754
23027  7600
23030  6630          TEXT *6X'TNP = ',I1//5X'PT = ',I2,5X'AZ = ',I3'-',I3>*
23031  4724
23032  1620
23033  4075
23034  4047
23035  5411
23036  6157
23037  5765
23040  3047
23041  2024
23042  4075
23043  4047
23044  5411
23045  6254
23046  6530
23047  4701
23050  3240
23051  7540
23052  4754
23053  1163
23054  4755
23055  4754

/DISPLAY SYSTEM                           PAL8-V10D NO DATE   PAGE 97-1

23056  1163
23057  7600
23060  6330          TEXT *3X'EL# = ',I2//5XI3' TO ',I3' KM',//2X'"',40A*
23061  4705
23062  1443
23063  4075
23064  4047
23065  5411
23066  6257
23067  5765
23070  3011
23071  6347
23072  4024
23073  1740
23074  4754
23075  1163
23076  4740
23077  1315
23100  4754
23101  5757
23102  6230
23103  4742
23104  4754
23105  6460
23106  0100

/DISPLAY SYSTEM                           PAL8-V10D NO DATE   PAGE 98


       3200          *3200
             /COMMAND TO PRINT A BSCAN MAP
23200  0000  EXBS,   0
23201  1200          TAD EXBS
23202  3140          DCA LK6
23203  6005          PION
23204  1111          TAD OUT         /LOOK UP OUTPUT DEVICE SIZE
23205  1377          TAD (BSTAB-1
23206  3124          DCA R6
23207  1524          TAD I R6
23210  7510          SPA
23211  7041          CIA
23212  6002          IOF             /PARSE ARGUMENTS
23213  4776'         JMS ARGS
23214  1524          TAD I R6        /SET UP COLOR FLAG
23215  7710          SPA CLA
23216  7344          CLL STA RAL
23217  7001          IAC
23220  3124          DCA R6
23221  6002          IOF             /PROCESS MAP
23222  4775'         JMS PROS
23223  3261          BSSSR
23224  3236          BSRSR
23225  3400          BSSMR
23226  3121          DCA R3          /SET TO BLACK
23227  6002          IOF
23230  4774'         JMS COLOR
23231  5540          JMP I LK6
23232  7754  BSTAB,  -24     /TTY1
23233  0050          50      /TTY2
23234  0050          50      /PUNCH
23235  7756          -22     /SCOPE

/DISPLAY SYSTEM                           PAL8-V10D NO DATE   PAGE 99


             /RAY START ROUTINE FOR BSCAN
23236  0000  BSRSR,  0
23237  1236          TAD BSRSR
23240  3135          DCA LK3
23241  3121          DCA R3          /CHANGE TO BLACK
23242  4774'         JMS COLOR
23243  6002          IOF             /GET AZIMUTH
23244  4773'         JMS LB; D; AZD
23245  0001
23246  0005
23247  3101          DCA VAR
23250  6002          IOF             /WRITE AZIMUTH
23251  4772'         JMS PRINT
23252  3254          BSFMT1
23253  5535          JMP I LK3
23254  5711  BSFMT1, TEXT */I3' I ',*
23255  6347
23256  4011
23257  4047
23260  5400

             /SCAN START ROUTINE FOR BSCAN. DUMP ELEVATION AND TIME
23261  0000  BSSSR,  0
23262  1261          TAD BSSSR
23263  3135          DCA LK3
23264  6005          PION
23265  1105          TAD X+WRX       /SET UP FOR WRITE
23266  7421          MQL
23267  1104          TAD X+WRMQ
23270  6571          SVC             /WRITE ELEVATION AND TIME
23271  2600          CALL
23272  3300          BSLST1
23273  5771'         JMP LIRSRL
23274  7200          CLA
23275  6002          IOF
23276  4770'         JMS RHED
23277  5535          JMP I LK3
23300  3122  BSLST1, WRITE
23301  0002          02
23302  0002          02; OUT-X
23303  0011
23304  0002          02; IN-X
23305  0003
23306  0020          20; BSFMT2
23307  3314
23310  0306          306; TIME; 20; (5
23311  0003
23312  0020
23313  3367
23314  5762  BSFMT2, TEXT */2^J4XTL V4X'ELEV. = ',I2'.',I1//*
23315  3612
23316  6430
23317  2414

/DISPLAY SYSTEM                           PAL8-V10D NO DATE   PAGE 99-1

23320  4026
23321  6430
23322  4705
23323  1405
23324  2656
23325  4075
23326  4047
23327  5411
23330  6247
23331  5647
23332  5411
23333  6157
23334  5700

/DISPLAY SYSTEM                           PAL8-V10D NO DATE   PAGE 100


23367  0005
23370  2630
23371  2460
23372  0400
23373  1000
23374  3457
23375  2000
23376  2200
23377  3231
       3400          *3400
             /SAMPLE ROUTINE FOR BSCAN
23400  0000  BSSMR,  0
23401  1200          TAD BSSMR
23402  3135          DCA LK3
23403  4257          JMS COLOR       /COLOR SAMPLE
23404  6002          IOF
23405  4207          JMS WRSAM       /WRITE SAMPLE, DOT, OR ?
23406  5535          JMP I LK3

             /WRITE SAMPLE IN R3. <0 WRITE DOT, =0 WRITE ?, >0 WRITE NUMBER.
23407  0000  WRSAM,  0
23410  1207          TAD WRSAM
23411  3133          DCA LK1
23412  6005          PION
23413  1121          TAD R3
23414  7540          SMA SZA
23415  5224          JMP WRSL1
23416  7650          SNA CLA         /NOISE OR SCREWY
23417  1377          TAD (4077-4056  /?
23420  1376          TAD (4056       /.
23421  7421          MQL
23422  1375          TAD (LIFMT2
23423  5231          JMP WRSL2
23424  1374  WRSL1,  TAD (-DBZBAS    /DATA
23425  7510          SPA
23426  1373          TAD (144
23427  7421          MQL
23430  1372          TAD (LIFMT3
23431  6571  WRSL2,  SVC             /WRITE STUFF
23432  2600          CALL
23433  3443          LILST2
23434  5771'         JMP LIRSRL
23435  7200          CLA
23436  5533          JMP I LK1
23437  0130  LIFMT2, TEXT /AX/
23440  0000
23441  1162  LIFMT3, TEXT /I2X/
23442  3000
23443  3122  LILST2, WRITE
23444  0002          02
23445  0002          02; OUT-X
23446  0011
23447  0002          02; IN-X

/DISPLAY SYSTEM                           PAL8-V10D NO DATE   PAGE 100-1

23450  0003
23451  0025          25; 0
23452  0000
23453  0001          01; WRMQ; 20; (1
23454  0004
23455  0020
23456  3570

/DISPLAY SYSTEM                           PAL8-V10D NO DATE   PAGE 101


             /ROUTINE TO COLOR A BSCAN MAP. R6 IS THE COLOR FLAG, AND CONTAINS
             /THE STATE OF THE OUTPUT DEVICE: <0 - DONT COLOR, =0 - BLACK,
             />0 - RED. IF R6 < 0, RETURN. OTHERWISE, LOOK AT THE SAMPLE IN R3
             /, DECIDE WHAT COLOR IT SHOULD BE, AND CHANGE COLOR IF NECESSARY.
23457  0000  COLOR,  0
23460  1257          TAD COLOR
23461  3134          DCA LK2
23462  6005          PION
23463  1124          TAD R6          /IS R6<0?
23464  7710          SPA CLA
23465  5534          JMP I LK2
23466  1121          TAD R3          /NO, CHECK SAMPLE
23467  1367          TAD (-DBZBAS-36 /IF IT IS NOISE OR <30, BLACK
23470  7510          SPA
23471  5300          JMP BLACK
23472  7427          MQL DVI; 12     /DIVIDE BY 10, CHECK EVEN/ODD
23473  0012
23474  7701          CLA MQA
23475  7010          RAR
23476  7620          SNL CLA
23477  5311          JMP RED
23500  7200  BLACK,  CLA             /CHANGE TO BLACK IF NECESSARY
23501  1124          TAD R6
23502  7750          SPA SNA CLA
23503  5534          JMP I LK2
23504  6002          IOF
23505  4766'         JMS PRINT
23506  3521          BCKFMT
23507  3124          DCA R6
23510  5534          JMP I LK2
23511  1124  RED,    TAD R6
23512  7640          SZA CLA
23513  5534          JMP I LK2
23514  6002          IOF
23515  4766'         JMS PRINT
23516  3524          REDFMT
23517  7001          IAC
23520  5307          JMP RED-2
23521  4447  BCKFMT, TEXT /$'4',/
23522  6447
23523  5400
23524  4447  REDFMT, TEXT /$'3',/
23525  6347
23526  5400

/DISPLAY SYSTEM                           PAL8-V10D NO DATE   PAGE 102


23566  0400
23567  7672
23570  0001
23571  2460
23572  3441
23573  0144
23574  7730
23575  3437
23576  4056
23577  0021
       3600          *3600
             /COMMAND TO DISPLAY RAYS ON PPI
23600  0000  EXPPI,  0
23601  1200          TAD EXPPI
23602  3140          DCA LK6
23603  1377          TAD (144        /PARSE ARGS
23604  4776'         JMS ARGS
23605  1375          TAD (-13        /SET UP DIRECTION IN R8
23606  3126          DCA R8
23607  6002          IOF             /PROCESS MAP
23610  4774'         JMS PROS
23611  3615          PPSSR
23612  3623          PPRSR
23613  3654          PPSMR
23614  5540          JMP I LK6

             /SCAN START ROUTINE FOR PPI
23615  0000  PPSSR,  0
23616  1126          TAD R8
23617  7041          CIA
23620  3126          DCA R8
23621  6005          PION
23622  5615          JMP I PPSSR

             /RAY START ROUTINE FOR PPI. SEND OUT RAY HEADER
23623  0000  PPRSR,  0
23624  1223          TAD PPRSR
23625  3134          DCA LK2
23626  1373          TAD (5252       /SEND SYNC WORD
23627  4265          JMS TIWR
23630  7130          STL RAR         /SEND COMMAND
23631  6002          IOF
23632  4265          JMS TIWR
23633  6002          IOF             /SEND AZ
23634  4772'         JMS LB; D; AZB
23635  0001
23636  0001
23637  6002          IOF
23640  4265          JMS TIWR
23641  7501          MQA             /SET AZ D/S
23642  1371          TAD (400
23643  6421          6421
23644  7200          CLA

/DISPLAY SYSTEM                           PAL8-V10D NO DATE   PAGE 102-1

23645  1126          TAD R8          /SEND R8
23646  6002          IOF
23647  4265          JMS TIWR
23650  1114          TAD ICW1        /SEND ICW1
23651  6002          IOF
23652  4265          JMS TIWR
23653  5534          JMP I LK2

             /SAMPLE ROUTINE FOR PPI
23654  0000  PPSMR,  0
23655  1254          TAD PPSMR
23656  3134          DCA LK2
23657  1121          TAD R3
23660  1370          TAD (-DBZBAS
23661  7510          SPA
23662  7200          CLA
23663  4265          JMS TIWR
23664  5534          JMP I LK2

             /WRITE TO TI
23665  0000  TIWR,   0
23666  7421          MQL
23667  1265          TAD TIWR
23670  3133          DCA LK1
23671  6005          PION
23672  7501          MQA
23673  6162          TIW
23674  5273          JMP .-1
23675  7200          CLA
23676  5533          JMP I LK1

/DISPLAY SYSTEM                           PAL8-V10D NO DATE   PAGE 103


23770  7730
23771  0400
23772  1000
23773  5252
23774  2000
23775  7765
23776  2200
23777  0144
       4000          *4000
             /IF THE RATE OPTION (#0) HAS BEEN SPECIFIED, CONVERT DBZ IN R3
             /TO RAIN RATE. Z=400*R**1.3.
24000  0000  RATES,  0
24001  1115          TAD OPTS        /RATE OPTION?
24002  7700          SMA CLA
24003  5220          JMP RTSL1
24004  1121          TAD R3          /YES, R3 HOLDS DATA?
24005  7750          SPA SNA CLA
24006  5220          JMP RTSL1
24007  1121          TAD R3          /YES, LOOKUP R
24010  1377          TAD (-DBZBAS-24
24011  7510          SPA
24012  7200          CLA
24013  1376          TAD (RTTAB
24014  3121          DCA R3
24015  1521          TAD I R3
24016  1375          TAD (DBZBAS
24017  3121          DCA R3
24020  6005  RTSL1,  PION
24021  5600          JMP I RATES
                     DECIMAL
24022  0000  RTTAB,  0;0;0;1;1;1;1;1;1;2;2;2;3;3;4;5;6;7;8;10
24023  0000
24024  0000
24025  0001
24026  0001
24027  0001
24030  0001
24031  0001
24032  0001
24033  0002
24034  0002
24035  0002
24036  0003
24037  0003
24040  0004
24041  0005
24042  0006
24043  0007
24044  0010
24045  0012
24046  0014          12;14;17;20;24;29;35;41;49;59;70;84;100;119;143
24047  0016
24050  0021

/DISPLAY SYSTEM                           PAL8-V10D NO DATE   PAGE 103-1

24051  0024
24052  0030
24053  0035
24054  0043
24055  0051
24056  0061
24057  0073
24060  0106
24061  0124
24062  0144
24063  0167
24064  0217
24065  0252          170;203;242;289;346;412
24066  0313
24067  0362
24070  0441
24071  0532
24072  0634
                     OCTAL

/DISPLAY SYSTEM                           PAL8-V10D NO DATE   PAGE 104


             /HANDLE OPTIONS FOR ARGS
24073  0000  HOPT,   0
24074  1273          TAD HOPT
24075  3133          DCA LK1
24076  6005          PION
24077  3115          DCA OPTS        /CLEAR OPTION SWITCHES
24100  1510          TAD I TP        /'('?
24101  1374          TAD (-TRMT-"(
24102  7640          SZA CLA
24103  5533          JMP I LK1       /NO, DONE.
24104  2110          ISZ TP
24105  1510  HOPTL,  TAD I TP        /')'?
24106  7450          SNA
24107  5773'         JMP CMDER
24110  1372          TAD (-TRMT-")
24111  7640          SZA CLA
24112  5315          JMP .+3
24113  2110          ISZ TP          /YES, DONE WITH OPTIONS
24114  5533          JMP I LK1
24115  6002          IOF             /IGNORE COMMA
24116  4771'         JMS SKPCM
24117  7000          NOP
24120  1510          TAD I TP        /FETCH OPTION, SET BIT
24121  2110          ISZ TP
24122  0370          AND (17
24123  1367          TAD (-OPTST
24124  6002          IOF
24125  3331          DCA .+4
24126  7421          MQL
24127  7001          IAC
24130  7417          LSR; 0
24131  0000
24132  6005          PION
24133  1115          TAD OPTS
24134  7501          MQA
24135  3115          DCA OPTS
24136  5305          JMP HOPTL

/DISPLAY SYSTEM                           PAL8-V10D NO DATE   PAGE 105


24167  7775
24170  0017
24171  2126
24172  6127
24173  0240
24174  6130
24175  0050
24176  4022
24177  7704
       4200          PAGE
       0003  OPTST=3
             /TABLES
24200  0273  TERTAB, ";; EXSCL
24201  0333
24202  0000          0

24203  3105  OPRTAB, TEXT /YES NO RATE SC,TTY LOAD DTY LIST BSC,PPI ./
24204  2340
24205  1617
24206  4022
24207  0124
24210  0540
24211  2303
24212  5424
24213  2431
24214  4014
24215  1701
24216  0440
24217  0424
24220  3140
24221  1411
24222  2324
24223  4002
24224  2303
24225  5420
24226  2011
24227  4056
24230  0000
24231  0337  OPREX,  EXSC; EXTTY; EXLOAD; EXDTY; EXLIST; EXBS; EXPPI
24232  0346
24233  0600
24234  1055
24235  2425
24236  3200
24237  3600
24240  0000  TKBUF,  ZBLOCK 220
             $

